{"contracts/ProjectManager.sol":{"ProjectManager":{"abi":[{"inputs":[{"internalType":"address","name":"_projectNFT","type":"address"},{"internalType":"address","name":"_carbonToken","type":"address"}],"stateMutability":"nonpayable","type":"constructor"},{"anonymous":false,"inputs":[{"indexed":false,"internalType":"address","name":"account","type":"address"}],"name":"Paused","type":"event"},{"anonymous":false,"inputs":[{"indexed":true,"internalType":"address","name":"projectOwner","type":"address"},{"indexed":false,"internalType":"uint256","name":"amount","type":"uint256"}],"name":"ProjectOwnerStaked","type":"event"},{"anonymous":false,"inputs":[{"indexed":true,"internalType":"uint256","name":"projectId","type":"uint256"},{"indexed":true,"internalType":"address","name":"owner","type":"address"},{"indexed":false,"internalType":"string","name":"metadataURI","type":"string"}],"name":"ProjectRegistered","type":"event"},{"anonymous":false,"inputs":[{"indexed":true,"internalType":"uint256","name":"projectId","type":"uint256"},{"indexed":true,"internalType":"address","name":"validator","type":"address"}],"name":"ProjectValidated","type":"event"},{"anonymous":false,"inputs":[{"indexed":true,"internalType":"bytes32","name":"role","type":"bytes32"},{"indexed":true,"internalType":"bytes32","name":"previousAdminRole","type":"bytes32"},{"indexed":true,"internalType":"bytes32","name":"newAdminRole","type":"bytes32"}],"name":"RoleAdminChanged","type":"event"},{"anonymous":false,"inputs":[{"indexed":true,"internalType":"bytes32","name":"role","type":"bytes32"},{"indexed":true,"internalType":"address","name":"account","type":"address"},{"indexed":true,"internalType":"address","name":"sender","type":"address"}],"name":"RoleGranted","type":"event"},{"anonymous":false,"inputs":[{"indexed":true,"internalType":"bytes32","name":"role","type":"bytes32"},{"indexed":true,"internalType":"address","name":"account","type":"address"},{"indexed":true,"internalType":"address","name":"sender","type":"address"}],"name":"RoleRevoked","type":"event"},{"anonymous":false,"inputs":[{"indexed":true,"internalType":"address","name":"staker","type":"address"},{"indexed":false,"internalType":"uint256","name":"amount","type":"uint256"}],"name":"StakeWithdrawn","type":"event"},{"anonymous":false,"inputs":[{"indexed":false,"internalType":"address","name":"account","type":"address"}],"name":"Unpaused","type":"event"},{"anonymous":false,"inputs":[{"indexed":true,"internalType":"address","name":"validator","type":"address"},{"indexed":false,"internalType":"uint256","name":"amount","type":"uint256"}],"name":"ValidatorStaked","type":"event"},{"inputs":[],"name":"DEFAULT_ADMIN_ROLE","outputs":[{"internalType":"bytes32","name":"","type":"bytes32"}],"stateMutability":"view","type":"function"},{"inputs":[],"name":"PROJECT_OWNER_ROLE","outputs":[{"internalType":"bytes32","name":"","type":"bytes32"}],"stateMutability":"view","type":"function"},{"inputs":[],"name":"PROJECT_OWNER_STAKE_AMOUNT","outputs":[{"internalType":"uint256","name":"","type":"uint256"}],"stateMutability":"view","type":"function"},{"inputs":[],"name":"VALIDATOR_ROLE","outputs":[{"internalType":"bytes32","name":"","type":"bytes32"}],"stateMutability":"view","type":"function"},{"inputs":[],"name":"VALIDATOR_STAKE_AMOUNT","outputs":[{"internalType":"uint256","name":"","type":"uint256"}],"stateMutability":"view","type":"function"},{"inputs":[],"name":"carbonToken","outputs":[{"internalType":"contract CarbonToken","name":"","type":"address"}],"stateMutability":"view","type":"function"},{"inputs":[{"internalType":"bytes32","name":"role","type":"bytes32"}],"name":"getRoleAdmin","outputs":[{"internalType":"bytes32","name":"","type":"bytes32"}],"stateMutability":"view","type":"function"},{"inputs":[{"internalType":"bytes32","name":"role","type":"bytes32"},{"internalType":"address","name":"account","type":"address"}],"name":"grantRole","outputs":[],"stateMutability":"nonpayable","type":"function"},{"inputs":[{"internalType":"address","name":"owner","type":"address"}],"name":"hasActiveProjects","outputs":[{"internalType":"bool","name":"","type":"bool"}],"stateMutability":"view","type":"function"},{"inputs":[{"internalType":"address","name":"validator","type":"address"}],"name":"hasActiveValidations","outputs":[{"internalType":"bool","name":"","type":"bool"}],"stateMutability":"view","type":"function"},{"inputs":[{"internalType":"bytes32","name":"role","type":"bytes32"},{"internalType":"address","name":"account","type":"address"}],"name":"hasRole","outputs":[{"internalType":"bool","name":"","type":"bool"}],"stateMutability":"view","type":"function"},{"inputs":[],"name":"pause","outputs":[],"stateMutability":"nonpayable","type":"function"},{"inputs":[],"name":"paused","outputs":[{"internalType":"bool","name":"","type":"bool"}],"stateMutability":"view","type":"function"},{"inputs":[],"name":"projectNFT","outputs":[{"internalType":"contract ProjectNFT","name":"","type":"address"}],"stateMutability":"view","type":"function"},{"inputs":[{"internalType":"uint256","name":"","type":"uint256"}],"name":"projectValidator","outputs":[{"internalType":"address","name":"","type":"address"}],"stateMutability":"view","type":"function"},{"inputs":[{"internalType":"uint256","name":"","type":"uint256"}],"name":"projects","outputs":[{"internalType":"address","name":"owner","type":"address"},{"internalType":"uint256","name":"expectedCredits","type":"uint256"},{"internalType":"bool","name":"isRegistered","type":"bool"},{"internalType":"bool","name":"isValidated","type":"bool"}],"stateMutability":"view","type":"function"},{"inputs":[{"internalType":"string","name":"metadataURI","type":"string"},{"internalType":"uint256","name":"expectedCredits","type":"uint256"}],"name":"registerProject","outputs":[{"internalType":"uint256","name":"","type":"uint256"}],"stateMutability":"nonpayable","type":"function"},{"inputs":[{"internalType":"bytes32","name":"role","type":"bytes32"},{"internalType":"address","name":"account","type":"address"}],"name":"renounceRole","outputs":[],"stateMutability":"nonpayable","type":"function"},{"inputs":[{"internalType":"bytes32","name":"role","type":"bytes32"},{"internalType":"address","name":"account","type":"address"}],"name":"revokeRole","outputs":[],"stateMutability":"nonpayable","type":"function"},{"inputs":[],"name":"stakeAsProjectOwner","outputs":[],"stateMutability":"payable","type":"function"},{"inputs":[],"name":"stakeAsValidator","outputs":[],"stateMutability":"payable","type":"function"},{"inputs":[{"internalType":"address","name":"","type":"address"}],"name":"stakedAmount","outputs":[{"internalType":"uint256","name":"","type":"uint256"}],"stateMutability":"view","type":"function"},{"inputs":[{"internalType":"bytes4","name":"interfaceId","type":"bytes4"}],"name":"supportsInterface","outputs":[{"internalType":"bool","name":"","type":"bool"}],"stateMutability":"view","type":"function"},{"inputs":[],"name":"unpause","outputs":[],"stateMutability":"nonpayable","type":"function"},{"inputs":[{"internalType":"uint256","name":"projectId","type":"uint256"}],"name":"validateProject","outputs":[],"stateMutability":"nonpayable","type":"function"},{"inputs":[],"name":"withdrawStake","outputs":[],"stateMutability":"nonpayable","type":"function"}],"evm":{"bytecode":{"linkReferences":{},"object":"60806040523480156200001157600080fd5b5060405162002e2c38038062002e2c8339818101604052810190620000379190620002d3565b6000600160006101000a81548160ff021916908315150217905550620000676000801b33620000f060201b60201c565b816001806101000a81548173ffffffffffffffffffffffffffffffffffffffff021916908373ffffffffffffffffffffffffffffffffffffffff16021790555080600260006101000a81548173ffffffffffffffffffffffffffffffffffffffff021916908373ffffffffffffffffffffffffffffffffffffffff16021790555050506200031a565b6200010282826200010660201b60201c565b5050565b620001188282620001f760201b60201c565b620001f357600160008084815260200190815260200160002060000160008373ffffffffffffffffffffffffffffffffffffffff1673ffffffffffffffffffffffffffffffffffffffff16815260200190815260200160002060006101000a81548160ff021916908315150217905550620001986200026160201b60201c565b73ffffffffffffffffffffffffffffffffffffffff168173ffffffffffffffffffffffffffffffffffffffff16837f2f8788117e7eff1d82e926ec794901d17c78024a50270940304540a733656f0d60405160405180910390a45b5050565b600080600084815260200190815260200160002060000160008373ffffffffffffffffffffffffffffffffffffffff1673ffffffffffffffffffffffffffffffffffffffff16815260200190815260200160002060009054906101000a900460ff16905092915050565b600033905090565b600080fd5b600073ffffffffffffffffffffffffffffffffffffffff82169050919050565b60006200029b826200026e565b9050919050565b620002ad816200028e565b8114620002b957600080fd5b50565b600081519050620002cd81620002a2565b92915050565b60008060408385031215620002ed57620002ec62000269565b5b6000620002fd85828601620002bc565b92505060206200031085828601620002bc565b9150509250929050565b612b02806200032a6000396000f3fe6080604052600436106101815760003560e01c806382a71ef2116100d1578063bed9d8611161008a578063dad64ff511610064578063dad64ff514610554578063e45bf1991461055e578063f26f629c1461059b578063f9931855146105c657610181565b8063bed9d861146104e9578063c49baebe14610500578063d547741f1461052b57610181565b806382a71ef2146103e95780638456cb591461041457806391d148541461042b578063a217fddf14610468578063a2fd691714610493578063be62da0e146104be57610181565b80632f2ff15d1161013e5780633ff7fc11116101185780633ff7fc111461034e578063570214691461038b5780635c975abb146103b4578063732b97fe146103df57610181565b80632f2ff15d146102e557806336568abe1461030e5780633f4ba83a1461033757610181565b806301ffc9a714610186578063107046bd146101c35780631410b909146102035780631b9a3e7014610240578063248a9ca31461026b57806328ac4637146102a8575b600080fd5b34801561019257600080fd5b506101ad60048036038101906101a89190611cc6565b610603565b6040516101ba9190611d0e565b60405180910390f35b3480156101cf57600080fd5b506101ea60048036038101906101e59190611d5f565b610615565b6040516101fa9493929190611ddc565b60405180910390f35b34801561020f57600080fd5b5061022a60048036038101906102259190611f67565b61067f565b6040516102379190611fc3565b60405180910390f35b34801561024c57600080fd5b50610255610893565b6040516102629190611fc3565b60405180910390f35b34801561027757600080fd5b50610292600480360381019061028d9190612014565b6108a0565b60405161029f9190612050565b60405180910390f35b3480156102b457600080fd5b506102cf60048036038101906102ca9190612097565b6108bf565b6040516102dc9190611d0e565b60405180910390f35b3480156102f157600080fd5b5061030c600480360381019061030791906120c4565b6108c6565b005b34801561031a57600080fd5b50610335600480360381019061033091906120c4565b6108e7565b005b34801561034357600080fd5b5061034c61096a565b005b34801561035a57600080fd5b5061037560048036038101906103709190612097565b610982565b6040516103829190611d0e565b60405180910390f35b34801561039757600080fd5b506103b260048036038101906103ad9190611d5f565b610989565b005b3480156103c057600080fd5b506103c9610d55565b6040516103d69190611d0e565b60405180910390f35b6103e7610d6c565b005b3480156103f557600080fd5b506103fe610ee6565b60405161040b9190612163565b60405180910390f35b34801561042057600080fd5b50610429610f0c565b005b34801561043757600080fd5b50610452600480360381019061044d91906120c4565b610f24565b60405161045f9190611d0e565b60405180910390f35b34801561047457600080fd5b5061047d610f8e565b60405161048a9190612050565b60405180910390f35b34801561049f57600080fd5b506104a8610f95565b6040516104b5919061219f565b60405180910390f35b3480156104ca57600080fd5b506104d3610fb9565b6040516104e09190612050565b60405180910390f35b3480156104f557600080fd5b506104fe610fdd565b005b34801561050c57600080fd5b5061051561132e565b6040516105229190612050565b60405180910390f35b34801561053757600080fd5b50610552600480360381019061054d91906120c4565b611352565b005b61055c611373565b005b34801561056a57600080fd5b5061058560048036038101906105809190611d5f565b6114ee565b60405161059291906121ba565b60405180910390f35b3480156105a757600080fd5b506105b0611521565b6040516105bd9190611fc3565b60405180910390f35b3480156105d257600080fd5b506105ed60048036038101906105e89190612097565b61152d565b6040516105fa9190611fc3565b60405180910390f35b600061060e82611545565b9050919050565b60056020528060005260406000206000915090508060000160009054906101000a900473ffffffffffffffffffffffffffffffffffffffff16908060010154908060020160009054906101000a900460ff16908060020160019054906101000a900460ff16905084565b60006106896115bf565b7f770fadb28e0e3026382976ee8b810cb0eb8666922148dd9e10b20cfb9b477ba86106b381611609565b600060018054906101000a900473ffffffffffffffffffffffffffffffffffffffff1673ffffffffffffffffffffffffffffffffffffffff1663dcbb935533876040518363ffffffff1660e01b8152600401610710929190612254565b6020604051808303816000875af115801561072f573d6000803e3d6000fd5b505050506040513d601f19601f820116820180604052508101906107539190612299565b905060405180608001604052803373ffffffffffffffffffffffffffffffffffffffff168152602001858152602001600115158152602001600015158152506005600083815260200190815260200160002060008201518160000160006101000a81548173ffffffffffffffffffffffffffffffffffffffff021916908373ffffffffffffffffffffffffffffffffffffffff1602179055506020820151816001015560408201518160020160006101000a81548160ff02191690831515021790555060608201518160020160016101000a81548160ff0219169083151502179055509050503373ffffffffffffffffffffffffffffffffffffffff16817f1fb4423aed62bba3e66f7c81a4af273642c7e8c57d7b111ae2b1aca9887869ba8760405161088091906122c6565b60405180910390a3809250505092915050565b6802b5e3af16b188000081565b6000806000838152602001908152602001600020600101549050919050565b6000919050565b6108cf826108a0565b6108d881611609565b6108e2838361161d565b505050565b6108ef6116fd565b73ffffffffffffffffffffffffffffffffffffffff168173ffffffffffffffffffffffffffffffffffffffff161461095c576040517f08c379a00000000000000000000000000000000000000000000000000000000081526004016109539061235a565b60405180910390fd5b6109668282611705565b5050565b6000801b61097781611609565b61097f6117e6565b50565b6000919050565b6109916115bf565b7f21702c8af46127c7fa207f89d0b0a8441bb32959a0ac7df790e9ab1a25c989266109bb81611609565b6005600083815260200190815260200160002060020160009054906101000a900460ff16610a1e576040517f08c379a0000000000000000000000000000000000000000000000000000000008152600401610a15906123c6565b60405180910390fd5b6005600083815260200190815260200160002060020160019054906101000a900460ff1615610a82576040517f08c379a0000000000000000000000000000000000000000000000000000000008152600401610a7990612432565b60405180910390fd5b600073ffffffffffffffffffffffffffffffffffffffff166004600084815260200190815260200160002060009054906101000a900473ffffffffffffffffffffffffffffffffffffffff1673ffffffffffffffffffffffffffffffffffffffff1614610b24576040517f08c379a0000000000000000000000000000000000000000000000000000000008152600401610b1b9061249e565b60405180910390fd5b336004600084815260200190815260200160002060006101000a81548173ffffffffffffffffffffffffffffffffffffffff021916908373ffffffffffffffffffffffffffffffffffffffff16021790555060016005600084815260200190815260200160002060020160016101000a81548160ff02191690831515021790555060018054906101000a900473ffffffffffffffffffffffffffffffffffffffff1673ffffffffffffffffffffffffffffffffffffffff1663e73a50f0836040518263ffffffff1660e01b8152600401610bfe9190611fc3565b600060405180830381600087803b158015610c1857600080fd5b505af1158015610c2c573d6000803e3d6000fd5b50505050600260009054906101000a900473ffffffffffffffffffffffffffffffffffffffff1673ffffffffffffffffffffffffffffffffffffffff1663d9c53c84836005600086815260200190815260200160002060000160009054906101000a900473ffffffffffffffffffffffffffffffffffffffff1660056000878152602001908152602001600020600101546040518463ffffffff1660e01b8152600401610cdb939291906124be565b600060405180830381600087803b158015610cf557600080fd5b505af1158015610d09573d6000803e3d6000fd5b505050503373ffffffffffffffffffffffffffffffffffffffff16827f84ffc84db0a14dc30a09c96c2dc65081ab5a1f28b1ec2543ec701b04ad161a9d60405160405180910390a35050565b6000600160009054906101000a900460ff16905090565b610d746115bf565b678ac7230489e800003414610dbe576040517f08c379a0000000000000000000000000000000000000000000000000000000008152600401610db590612541565b60405180910390fd5b610de87f770fadb28e0e3026382976ee8b810cb0eb8666922148dd9e10b20cfb9b477ba833610f24565b15610e28576040517f08c379a0000000000000000000000000000000000000000000000000000000008152600401610e1f906125ad565b60405180910390fd5b34600360003373ffffffffffffffffffffffffffffffffffffffff1673ffffffffffffffffffffffffffffffffffffffff16815260200190815260200160002081905550610e967f770fadb28e0e3026382976ee8b810cb0eb8666922148dd9e10b20cfb9b477ba833611849565b3373ffffffffffffffffffffffffffffffffffffffff167f092bb0ea98f286b67ecb12d06ed9e477b1987927596d030006babfa2c9eb057e34604051610edc9190611fc3565b60405180910390a2565b600260009054906101000a900473ffffffffffffffffffffffffffffffffffffffff1681565b6000801b610f1981611609565b610f21611857565b50565b600080600084815260200190815260200160002060000160008373ffffffffffffffffffffffffffffffffffffffff1673ffffffffffffffffffffffffffffffffffffffff16815260200190815260200160002060009054906101000a900460ff16905092915050565b6000801b81565b60018054906101000a900473ffffffffffffffffffffffffffffffffffffffff1681565b7f770fadb28e0e3026382976ee8b810cb0eb8666922148dd9e10b20cfb9b477ba881565b610fe56115bf565b6000600360003373ffffffffffffffffffffffffffffffffffffffff1673ffffffffffffffffffffffffffffffffffffffff1681526020019081526020016000205411611067576040517f08c379a000000000000000000000000000000000000000000000000000000000815260040161105e90612619565b60405180910390fd5b6110917f770fadb28e0e3026382976ee8b810cb0eb8666922148dd9e10b20cfb9b477ba833610f24565b156110e05761109f33610982565b156110df576040517f08c379a00000000000000000000000000000000000000000000000000000000081526004016110d690612685565b60405180910390fd5b5b61110a7f21702c8af46127c7fa207f89d0b0a8441bb32959a0ac7df790e9ab1a25c9892633610f24565b1561115957611118336108bf565b15611158576040517f08c379a000000000000000000000000000000000000000000000000000000000815260040161114f906126f1565b60405180910390fd5b5b6000600360003373ffffffffffffffffffffffffffffffffffffffff1673ffffffffffffffffffffffffffffffffffffffff1681526020019081526020016000205490506000600360003373ffffffffffffffffffffffffffffffffffffffff1673ffffffffffffffffffffffffffffffffffffffff1681526020019081526020016000208190555061120c7f21702c8af46127c7fa207f89d0b0a8441bb32959a0ac7df790e9ab1a25c9892633610f24565b1561123c5761123b7f21702c8af46127c7fa207f89d0b0a8441bb32959a0ac7df790e9ab1a25c9892633611352565b5b6112667f770fadb28e0e3026382976ee8b810cb0eb8666922148dd9e10b20cfb9b477ba833610f24565b15611296576112957f770fadb28e0e3026382976ee8b810cb0eb8666922148dd9e10b20cfb9b477ba833611352565b5b3373ffffffffffffffffffffffffffffffffffffffff166108fc829081150290604051600060405180830381858888f193505050501580156112dc573d6000803e3d6000fd5b503373ffffffffffffffffffffffffffffffffffffffff167f8108595eb6bad3acefa9da467d90cc2217686d5c5ac85460f8b7849c840645fc826040516113239190611fc3565b60405180910390a250565b7f21702c8af46127c7fa207f89d0b0a8441bb32959a0ac7df790e9ab1a25c9892681565b61135b826108a0565b61136481611609565b61136e8383611705565b505050565b61137b6115bf565b6802b5e3af16b188000034146113c6576040517f08c379a00000000000000000000000000000000000000000000000000000000081526004016113bd90612541565b60405180910390fd5b6113f07f21702c8af46127c7fa207f89d0b0a8441bb32959a0ac7df790e9ab1a25c9892633610f24565b15611430576040517f08c379a00000000000000000000000000000000000000000000000000000000081526004016114279061275d565b60405180910390fd5b34600360003373ffffffffffffffffffffffffffffffffffffffff1673ffffffffffffffffffffffffffffffffffffffff1681526020019081526020016000208190555061149e7f21702c8af46127c7fa207f89d0b0a8441bb32959a0ac7df790e9ab1a25c9892633611849565b3373ffffffffffffffffffffffffffffffffffffffff167fbdf8f4c0feff7f456c5c1fd1c42716baa7ee66801a0b860872009ac945403fa0346040516114e49190611fc3565b60405180910390a2565b60046020528060005260406000206000915054906101000a900473ffffffffffffffffffffffffffffffffffffffff1681565b678ac7230489e8000081565b60036020528060005260406000206000915090505481565b60007f7965db0b000000000000000000000000000000000000000000000000000000007bffffffffffffffffffffffffffffffffffffffffffffffffffffffff1916827bffffffffffffffffffffffffffffffffffffffffffffffffffffffff191614806115b857506115b7826118b9565b5b9050919050565b6115c7610d55565b15611607576040517f08c379a00000000000000000000000000000000000000000000000000000000081526004016115fe906127c9565b60405180910390fd5b565b61161a816116156116fd565b611923565b50565b6116278282610f24565b6116f957600160008084815260200190815260200160002060000160008373ffffffffffffffffffffffffffffffffffffffff1673ffffffffffffffffffffffffffffffffffffffff16815260200190815260200160002060006101000a81548160ff02191690831515021790555061169e6116fd565b73ffffffffffffffffffffffffffffffffffffffff168173ffffffffffffffffffffffffffffffffffffffff16837f2f8788117e7eff1d82e926ec794901d17c78024a50270940304540a733656f0d60405160405180910390a45b5050565b600033905090565b61170f8282610f24565b156117e257600080600084815260200190815260200160002060000160008373ffffffffffffffffffffffffffffffffffffffff1673ffffffffffffffffffffffffffffffffffffffff16815260200190815260200160002060006101000a81548160ff0219169083151502179055506117876116fd565b73ffffffffffffffffffffffffffffffffffffffff168173ffffffffffffffffffffffffffffffffffffffff16837ff6391f5c32d9c69d2a47ea670b442974b53935d1edc7fd64eb21e047a839171b60405160405180910390a45b5050565b6117ee6119a8565b6000600160006101000a81548160ff0219169083151502179055507f5db9ee0a495bf2e6ff9c91a7834c1ba4fdd244a5e8aa4e537bd38aeae4b073aa6118326116fd565b60405161183f91906121ba565b60405180910390a1565b611853828261161d565b5050565b61185f6115bf565b60018060006101000a81548160ff0219169083151502179055507f62e78cea01bee320cd4e420270b5ea74000d11b0c9f74754ebdbfc544b05a2586118a26116fd565b6040516118af91906121ba565b60405180910390a1565b60007f01ffc9a7000000000000000000000000000000000000000000000000000000007bffffffffffffffffffffffffffffffffffffffffffffffffffffffff1916827bffffffffffffffffffffffffffffffffffffffffffffffffffffffff1916149050919050565b61192d8282610f24565b6119a45761193a816119f1565b6119488360001c6020611a1e565b6040516020016119599291906128bd565b6040516020818303038152906040526040517f08c379a000000000000000000000000000000000000000000000000000000000815260040161199b91906122c6565b60405180910390fd5b5050565b6119b0610d55565b6119ef576040517f08c379a00000000000000000000000000000000000000000000000000000000081526004016119e690612943565b60405180910390fd5b565b6060611a178273ffffffffffffffffffffffffffffffffffffffff16601460ff16611a1e565b9050919050565b606060006002836002611a319190612992565b611a3b91906129d4565b67ffffffffffffffff811115611a5457611a53611e3c565b5b6040519080825280601f01601f191660200182016040528015611a865781602001600182028036833780820191505090505b5090507f300000000000000000000000000000000000000000000000000000000000000081600081518110611abe57611abd612a08565b5b60200101907effffffffffffffffffffffffffffffffffffffffffffffffffffffffffffff1916908160001a9053507f780000000000000000000000000000000000000000000000000000000000000081600181518110611b2257611b21612a08565b5b60200101907effffffffffffffffffffffffffffffffffffffffffffffffffffffffffffff1916908160001a90535060006001846002611b629190612992565b611b6c91906129d4565b90505b6001811115611c0c577f3031323334353637383961626364656600000000000000000000000000000000600f861660108110611bae57611bad612a08565b5b1a60f81b828281518110611bc557611bc4612a08565b5b60200101907effffffffffffffffffffffffffffffffffffffffffffffffffffffffffffff1916908160001a905350600485901c945080611c0590612a37565b9050611b6f565b5060008414611c50576040517f08c379a0000000000000000000000000000000000000000000000000000000008152600401611c4790612aac565b60405180910390fd5b8091505092915050565b6000604051905090565b600080fd5b600080fd5b60007fffffffff0000000000000000000000000000000000000000000000000000000082169050919050565b611ca381611c6e565b8114611cae57600080fd5b50565b600081359050611cc081611c9a565b92915050565b600060208284031215611cdc57611cdb611c64565b5b6000611cea84828501611cb1565b91505092915050565b60008115159050919050565b611d0881611cf3565b82525050565b6000602082019050611d236000830184611cff565b92915050565b6000819050919050565b611d3c81611d29565b8114611d4757600080fd5b50565b600081359050611d5981611d33565b92915050565b600060208284031215611d7557611d74611c64565b5b6000611d8384828501611d4a565b91505092915050565b600073ffffffffffffffffffffffffffffffffffffffff82169050919050565b6000611db782611d8c565b9050919050565b611dc781611dac565b82525050565b611dd681611d29565b82525050565b6000608082019050611df16000830187611dbe565b611dfe6020830186611dcd565b611e0b6040830185611cff565b611e186060830184611cff565b95945050505050565b600080fd5b600080fd5b6000601f19601f8301169050919050565b7f4e487b7100000000000000000000000000000000000000000000000000000000600052604160045260246000fd5b611e7482611e2b565b810181811067ffffffffffffffff82111715611e9357611e92611e3c565b5b80604052505050565b6000611ea6611c5a565b9050611eb28282611e6b565b919050565b600067ffffffffffffffff821115611ed257611ed1611e3c565b5b611edb82611e2b565b9050602081019050919050565b82818337600083830152505050565b6000611f0a611f0584611eb7565b611e9c565b905082815260208101848484011115611f2657611f25611e26565b5b611f31848285611ee8565b509392505050565b600082601f830112611f4e57611f4d611e21565b5b8135611f5e848260208601611ef7565b91505092915050565b60008060408385031215611f7e57611f7d611c64565b5b600083013567ffffffffffffffff811115611f9c57611f9b611c69565b5b611fa885828601611f39565b9250506020611fb985828601611d4a565b9150509250929050565b6000602082019050611fd86000830184611dcd565b92915050565b6000819050919050565b611ff181611fde565b8114611ffc57600080fd5b50565b60008135905061200e81611fe8565b92915050565b60006020828403121561202a57612029611c64565b5b600061203884828501611fff565b91505092915050565b61204a81611fde565b82525050565b60006020820190506120656000830184612041565b92915050565b61207481611dac565b811461207f57600080fd5b50565b6000813590506120918161206b565b92915050565b6000602082840312156120ad576120ac611c64565b5b60006120bb84828501612082565b91505092915050565b600080604083850312156120db576120da611c64565b5b60006120e985828601611fff565b92505060206120fa85828601612082565b9150509250929050565b6000819050919050565b600061212961212461211f84611d8c565b612104565b611d8c565b9050919050565b600061213b8261210e565b9050919050565b600061214d82612130565b9050919050565b61215d81612142565b82525050565b60006020820190506121786000830184612154565b92915050565b600061218982612130565b9050919050565b6121998161217e565b82525050565b60006020820190506121b46000830184612190565b92915050565b60006020820190506121cf6000830184611dbe565b92915050565b600081519050919050565b600082825260208201905092915050565b60005b8381101561220f5780820151818401526020810190506121f4565b60008484015250505050565b6000612226826121d5565b61223081856121e0565b93506122408185602086016121f1565b61224981611e2b565b840191505092915050565b60006040820190506122696000830185611dbe565b818103602083015261227b818461221b565b90509392505050565b60008151905061229381611d33565b92915050565b6000602082840312156122af576122ae611c64565b5b60006122bd84828501612284565b91505092915050565b600060208201905081810360008301526122e0818461221b565b905092915050565b7f416363657373436f6e74726f6c3a2063616e206f6e6c792072656e6f756e636560008201527f20726f6c657320666f722073656c660000000000000000000000000000000000602082015250565b6000612344602f836121e0565b915061234f826122e8565b604082019050919050565b6000602082019050818103600083015261237381612337565b9050919050565b7f50726f6a656374206e6f74207265676973746572656400000000000000000000600082015250565b60006123b06016836121e0565b91506123bb8261237a565b602082019050919050565b600060208201905081810360008301526123df816123a3565b9050919050565b7f50726f6a65637420616c72656164792076616c69646174656400000000000000600082015250565b600061241c6019836121e0565b9150612427826123e6565b602082019050919050565b6000602082019050818103600083015261244b8161240f565b9050919050565b7f56616c696461746f7220616c72656164792061737369676e6564000000000000600082015250565b6000612488601a836121e0565b915061249382612452565b602082019050919050565b600060208201905081810360008301526124b78161247b565b9050919050565b60006060820190506124d36000830186611dcd565b6124e06020830185611dbe565b6124ed6040830184611dcd565b949350505050565b7f496e636f7272656374207374616b6520616d6f756e7400000000000000000000600082015250565b600061252b6016836121e0565b9150612536826124f5565b602082019050919050565b6000602082019050818103600083015261255a8161251e565b9050919050565b7f416c726561647920612070726f6a656374206f776e6572000000000000000000600082015250565b60006125976017836121e0565b91506125a282612561565b602082019050919050565b600060208201905081810360008301526125c68161258a565b9050919050565b7f4e6f207374616b6520746f207769746864726177000000000000000000000000600082015250565b60006126036014836121e0565b915061260e826125cd565b602082019050919050565b60006020820190508181036000830152612632816125f6565b9050919050565b7f486173206163746976652070726f6a6563747300000000000000000000000000600082015250565b600061266f6013836121e0565b915061267a82612639565b602082019050919050565b6000602082019050818103600083015261269e81612662565b9050919050565b7f486173206163746976652076616c69646174696f6e7300000000000000000000600082015250565b60006126db6016836121e0565b91506126e6826126a5565b602082019050919050565b6000602082019050818103600083015261270a816126ce565b9050919050565b7f416c726561647920612076616c696461746f7200000000000000000000000000600082015250565b60006127476013836121e0565b915061275282612711565b602082019050919050565b600060208201905081810360008301526127768161273a565b9050919050565b7f5061757361626c653a2070617573656400000000000000000000000000000000600082015250565b60006127b36010836121e0565b91506127be8261277d565b602082019050919050565b600060208201905081810360008301526127e2816127a6565b9050919050565b600081905092915050565b7f416363657373436f6e74726f6c3a206163636f756e7420000000000000000000600082015250565b600061282a6017836127e9565b9150612835826127f4565b601782019050919050565b600061284b826121d5565b61285581856127e9565b93506128658185602086016121f1565b80840191505092915050565b7f206973206d697373696e6720726f6c6520000000000000000000000000000000600082015250565b60006128a76011836127e9565b91506128b282612871565b601182019050919050565b60006128c88261281d565b91506128d48285612840565b91506128df8261289a565b91506128eb8284612840565b91508190509392505050565b7f5061757361626c653a206e6f7420706175736564000000000000000000000000600082015250565b600061292d6014836121e0565b9150612938826128f7565b602082019050919050565b6000602082019050818103600083015261295c81612920565b9050919050565b7f4e487b7100000000000000000000000000000000000000000000000000000000600052601160045260246000fd5b600061299d82611d29565b91506129a883611d29565b92508282026129b681611d29565b915082820484148315176129cd576129cc612963565b5b5092915050565b60006129df82611d29565b91506129ea83611d29565b9250828201905080821115612a0257612a01612963565b5b92915050565b7f4e487b7100000000000000000000000000000000000000000000000000000000600052603260045260246000fd5b6000612a4282611d29565b915060008203612a5557612a54612963565b5b600182039050919050565b7f537472696e67733a20686578206c656e67746820696e73756666696369656e74600082015250565b6000612a966020836121e0565b9150612aa182612a60565b602082019050919050565b60006020820190508181036000830152612ac581612a89565b905091905056fea26469706673582212208f51f4cb663ef64c8b0355b28c0224a5f996700a24f18cc605bd79111fa93db464736f6c63430008140033","opcodes":"PUSH1 0x80 PUSH1 0x40 MSTORE CALLVALUE DUP1 ISZERO PUSH3 0x11 JUMPI PUSH1 0x0 DUP1 REVERT JUMPDEST POP PUSH1 0x40 MLOAD PUSH3 0x2E2C CODESIZE SUB DUP1 PUSH3 0x2E2C DUP4 CODECOPY DUP2 DUP2 ADD PUSH1 0x40 MSTORE DUP2 ADD SWAP1 PUSH3 0x37 SWAP2 SWAP1 PUSH3 0x2D3 JUMP JUMPDEST PUSH1 0x0 PUSH1 0x1 PUSH1 0x0 PUSH2 0x100 EXP DUP2 SLOAD DUP2 PUSH1 0xFF MUL NOT AND SWAP1 DUP4 ISZERO ISZERO MUL OR SWAP1 SSTORE POP PUSH3 0x67 PUSH1 0x0 DUP1 SHL CALLER PUSH3 0xF0 PUSH1 0x20 SHL PUSH1 0x20 SHR JUMP JUMPDEST DUP2 PUSH1 0x1 DUP1 PUSH2 0x100 EXP DUP2 SLOAD DUP2 PUSH20 0xFFFFFFFFFFFFFFFFFFFFFFFFFFFFFFFFFFFFFFFF MUL NOT AND SWAP1 DUP4 PUSH20 0xFFFFFFFFFFFFFFFFFFFFFFFFFFFFFFFFFFFFFFFF AND MUL OR SWAP1 SSTORE POP DUP1 PUSH1 0x2 PUSH1 0x0 PUSH2 0x100 EXP DUP2 SLOAD DUP2 PUSH20 0xFFFFFFFFFFFFFFFFFFFFFFFFFFFFFFFFFFFFFFFF MUL NOT AND SWAP1 DUP4 PUSH20 0xFFFFFFFFFFFFFFFFFFFFFFFFFFFFFFFFFFFFFFFF AND MUL OR SWAP1 SSTORE POP POP POP PUSH3 0x31A JUMP JUMPDEST PUSH3 0x102 DUP3 DUP3 PUSH3 0x106 PUSH1 0x20 SHL PUSH1 0x20 SHR JUMP JUMPDEST POP POP JUMP JUMPDEST PUSH3 0x118 DUP3 DUP3 PUSH3 0x1F7 PUSH1 0x20 SHL PUSH1 0x20 SHR JUMP JUMPDEST PUSH3 0x1F3 JUMPI PUSH1 0x1 PUSH1 0x0 DUP1 DUP5 DUP2 MSTORE PUSH1 0x20 ADD SWAP1 DUP2 MSTORE PUSH1 0x20 ADD PUSH1 0x0 KECCAK256 PUSH1 0x0 ADD PUSH1 0x0 DUP4 PUSH20 0xFFFFFFFFFFFFFFFFFFFFFFFFFFFFFFFFFFFFFFFF AND PUSH20 0xFFFFFFFFFFFFFFFFFFFFFFFFFFFFFFFFFFFFFFFF AND DUP2 MSTORE PUSH1 0x20 ADD SWAP1 DUP2 MSTORE PUSH1 0x20 ADD PUSH1 0x0 KECCAK256 PUSH1 0x0 PUSH2 0x100 EXP DUP2 SLOAD DUP2 PUSH1 0xFF MUL NOT AND SWAP1 DUP4 ISZERO ISZERO MUL OR SWAP1 SSTORE POP PUSH3 0x198 PUSH3 0x261 PUSH1 0x20 SHL PUSH1 0x20 SHR JUMP JUMPDEST PUSH20 0xFFFFFFFFFFFFFFFFFFFFFFFFFFFFFFFFFFFFFFFF AND DUP2 PUSH20 0xFFFFFFFFFFFFFFFFFFFFFFFFFFFFFFFFFFFFFFFF AND DUP4 PUSH32 0x2F8788117E7EFF1D82E926EC794901D17C78024A50270940304540A733656F0D PUSH1 0x40 MLOAD PUSH1 0x40 MLOAD DUP1 SWAP2 SUB SWAP1 LOG4 JUMPDEST POP POP JUMP JUMPDEST PUSH1 0x0 DUP1 PUSH1 0x0 DUP5 DUP2 MSTORE PUSH1 0x20 ADD SWAP1 DUP2 MSTORE PUSH1 0x20 ADD PUSH1 0x0 KECCAK256 PUSH1 0x0 ADD PUSH1 0x0 DUP4 PUSH20 0xFFFFFFFFFFFFFFFFFFFFFFFFFFFFFFFFFFFFFFFF AND PUSH20 0xFFFFFFFFFFFFFFFFFFFFFFFFFFFFFFFFFFFFFFFF AND DUP2 MSTORE PUSH1 0x20 ADD SWAP1 DUP2 MSTORE PUSH1 0x20 ADD PUSH1 0x0 KECCAK256 PUSH1 0x0 SWAP1 SLOAD SWAP1 PUSH2 0x100 EXP SWAP1 DIV PUSH1 0xFF AND SWAP1 POP SWAP3 SWAP2 POP POP JUMP JUMPDEST PUSH1 0x0 CALLER SWAP1 POP SWAP1 JUMP JUMPDEST PUSH1 0x0 DUP1 REVERT JUMPDEST PUSH1 0x0 PUSH20 0xFFFFFFFFFFFFFFFFFFFFFFFFFFFFFFFFFFFFFFFF DUP3 AND SWAP1 POP SWAP2 SWAP1 POP JUMP JUMPDEST PUSH1 0x0 PUSH3 0x29B DUP3 PUSH3 0x26E JUMP JUMPDEST SWAP1 POP SWAP2 SWAP1 POP JUMP JUMPDEST PUSH3 0x2AD DUP2 PUSH3 0x28E JUMP JUMPDEST DUP2 EQ PUSH3 0x2B9 JUMPI PUSH1 0x0 DUP1 REVERT JUMPDEST POP JUMP JUMPDEST PUSH1 0x0 DUP2 MLOAD SWAP1 POP PUSH3 0x2CD DUP2 PUSH3 0x2A2 JUMP JUMPDEST SWAP3 SWAP2 POP POP JUMP JUMPDEST PUSH1 0x0 DUP1 PUSH1 0x40 DUP4 DUP6 SUB SLT ISZERO PUSH3 0x2ED JUMPI PUSH3 0x2EC PUSH3 0x269 JUMP JUMPDEST JUMPDEST PUSH1 0x0 PUSH3 0x2FD DUP6 DUP3 DUP7 ADD PUSH3 0x2BC JUMP JUMPDEST SWAP3 POP POP PUSH1 0x20 PUSH3 0x310 DUP6 DUP3 DUP7 ADD PUSH3 0x2BC JUMP JUMPDEST SWAP2 POP POP SWAP3 POP SWAP3 SWAP1 POP JUMP JUMPDEST PUSH2 0x2B02 DUP1 PUSH3 0x32A PUSH1 0x0 CODECOPY PUSH1 0x0 RETURN INVALID PUSH1 0x80 PUSH1 0x40 MSTORE PUSH1 0x4 CALLDATASIZE LT PUSH2 0x181 JUMPI PUSH1 0x0 CALLDATALOAD PUSH1 0xE0 SHR DUP1 PUSH4 0x82A71EF2 GT PUSH2 0xD1 JUMPI DUP1 PUSH4 0xBED9D861 GT PUSH2 0x8A JUMPI DUP1 PUSH4 0xDAD64FF5 GT PUSH2 0x64 JUMPI DUP1 PUSH4 0xDAD64FF5 EQ PUSH2 0x554 JUMPI DUP1 PUSH4 0xE45BF199 EQ PUSH2 0x55E JUMPI DUP1 PUSH4 0xF26F629C EQ PUSH2 0x59B JUMPI DUP1 PUSH4 0xF9931855 EQ PUSH2 0x5C6 JUMPI PUSH2 0x181 JUMP JUMPDEST DUP1 PUSH4 0xBED9D861 EQ PUSH2 0x4E9 JUMPI DUP1 PUSH4 0xC49BAEBE EQ PUSH2 0x500 JUMPI DUP1 PUSH4 0xD547741F EQ PUSH2 0x52B JUMPI PUSH2 0x181 JUMP JUMPDEST DUP1 PUSH4 0x82A71EF2 EQ PUSH2 0x3E9 JUMPI DUP1 PUSH4 0x8456CB59 EQ PUSH2 0x414 JUMPI DUP1 PUSH4 0x91D14854 EQ PUSH2 0x42B JUMPI DUP1 PUSH4 0xA217FDDF EQ PUSH2 0x468 JUMPI DUP1 PUSH4 0xA2FD6917 EQ PUSH2 0x493 JUMPI DUP1 PUSH4 0xBE62DA0E EQ PUSH2 0x4BE JUMPI PUSH2 0x181 JUMP JUMPDEST DUP1 PUSH4 0x2F2FF15D GT PUSH2 0x13E JUMPI DUP1 PUSH4 0x3FF7FC11 GT PUSH2 0x118 JUMPI DUP1 PUSH4 0x3FF7FC11 EQ PUSH2 0x34E JUMPI DUP1 PUSH4 0x57021469 EQ PUSH2 0x38B JUMPI DUP1 PUSH4 0x5C975ABB EQ PUSH2 0x3B4 JUMPI DUP1 PUSH4 0x732B97FE EQ PUSH2 0x3DF JUMPI PUSH2 0x181 JUMP JUMPDEST DUP1 PUSH4 0x2F2FF15D EQ PUSH2 0x2E5 JUMPI DUP1 PUSH4 0x36568ABE EQ PUSH2 0x30E JUMPI DUP1 PUSH4 0x3F4BA83A EQ PUSH2 0x337 JUMPI PUSH2 0x181 JUMP JUMPDEST DUP1 PUSH4 0x1FFC9A7 EQ PUSH2 0x186 JUMPI DUP1 PUSH4 0x107046BD EQ PUSH2 0x1C3 JUMPI DUP1 PUSH4 0x1410B909 EQ PUSH2 0x203 JUMPI DUP1 PUSH4 0x1B9A3E70 EQ PUSH2 0x240 JUMPI DUP1 PUSH4 0x248A9CA3 EQ PUSH2 0x26B JUMPI DUP1 PUSH4 0x28AC4637 EQ PUSH2 0x2A8 JUMPI JUMPDEST PUSH1 0x0 DUP1 REVERT JUMPDEST CALLVALUE DUP1 ISZERO PUSH2 0x192 JUMPI PUSH1 0x0 DUP1 REVERT JUMPDEST POP PUSH2 0x1AD PUSH1 0x4 DUP1 CALLDATASIZE SUB DUP2 ADD SWAP1 PUSH2 0x1A8 SWAP2 SWAP1 PUSH2 0x1CC6 JUMP JUMPDEST PUSH2 0x603 JUMP JUMPDEST PUSH1 0x40 MLOAD PUSH2 0x1BA SWAP2 SWAP1 PUSH2 0x1D0E JUMP JUMPDEST PUSH1 0x40 MLOAD DUP1 SWAP2 SUB SWAP1 RETURN JUMPDEST CALLVALUE DUP1 ISZERO PUSH2 0x1CF JUMPI PUSH1 0x0 DUP1 REVERT JUMPDEST POP PUSH2 0x1EA PUSH1 0x4 DUP1 CALLDATASIZE SUB DUP2 ADD SWAP1 PUSH2 0x1E5 SWAP2 SWAP1 PUSH2 0x1D5F JUMP JUMPDEST PUSH2 0x615 JUMP JUMPDEST PUSH1 0x40 MLOAD PUSH2 0x1FA SWAP5 SWAP4 SWAP3 SWAP2 SWAP1 PUSH2 0x1DDC JUMP JUMPDEST PUSH1 0x40 MLOAD DUP1 SWAP2 SUB SWAP1 RETURN JUMPDEST CALLVALUE DUP1 ISZERO PUSH2 0x20F JUMPI PUSH1 0x0 DUP1 REVERT JUMPDEST POP PUSH2 0x22A PUSH1 0x4 DUP1 CALLDATASIZE SUB DUP2 ADD SWAP1 PUSH2 0x225 SWAP2 SWAP1 PUSH2 0x1F67 JUMP JUMPDEST PUSH2 0x67F JUMP JUMPDEST PUSH1 0x40 MLOAD PUSH2 0x237 SWAP2 SWAP1 PUSH2 0x1FC3 JUMP JUMPDEST PUSH1 0x40 MLOAD DUP1 SWAP2 SUB SWAP1 RETURN JUMPDEST CALLVALUE DUP1 ISZERO PUSH2 0x24C JUMPI PUSH1 0x0 DUP1 REVERT JUMPDEST POP PUSH2 0x255 PUSH2 0x893 JUMP JUMPDEST PUSH1 0x40 MLOAD PUSH2 0x262 SWAP2 SWAP1 PUSH2 0x1FC3 JUMP JUMPDEST PUSH1 0x40 MLOAD DUP1 SWAP2 SUB SWAP1 RETURN JUMPDEST CALLVALUE DUP1 ISZERO PUSH2 0x277 JUMPI PUSH1 0x0 DUP1 REVERT JUMPDEST POP PUSH2 0x292 PUSH1 0x4 DUP1 CALLDATASIZE SUB DUP2 ADD SWAP1 PUSH2 0x28D SWAP2 SWAP1 PUSH2 0x2014 JUMP JUMPDEST PUSH2 0x8A0 JUMP JUMPDEST PUSH1 0x40 MLOAD PUSH2 0x29F SWAP2 SWAP1 PUSH2 0x2050 JUMP JUMPDEST PUSH1 0x40 MLOAD DUP1 SWAP2 SUB SWAP1 RETURN JUMPDEST CALLVALUE DUP1 ISZERO PUSH2 0x2B4 JUMPI PUSH1 0x0 DUP1 REVERT JUMPDEST POP PUSH2 0x2CF PUSH1 0x4 DUP1 CALLDATASIZE SUB DUP2 ADD SWAP1 PUSH2 0x2CA SWAP2 SWAP1 PUSH2 0x2097 JUMP JUMPDEST PUSH2 0x8BF JUMP JUMPDEST PUSH1 0x40 MLOAD PUSH2 0x2DC SWAP2 SWAP1 PUSH2 0x1D0E JUMP JUMPDEST PUSH1 0x40 MLOAD DUP1 SWAP2 SUB SWAP1 RETURN JUMPDEST CALLVALUE DUP1 ISZERO PUSH2 0x2F1 JUMPI PUSH1 0x0 DUP1 REVERT JUMPDEST POP PUSH2 0x30C PUSH1 0x4 DUP1 CALLDATASIZE SUB DUP2 ADD SWAP1 PUSH2 0x307 SWAP2 SWAP1 PUSH2 0x20C4 JUMP JUMPDEST PUSH2 0x8C6 JUMP JUMPDEST STOP JUMPDEST CALLVALUE DUP1 ISZERO PUSH2 0x31A JUMPI PUSH1 0x0 DUP1 REVERT JUMPDEST POP PUSH2 0x335 PUSH1 0x4 DUP1 CALLDATASIZE SUB DUP2 ADD SWAP1 PUSH2 0x330 SWAP2 SWAP1 PUSH2 0x20C4 JUMP JUMPDEST PUSH2 0x8E7 JUMP JUMPDEST STOP JUMPDEST CALLVALUE DUP1 ISZERO PUSH2 0x343 JUMPI PUSH1 0x0 DUP1 REVERT JUMPDEST POP PUSH2 0x34C PUSH2 0x96A JUMP JUMPDEST STOP JUMPDEST CALLVALUE DUP1 ISZERO PUSH2 0x35A JUMPI PUSH1 0x0 DUP1 REVERT JUMPDEST POP PUSH2 0x375 PUSH1 0x4 DUP1 CALLDATASIZE SUB DUP2 ADD SWAP1 PUSH2 0x370 SWAP2 SWAP1 PUSH2 0x2097 JUMP JUMPDEST PUSH2 0x982 JUMP JUMPDEST PUSH1 0x40 MLOAD PUSH2 0x382 SWAP2 SWAP1 PUSH2 0x1D0E JUMP JUMPDEST PUSH1 0x40 MLOAD DUP1 SWAP2 SUB SWAP1 RETURN JUMPDEST CALLVALUE DUP1 ISZERO PUSH2 0x397 JUMPI PUSH1 0x0 DUP1 REVERT JUMPDEST POP PUSH2 0x3B2 PUSH1 0x4 DUP1 CALLDATASIZE SUB DUP2 ADD SWAP1 PUSH2 0x3AD SWAP2 SWAP1 PUSH2 0x1D5F JUMP JUMPDEST PUSH2 0x989 JUMP JUMPDEST STOP JUMPDEST CALLVALUE DUP1 ISZERO PUSH2 0x3C0 JUMPI PUSH1 0x0 DUP1 REVERT JUMPDEST POP PUSH2 0x3C9 PUSH2 0xD55 JUMP JUMPDEST PUSH1 0x40 MLOAD PUSH2 0x3D6 SWAP2 SWAP1 PUSH2 0x1D0E JUMP JUMPDEST PUSH1 0x40 MLOAD DUP1 SWAP2 SUB SWAP1 RETURN JUMPDEST PUSH2 0x3E7 PUSH2 0xD6C JUMP JUMPDEST STOP JUMPDEST CALLVALUE DUP1 ISZERO PUSH2 0x3F5 JUMPI PUSH1 0x0 DUP1 REVERT JUMPDEST POP PUSH2 0x3FE PUSH2 0xEE6 JUMP JUMPDEST PUSH1 0x40 MLOAD PUSH2 0x40B SWAP2 SWAP1 PUSH2 0x2163 JUMP JUMPDEST PUSH1 0x40 MLOAD DUP1 SWAP2 SUB SWAP1 RETURN JUMPDEST CALLVALUE DUP1 ISZERO PUSH2 0x420 JUMPI PUSH1 0x0 DUP1 REVERT JUMPDEST POP PUSH2 0x429 PUSH2 0xF0C JUMP JUMPDEST STOP JUMPDEST CALLVALUE DUP1 ISZERO PUSH2 0x437 JUMPI PUSH1 0x0 DUP1 REVERT JUMPDEST POP PUSH2 0x452 PUSH1 0x4 DUP1 CALLDATASIZE SUB DUP2 ADD SWAP1 PUSH2 0x44D SWAP2 SWAP1 PUSH2 0x20C4 JUMP JUMPDEST PUSH2 0xF24 JUMP JUMPDEST PUSH1 0x40 MLOAD PUSH2 0x45F SWAP2 SWAP1 PUSH2 0x1D0E JUMP JUMPDEST PUSH1 0x40 MLOAD DUP1 SWAP2 SUB SWAP1 RETURN JUMPDEST CALLVALUE DUP1 ISZERO PUSH2 0x474 JUMPI PUSH1 0x0 DUP1 REVERT JUMPDEST POP PUSH2 0x47D PUSH2 0xF8E JUMP JUMPDEST PUSH1 0x40 MLOAD PUSH2 0x48A SWAP2 SWAP1 PUSH2 0x2050 JUMP JUMPDEST PUSH1 0x40 MLOAD DUP1 SWAP2 SUB SWAP1 RETURN JUMPDEST CALLVALUE DUP1 ISZERO PUSH2 0x49F JUMPI PUSH1 0x0 DUP1 REVERT JUMPDEST POP PUSH2 0x4A8 PUSH2 0xF95 JUMP JUMPDEST PUSH1 0x40 MLOAD PUSH2 0x4B5 SWAP2 SWAP1 PUSH2 0x219F JUMP JUMPDEST PUSH1 0x40 MLOAD DUP1 SWAP2 SUB SWAP1 RETURN JUMPDEST CALLVALUE DUP1 ISZERO PUSH2 0x4CA JUMPI PUSH1 0x0 DUP1 REVERT JUMPDEST POP PUSH2 0x4D3 PUSH2 0xFB9 JUMP JUMPDEST PUSH1 0x40 MLOAD PUSH2 0x4E0 SWAP2 SWAP1 PUSH2 0x2050 JUMP JUMPDEST PUSH1 0x40 MLOAD DUP1 SWAP2 SUB SWAP1 RETURN JUMPDEST CALLVALUE DUP1 ISZERO PUSH2 0x4F5 JUMPI PUSH1 0x0 DUP1 REVERT JUMPDEST POP PUSH2 0x4FE PUSH2 0xFDD JUMP JUMPDEST STOP JUMPDEST CALLVALUE DUP1 ISZERO PUSH2 0x50C JUMPI PUSH1 0x0 DUP1 REVERT JUMPDEST POP PUSH2 0x515 PUSH2 0x132E JUMP JUMPDEST PUSH1 0x40 MLOAD PUSH2 0x522 SWAP2 SWAP1 PUSH2 0x2050 JUMP JUMPDEST PUSH1 0x40 MLOAD DUP1 SWAP2 SUB SWAP1 RETURN JUMPDEST CALLVALUE DUP1 ISZERO PUSH2 0x537 JUMPI PUSH1 0x0 DUP1 REVERT JUMPDEST POP PUSH2 0x552 PUSH1 0x4 DUP1 CALLDATASIZE SUB DUP2 ADD SWAP1 PUSH2 0x54D SWAP2 SWAP1 PUSH2 0x20C4 JUMP JUMPDEST PUSH2 0x1352 JUMP JUMPDEST STOP JUMPDEST PUSH2 0x55C PUSH2 0x1373 JUMP JUMPDEST STOP JUMPDEST CALLVALUE DUP1 ISZERO PUSH2 0x56A JUMPI PUSH1 0x0 DUP1 REVERT JUMPDEST POP PUSH2 0x585 PUSH1 0x4 DUP1 CALLDATASIZE SUB DUP2 ADD SWAP1 PUSH2 0x580 SWAP2 SWAP1 PUSH2 0x1D5F JUMP JUMPDEST PUSH2 0x14EE JUMP JUMPDEST PUSH1 0x40 MLOAD PUSH2 0x592 SWAP2 SWAP1 PUSH2 0x21BA JUMP JUMPDEST PUSH1 0x40 MLOAD DUP1 SWAP2 SUB SWAP1 RETURN JUMPDEST CALLVALUE DUP1 ISZERO PUSH2 0x5A7 JUMPI PUSH1 0x0 DUP1 REVERT JUMPDEST POP PUSH2 0x5B0 PUSH2 0x1521 JUMP JUMPDEST PUSH1 0x40 MLOAD PUSH2 0x5BD SWAP2 SWAP1 PUSH2 0x1FC3 JUMP JUMPDEST PUSH1 0x40 MLOAD DUP1 SWAP2 SUB SWAP1 RETURN JUMPDEST CALLVALUE DUP1 ISZERO PUSH2 0x5D2 JUMPI PUSH1 0x0 DUP1 REVERT JUMPDEST POP PUSH2 0x5ED PUSH1 0x4 DUP1 CALLDATASIZE SUB DUP2 ADD SWAP1 PUSH2 0x5E8 SWAP2 SWAP1 PUSH2 0x2097 JUMP JUMPDEST PUSH2 0x152D JUMP JUMPDEST PUSH1 0x40 MLOAD PUSH2 0x5FA SWAP2 SWAP1 PUSH2 0x1FC3 JUMP JUMPDEST PUSH1 0x40 MLOAD DUP1 SWAP2 SUB SWAP1 RETURN JUMPDEST PUSH1 0x0 PUSH2 0x60E DUP3 PUSH2 0x1545 JUMP JUMPDEST SWAP1 POP SWAP2 SWAP1 POP JUMP JUMPDEST PUSH1 0x5 PUSH1 0x20 MSTORE DUP1 PUSH1 0x0 MSTORE PUSH1 0x40 PUSH1 0x0 KECCAK256 PUSH1 0x0 SWAP2 POP SWAP1 POP DUP1 PUSH1 0x0 ADD PUSH1 0x0 SWAP1 SLOAD SWAP1 PUSH2 0x100 EXP SWAP1 DIV PUSH20 0xFFFFFFFFFFFFFFFFFFFFFFFFFFFFFFFFFFFFFFFF AND SWAP1 DUP1 PUSH1 0x1 ADD SLOAD SWAP1 DUP1 PUSH1 0x2 ADD PUSH1 0x0 SWAP1 SLOAD SWAP1 PUSH2 0x100 EXP SWAP1 DIV PUSH1 0xFF AND SWAP1 DUP1 PUSH1 0x2 ADD PUSH1 0x1 SWAP1 SLOAD SWAP1 PUSH2 0x100 EXP SWAP1 DIV PUSH1 0xFF AND SWAP1 POP DUP5 JUMP JUMPDEST PUSH1 0x0 PUSH2 0x689 PUSH2 0x15BF JUMP JUMPDEST PUSH32 0x770FADB28E0E3026382976EE8B810CB0EB8666922148DD9E10B20CFB9B477BA8 PUSH2 0x6B3 DUP2 PUSH2 0x1609 JUMP JUMPDEST PUSH1 0x0 PUSH1 0x1 DUP1 SLOAD SWAP1 PUSH2 0x100 EXP SWAP1 DIV PUSH20 0xFFFFFFFFFFFFFFFFFFFFFFFFFFFFFFFFFFFFFFFF AND PUSH20 0xFFFFFFFFFFFFFFFFFFFFFFFFFFFFFFFFFFFFFFFF AND PUSH4 0xDCBB9355 CALLER DUP8 PUSH1 0x40 MLOAD DUP4 PUSH4 0xFFFFFFFF AND PUSH1 0xE0 SHL DUP2 MSTORE PUSH1 0x4 ADD PUSH2 0x710 SWAP3 SWAP2 SWAP1 PUSH2 0x2254 JUMP JUMPDEST PUSH1 0x20 PUSH1 0x40 MLOAD DUP1 DUP4 SUB DUP2 PUSH1 0x0 DUP8 GAS CALL ISZERO DUP1 ISZERO PUSH2 0x72F JUMPI RETURNDATASIZE PUSH1 0x0 DUP1 RETURNDATACOPY RETURNDATASIZE PUSH1 0x0 REVERT JUMPDEST POP POP POP POP PUSH1 0x40 MLOAD RETURNDATASIZE PUSH1 0x1F NOT PUSH1 0x1F DUP3 ADD AND DUP3 ADD DUP1 PUSH1 0x40 MSTORE POP DUP2 ADD SWAP1 PUSH2 0x753 SWAP2 SWAP1 PUSH2 0x2299 JUMP JUMPDEST SWAP1 POP PUSH1 0x40 MLOAD DUP1 PUSH1 0x80 ADD PUSH1 0x40 MSTORE DUP1 CALLER PUSH20 0xFFFFFFFFFFFFFFFFFFFFFFFFFFFFFFFFFFFFFFFF AND DUP2 MSTORE PUSH1 0x20 ADD DUP6 DUP2 MSTORE PUSH1 0x20 ADD PUSH1 0x1 ISZERO ISZERO DUP2 MSTORE PUSH1 0x20 ADD PUSH1 0x0 ISZERO ISZERO DUP2 MSTORE POP PUSH1 0x5 PUSH1 0x0 DUP4 DUP2 MSTORE PUSH1 0x20 ADD SWAP1 DUP2 MSTORE PUSH1 0x20 ADD PUSH1 0x0 KECCAK256 PUSH1 0x0 DUP3 ADD MLOAD DUP2 PUSH1 0x0 ADD PUSH1 0x0 PUSH2 0x100 EXP DUP2 SLOAD DUP2 PUSH20 0xFFFFFFFFFFFFFFFFFFFFFFFFFFFFFFFFFFFFFFFF MUL NOT AND SWAP1 DUP4 PUSH20 0xFFFFFFFFFFFFFFFFFFFFFFFFFFFFFFFFFFFFFFFF AND MUL OR SWAP1 SSTORE POP PUSH1 0x20 DUP3 ADD MLOAD DUP2 PUSH1 0x1 ADD SSTORE PUSH1 0x40 DUP3 ADD MLOAD DUP2 PUSH1 0x2 ADD PUSH1 0x0 PUSH2 0x100 EXP DUP2 SLOAD DUP2 PUSH1 0xFF MUL NOT AND SWAP1 DUP4 ISZERO ISZERO MUL OR SWAP1 SSTORE POP PUSH1 0x60 DUP3 ADD MLOAD DUP2 PUSH1 0x2 ADD PUSH1 0x1 PUSH2 0x100 EXP DUP2 SLOAD DUP2 PUSH1 0xFF MUL NOT AND SWAP1 DUP4 ISZERO ISZERO MUL OR SWAP1 SSTORE POP SWAP1 POP POP CALLER PUSH20 0xFFFFFFFFFFFFFFFFFFFFFFFFFFFFFFFFFFFFFFFF AND DUP2 PUSH32 0x1FB4423AED62BBA3E66F7C81A4AF273642C7E8C57D7B111AE2B1ACA9887869BA DUP8 PUSH1 0x40 MLOAD PUSH2 0x880 SWAP2 SWAP1 PUSH2 0x22C6 JUMP JUMPDEST PUSH1 0x40 MLOAD DUP1 SWAP2 SUB SWAP1 LOG3 DUP1 SWAP3 POP POP POP SWAP3 SWAP2 POP POP JUMP JUMPDEST PUSH9 0x2B5E3AF16B1880000 DUP2 JUMP JUMPDEST PUSH1 0x0 DUP1 PUSH1 0x0 DUP4 DUP2 MSTORE PUSH1 0x20 ADD SWAP1 DUP2 MSTORE PUSH1 0x20 ADD PUSH1 0x0 KECCAK256 PUSH1 0x1 ADD SLOAD SWAP1 POP SWAP2 SWAP1 POP JUMP JUMPDEST PUSH1 0x0 SWAP2 SWAP1 POP JUMP JUMPDEST PUSH2 0x8CF DUP3 PUSH2 0x8A0 JUMP JUMPDEST PUSH2 0x8D8 DUP2 PUSH2 0x1609 JUMP JUMPDEST PUSH2 0x8E2 DUP4 DUP4 PUSH2 0x161D JUMP JUMPDEST POP POP POP JUMP JUMPDEST PUSH2 0x8EF PUSH2 0x16FD JUMP JUMPDEST PUSH20 0xFFFFFFFFFFFFFFFFFFFFFFFFFFFFFFFFFFFFFFFF AND DUP2 PUSH20 0xFFFFFFFFFFFFFFFFFFFFFFFFFFFFFFFFFFFFFFFF AND EQ PUSH2 0x95C JUMPI PUSH1 0x40 MLOAD PUSH32 0x8C379A000000000000000000000000000000000000000000000000000000000 DUP2 MSTORE PUSH1 0x4 ADD PUSH2 0x953 SWAP1 PUSH2 0x235A JUMP JUMPDEST PUSH1 0x40 MLOAD DUP1 SWAP2 SUB SWAP1 REVERT JUMPDEST PUSH2 0x966 DUP3 DUP3 PUSH2 0x1705 JUMP JUMPDEST POP POP JUMP JUMPDEST PUSH1 0x0 DUP1 SHL PUSH2 0x977 DUP2 PUSH2 0x1609 JUMP JUMPDEST PUSH2 0x97F PUSH2 0x17E6 JUMP JUMPDEST POP JUMP JUMPDEST PUSH1 0x0 SWAP2 SWAP1 POP JUMP JUMPDEST PUSH2 0x991 PUSH2 0x15BF JUMP JUMPDEST PUSH32 0x21702C8AF46127C7FA207F89D0B0A8441BB32959A0AC7DF790E9AB1A25C98926 PUSH2 0x9BB DUP2 PUSH2 0x1609 JUMP JUMPDEST PUSH1 0x5 PUSH1 0x0 DUP4 DUP2 MSTORE PUSH1 0x20 ADD SWAP1 DUP2 MSTORE PUSH1 0x20 ADD PUSH1 0x0 KECCAK256 PUSH1 0x2 ADD PUSH1 0x0 SWAP1 SLOAD SWAP1 PUSH2 0x100 EXP SWAP1 DIV PUSH1 0xFF AND PUSH2 0xA1E JUMPI PUSH1 0x40 MLOAD PUSH32 0x8C379A000000000000000000000000000000000000000000000000000000000 DUP2 MSTORE PUSH1 0x4 ADD PUSH2 0xA15 SWAP1 PUSH2 0x23C6 JUMP JUMPDEST PUSH1 0x40 MLOAD DUP1 SWAP2 SUB SWAP1 REVERT JUMPDEST PUSH1 0x5 PUSH1 0x0 DUP4 DUP2 MSTORE PUSH1 0x20 ADD SWAP1 DUP2 MSTORE PUSH1 0x20 ADD PUSH1 0x0 KECCAK256 PUSH1 0x2 ADD PUSH1 0x1 SWAP1 SLOAD SWAP1 PUSH2 0x100 EXP SWAP1 DIV PUSH1 0xFF AND ISZERO PUSH2 0xA82 JUMPI PUSH1 0x40 MLOAD PUSH32 0x8C379A000000000000000000000000000000000000000000000000000000000 DUP2 MSTORE PUSH1 0x4 ADD PUSH2 0xA79 SWAP1 PUSH2 0x2432 JUMP JUMPDEST PUSH1 0x40 MLOAD DUP1 SWAP2 SUB SWAP1 REVERT JUMPDEST PUSH1 0x0 PUSH20 0xFFFFFFFFFFFFFFFFFFFFFFFFFFFFFFFFFFFFFFFF AND PUSH1 0x4 PUSH1 0x0 DUP5 DUP2 MSTORE PUSH1 0x20 ADD SWAP1 DUP2 MSTORE PUSH1 0x20 ADD PUSH1 0x0 KECCAK256 PUSH1 0x0 SWAP1 SLOAD SWAP1 PUSH2 0x100 EXP SWAP1 DIV PUSH20 0xFFFFFFFFFFFFFFFFFFFFFFFFFFFFFFFFFFFFFFFF AND PUSH20 0xFFFFFFFFFFFFFFFFFFFFFFFFFFFFFFFFFFFFFFFF AND EQ PUSH2 0xB24 JUMPI PUSH1 0x40 MLOAD PUSH32 0x8C379A000000000000000000000000000000000000000000000000000000000 DUP2 MSTORE PUSH1 0x4 ADD PUSH2 0xB1B SWAP1 PUSH2 0x249E JUMP JUMPDEST PUSH1 0x40 MLOAD DUP1 SWAP2 SUB SWAP1 REVERT JUMPDEST CALLER PUSH1 0x4 PUSH1 0x0 DUP5 DUP2 MSTORE PUSH1 0x20 ADD SWAP1 DUP2 MSTORE PUSH1 0x20 ADD PUSH1 0x0 KECCAK256 PUSH1 0x0 PUSH2 0x100 EXP DUP2 SLOAD DUP2 PUSH20 0xFFFFFFFFFFFFFFFFFFFFFFFFFFFFFFFFFFFFFFFF MUL NOT AND SWAP1 DUP4 PUSH20 0xFFFFFFFFFFFFFFFFFFFFFFFFFFFFFFFFFFFFFFFF AND MUL OR SWAP1 SSTORE POP PUSH1 0x1 PUSH1 0x5 PUSH1 0x0 DUP5 DUP2 MSTORE PUSH1 0x20 ADD SWAP1 DUP2 MSTORE PUSH1 0x20 ADD PUSH1 0x0 KECCAK256 PUSH1 0x2 ADD PUSH1 0x1 PUSH2 0x100 EXP DUP2 SLOAD DUP2 PUSH1 0xFF MUL NOT AND SWAP1 DUP4 ISZERO ISZERO MUL OR SWAP1 SSTORE POP PUSH1 0x1 DUP1 SLOAD SWAP1 PUSH2 0x100 EXP SWAP1 DIV PUSH20 0xFFFFFFFFFFFFFFFFFFFFFFFFFFFFFFFFFFFFFFFF AND PUSH20 0xFFFFFFFFFFFFFFFFFFFFFFFFFFFFFFFFFFFFFFFF AND PUSH4 0xE73A50F0 DUP4 PUSH1 0x40 MLOAD DUP3 PUSH4 0xFFFFFFFF AND PUSH1 0xE0 SHL DUP2 MSTORE PUSH1 0x4 ADD PUSH2 0xBFE SWAP2 SWAP1 PUSH2 0x1FC3 JUMP JUMPDEST PUSH1 0x0 PUSH1 0x40 MLOAD DUP1 DUP4 SUB DUP2 PUSH1 0x0 DUP8 DUP1 EXTCODESIZE ISZERO DUP1 ISZERO PUSH2 0xC18 JUMPI PUSH1 0x0 DUP1 REVERT JUMPDEST POP GAS CALL ISZERO DUP1 ISZERO PUSH2 0xC2C JUMPI RETURNDATASIZE PUSH1 0x0 DUP1 RETURNDATACOPY RETURNDATASIZE PUSH1 0x0 REVERT JUMPDEST POP POP POP POP PUSH1 0x2 PUSH1 0x0 SWAP1 SLOAD SWAP1 PUSH2 0x100 EXP SWAP1 DIV PUSH20 0xFFFFFFFFFFFFFFFFFFFFFFFFFFFFFFFFFFFFFFFF AND PUSH20 0xFFFFFFFFFFFFFFFFFFFFFFFFFFFFFFFFFFFFFFFF AND PUSH4 0xD9C53C84 DUP4 PUSH1 0x5 PUSH1 0x0 DUP7 DUP2 MSTORE PUSH1 0x20 ADD SWAP1 DUP2 MSTORE PUSH1 0x20 ADD PUSH1 0x0 KECCAK256 PUSH1 0x0 ADD PUSH1 0x0 SWAP1 SLOAD SWAP1 PUSH2 0x100 EXP SWAP1 DIV PUSH20 0xFFFFFFFFFFFFFFFFFFFFFFFFFFFFFFFFFFFFFFFF AND PUSH1 0x5 PUSH1 0x0 DUP8 DUP2 MSTORE PUSH1 0x20 ADD SWAP1 DUP2 MSTORE PUSH1 0x20 ADD PUSH1 0x0 KECCAK256 PUSH1 0x1 ADD SLOAD PUSH1 0x40 MLOAD DUP5 PUSH4 0xFFFFFFFF AND PUSH1 0xE0 SHL DUP2 MSTORE PUSH1 0x4 ADD PUSH2 0xCDB SWAP4 SWAP3 SWAP2 SWAP1 PUSH2 0x24BE JUMP JUMPDEST PUSH1 0x0 PUSH1 0x40 MLOAD DUP1 DUP4 SUB DUP2 PUSH1 0x0 DUP8 DUP1 EXTCODESIZE ISZERO DUP1 ISZERO PUSH2 0xCF5 JUMPI PUSH1 0x0 DUP1 REVERT JUMPDEST POP GAS CALL ISZERO DUP1 ISZERO PUSH2 0xD09 JUMPI RETURNDATASIZE PUSH1 0x0 DUP1 RETURNDATACOPY RETURNDATASIZE PUSH1 0x0 REVERT JUMPDEST POP POP POP POP CALLER PUSH20 0xFFFFFFFFFFFFFFFFFFFFFFFFFFFFFFFFFFFFFFFF AND DUP3 PUSH32 0x84FFC84DB0A14DC30A09C96C2DC65081AB5A1F28B1EC2543EC701B04AD161A9D PUSH1 0x40 MLOAD PUSH1 0x40 MLOAD DUP1 SWAP2 SUB SWAP1 LOG3 POP POP JUMP JUMPDEST PUSH1 0x0 PUSH1 0x1 PUSH1 0x0 SWAP1 SLOAD SWAP1 PUSH2 0x100 EXP SWAP1 DIV PUSH1 0xFF AND SWAP1 POP SWAP1 JUMP JUMPDEST PUSH2 0xD74 PUSH2 0x15BF JUMP JUMPDEST PUSH8 0x8AC7230489E80000 CALLVALUE EQ PUSH2 0xDBE JUMPI PUSH1 0x40 MLOAD PUSH32 0x8C379A000000000000000000000000000000000000000000000000000000000 DUP2 MSTORE PUSH1 0x4 ADD PUSH2 0xDB5 SWAP1 PUSH2 0x2541 JUMP JUMPDEST PUSH1 0x40 MLOAD DUP1 SWAP2 SUB SWAP1 REVERT JUMPDEST PUSH2 0xDE8 PUSH32 0x770FADB28E0E3026382976EE8B810CB0EB8666922148DD9E10B20CFB9B477BA8 CALLER PUSH2 0xF24 JUMP JUMPDEST ISZERO PUSH2 0xE28 JUMPI PUSH1 0x40 MLOAD PUSH32 0x8C379A000000000000000000000000000000000000000000000000000000000 DUP2 MSTORE PUSH1 0x4 ADD PUSH2 0xE1F SWAP1 PUSH2 0x25AD JUMP JUMPDEST PUSH1 0x40 MLOAD DUP1 SWAP2 SUB SWAP1 REVERT JUMPDEST CALLVALUE PUSH1 0x3 PUSH1 0x0 CALLER PUSH20 0xFFFFFFFFFFFFFFFFFFFFFFFFFFFFFFFFFFFFFFFF AND PUSH20 0xFFFFFFFFFFFFFFFFFFFFFFFFFFFFFFFFFFFFFFFF AND DUP2 MSTORE PUSH1 0x20 ADD SWAP1 DUP2 MSTORE PUSH1 0x20 ADD PUSH1 0x0 KECCAK256 DUP2 SWAP1 SSTORE POP PUSH2 0xE96 PUSH32 0x770FADB28E0E3026382976EE8B810CB0EB8666922148DD9E10B20CFB9B477BA8 CALLER PUSH2 0x1849 JUMP JUMPDEST CALLER PUSH20 0xFFFFFFFFFFFFFFFFFFFFFFFFFFFFFFFFFFFFFFFF AND PUSH32 0x92BB0EA98F286B67ECB12D06ED9E477B1987927596D030006BABFA2C9EB057E CALLVALUE PUSH1 0x40 MLOAD PUSH2 0xEDC SWAP2 SWAP1 PUSH2 0x1FC3 JUMP JUMPDEST PUSH1 0x40 MLOAD DUP1 SWAP2 SUB SWAP1 LOG2 JUMP JUMPDEST PUSH1 0x2 PUSH1 0x0 SWAP1 SLOAD SWAP1 PUSH2 0x100 EXP SWAP1 DIV PUSH20 0xFFFFFFFFFFFFFFFFFFFFFFFFFFFFFFFFFFFFFFFF AND DUP2 JUMP JUMPDEST PUSH1 0x0 DUP1 SHL PUSH2 0xF19 DUP2 PUSH2 0x1609 JUMP JUMPDEST PUSH2 0xF21 PUSH2 0x1857 JUMP JUMPDEST POP JUMP JUMPDEST PUSH1 0x0 DUP1 PUSH1 0x0 DUP5 DUP2 MSTORE PUSH1 0x20 ADD SWAP1 DUP2 MSTORE PUSH1 0x20 ADD PUSH1 0x0 KECCAK256 PUSH1 0x0 ADD PUSH1 0x0 DUP4 PUSH20 0xFFFFFFFFFFFFFFFFFFFFFFFFFFFFFFFFFFFFFFFF AND PUSH20 0xFFFFFFFFFFFFFFFFFFFFFFFFFFFFFFFFFFFFFFFF AND DUP2 MSTORE PUSH1 0x20 ADD SWAP1 DUP2 MSTORE PUSH1 0x20 ADD PUSH1 0x0 KECCAK256 PUSH1 0x0 SWAP1 SLOAD SWAP1 PUSH2 0x100 EXP SWAP1 DIV PUSH1 0xFF AND SWAP1 POP SWAP3 SWAP2 POP POP JUMP JUMPDEST PUSH1 0x0 DUP1 SHL DUP2 JUMP JUMPDEST PUSH1 0x1 DUP1 SLOAD SWAP1 PUSH2 0x100 EXP SWAP1 DIV PUSH20 0xFFFFFFFFFFFFFFFFFFFFFFFFFFFFFFFFFFFFFFFF AND DUP2 JUMP JUMPDEST PUSH32 0x770FADB28E0E3026382976EE8B810CB0EB8666922148DD9E10B20CFB9B477BA8 DUP2 JUMP JUMPDEST PUSH2 0xFE5 PUSH2 0x15BF JUMP JUMPDEST PUSH1 0x0 PUSH1 0x3 PUSH1 0x0 CALLER PUSH20 0xFFFFFFFFFFFFFFFFFFFFFFFFFFFFFFFFFFFFFFFF AND PUSH20 0xFFFFFFFFFFFFFFFFFFFFFFFFFFFFFFFFFFFFFFFF AND DUP2 MSTORE PUSH1 0x20 ADD SWAP1 DUP2 MSTORE PUSH1 0x20 ADD PUSH1 0x0 KECCAK256 SLOAD GT PUSH2 0x1067 JUMPI PUSH1 0x40 MLOAD PUSH32 0x8C379A000000000000000000000000000000000000000000000000000000000 DUP2 MSTORE PUSH1 0x4 ADD PUSH2 0x105E SWAP1 PUSH2 0x2619 JUMP JUMPDEST PUSH1 0x40 MLOAD DUP1 SWAP2 SUB SWAP1 REVERT JUMPDEST PUSH2 0x1091 PUSH32 0x770FADB28E0E3026382976EE8B810CB0EB8666922148DD9E10B20CFB9B477BA8 CALLER PUSH2 0xF24 JUMP JUMPDEST ISZERO PUSH2 0x10E0 JUMPI PUSH2 0x109F CALLER PUSH2 0x982 JUMP JUMPDEST ISZERO PUSH2 0x10DF JUMPI PUSH1 0x40 MLOAD PUSH32 0x8C379A000000000000000000000000000000000000000000000000000000000 DUP2 MSTORE PUSH1 0x4 ADD PUSH2 0x10D6 SWAP1 PUSH2 0x2685 JUMP JUMPDEST PUSH1 0x40 MLOAD DUP1 SWAP2 SUB SWAP1 REVERT JUMPDEST JUMPDEST PUSH2 0x110A PUSH32 0x21702C8AF46127C7FA207F89D0B0A8441BB32959A0AC7DF790E9AB1A25C98926 CALLER PUSH2 0xF24 JUMP JUMPDEST ISZERO PUSH2 0x1159 JUMPI PUSH2 0x1118 CALLER PUSH2 0x8BF JUMP JUMPDEST ISZERO PUSH2 0x1158 JUMPI PUSH1 0x40 MLOAD PUSH32 0x8C379A000000000000000000000000000000000000000000000000000000000 DUP2 MSTORE PUSH1 0x4 ADD PUSH2 0x114F SWAP1 PUSH2 0x26F1 JUMP JUMPDEST PUSH1 0x40 MLOAD DUP1 SWAP2 SUB SWAP1 REVERT JUMPDEST JUMPDEST PUSH1 0x0 PUSH1 0x3 PUSH1 0x0 CALLER PUSH20 0xFFFFFFFFFFFFFFFFFFFFFFFFFFFFFFFFFFFFFFFF AND PUSH20 0xFFFFFFFFFFFFFFFFFFFFFFFFFFFFFFFFFFFFFFFF AND DUP2 MSTORE PUSH1 0x20 ADD SWAP1 DUP2 MSTORE PUSH1 0x20 ADD PUSH1 0x0 KECCAK256 SLOAD SWAP1 POP PUSH1 0x0 PUSH1 0x3 PUSH1 0x0 CALLER PUSH20 0xFFFFFFFFFFFFFFFFFFFFFFFFFFFFFFFFFFFFFFFF AND PUSH20 0xFFFFFFFFFFFFFFFFFFFFFFFFFFFFFFFFFFFFFFFF AND DUP2 MSTORE PUSH1 0x20 ADD SWAP1 DUP2 MSTORE PUSH1 0x20 ADD PUSH1 0x0 KECCAK256 DUP2 SWAP1 SSTORE POP PUSH2 0x120C PUSH32 0x21702C8AF46127C7FA207F89D0B0A8441BB32959A0AC7DF790E9AB1A25C98926 CALLER PUSH2 0xF24 JUMP JUMPDEST ISZERO PUSH2 0x123C JUMPI PUSH2 0x123B PUSH32 0x21702C8AF46127C7FA207F89D0B0A8441BB32959A0AC7DF790E9AB1A25C98926 CALLER PUSH2 0x1352 JUMP JUMPDEST JUMPDEST PUSH2 0x1266 PUSH32 0x770FADB28E0E3026382976EE8B810CB0EB8666922148DD9E10B20CFB9B477BA8 CALLER PUSH2 0xF24 JUMP JUMPDEST ISZERO PUSH2 0x1296 JUMPI PUSH2 0x1295 PUSH32 0x770FADB28E0E3026382976EE8B810CB0EB8666922148DD9E10B20CFB9B477BA8 CALLER PUSH2 0x1352 JUMP JUMPDEST JUMPDEST CALLER PUSH20 0xFFFFFFFFFFFFFFFFFFFFFFFFFFFFFFFFFFFFFFFF AND PUSH2 0x8FC DUP3 SWAP1 DUP2 ISZERO MUL SWAP1 PUSH1 0x40 MLOAD PUSH1 0x0 PUSH1 0x40 MLOAD DUP1 DUP4 SUB DUP2 DUP6 DUP9 DUP9 CALL SWAP4 POP POP POP POP ISZERO DUP1 ISZERO PUSH2 0x12DC JUMPI RETURNDATASIZE PUSH1 0x0 DUP1 RETURNDATACOPY RETURNDATASIZE PUSH1 0x0 REVERT JUMPDEST POP CALLER PUSH20 0xFFFFFFFFFFFFFFFFFFFFFFFFFFFFFFFFFFFFFFFF AND PUSH32 0x8108595EB6BAD3ACEFA9DA467D90CC2217686D5C5AC85460F8B7849C840645FC DUP3 PUSH1 0x40 MLOAD PUSH2 0x1323 SWAP2 SWAP1 PUSH2 0x1FC3 JUMP JUMPDEST PUSH1 0x40 MLOAD DUP1 SWAP2 SUB SWAP1 LOG2 POP JUMP JUMPDEST PUSH32 0x21702C8AF46127C7FA207F89D0B0A8441BB32959A0AC7DF790E9AB1A25C98926 DUP2 JUMP JUMPDEST PUSH2 0x135B DUP3 PUSH2 0x8A0 JUMP JUMPDEST PUSH2 0x1364 DUP2 PUSH2 0x1609 JUMP JUMPDEST PUSH2 0x136E DUP4 DUP4 PUSH2 0x1705 JUMP JUMPDEST POP POP POP JUMP JUMPDEST PUSH2 0x137B PUSH2 0x15BF JUMP JUMPDEST PUSH9 0x2B5E3AF16B1880000 CALLVALUE EQ PUSH2 0x13C6 JUMPI PUSH1 0x40 MLOAD PUSH32 0x8C379A000000000000000000000000000000000000000000000000000000000 DUP2 MSTORE PUSH1 0x4 ADD PUSH2 0x13BD SWAP1 PUSH2 0x2541 JUMP JUMPDEST PUSH1 0x40 MLOAD DUP1 SWAP2 SUB SWAP1 REVERT JUMPDEST PUSH2 0x13F0 PUSH32 0x21702C8AF46127C7FA207F89D0B0A8441BB32959A0AC7DF790E9AB1A25C98926 CALLER PUSH2 0xF24 JUMP JUMPDEST ISZERO PUSH2 0x1430 JUMPI PUSH1 0x40 MLOAD PUSH32 0x8C379A000000000000000000000000000000000000000000000000000000000 DUP2 MSTORE PUSH1 0x4 ADD PUSH2 0x1427 SWAP1 PUSH2 0x275D JUMP JUMPDEST PUSH1 0x40 MLOAD DUP1 SWAP2 SUB SWAP1 REVERT JUMPDEST CALLVALUE PUSH1 0x3 PUSH1 0x0 CALLER PUSH20 0xFFFFFFFFFFFFFFFFFFFFFFFFFFFFFFFFFFFFFFFF AND PUSH20 0xFFFFFFFFFFFFFFFFFFFFFFFFFFFFFFFFFFFFFFFF AND DUP2 MSTORE PUSH1 0x20 ADD SWAP1 DUP2 MSTORE PUSH1 0x20 ADD PUSH1 0x0 KECCAK256 DUP2 SWAP1 SSTORE POP PUSH2 0x149E PUSH32 0x21702C8AF46127C7FA207F89D0B0A8441BB32959A0AC7DF790E9AB1A25C98926 CALLER PUSH2 0x1849 JUMP JUMPDEST CALLER PUSH20 0xFFFFFFFFFFFFFFFFFFFFFFFFFFFFFFFFFFFFFFFF AND PUSH32 0xBDF8F4C0FEFF7F456C5C1FD1C42716BAA7EE66801A0B860872009AC945403FA0 CALLVALUE PUSH1 0x40 MLOAD PUSH2 0x14E4 SWAP2 SWAP1 PUSH2 0x1FC3 JUMP JUMPDEST PUSH1 0x40 MLOAD DUP1 SWAP2 SUB SWAP1 LOG2 JUMP JUMPDEST PUSH1 0x4 PUSH1 0x20 MSTORE DUP1 PUSH1 0x0 MSTORE PUSH1 0x40 PUSH1 0x0 KECCAK256 PUSH1 0x0 SWAP2 POP SLOAD SWAP1 PUSH2 0x100 EXP SWAP1 DIV PUSH20 0xFFFFFFFFFFFFFFFFFFFFFFFFFFFFFFFFFFFFFFFF AND DUP2 JUMP JUMPDEST PUSH8 0x8AC7230489E80000 DUP2 JUMP JUMPDEST PUSH1 0x3 PUSH1 0x20 MSTORE DUP1 PUSH1 0x0 MSTORE PUSH1 0x40 PUSH1 0x0 KECCAK256 PUSH1 0x0 SWAP2 POP SWAP1 POP SLOAD DUP2 JUMP JUMPDEST PUSH1 0x0 PUSH32 0x7965DB0B00000000000000000000000000000000000000000000000000000000 PUSH28 0xFFFFFFFFFFFFFFFFFFFFFFFFFFFFFFFFFFFFFFFFFFFFFFFFFFFFFFFF NOT AND DUP3 PUSH28 0xFFFFFFFFFFFFFFFFFFFFFFFFFFFFFFFFFFFFFFFFFFFFFFFFFFFFFFFF NOT AND EQ DUP1 PUSH2 0x15B8 JUMPI POP PUSH2 0x15B7 DUP3 PUSH2 0x18B9 JUMP JUMPDEST JUMPDEST SWAP1 POP SWAP2 SWAP1 POP JUMP JUMPDEST PUSH2 0x15C7 PUSH2 0xD55 JUMP JUMPDEST ISZERO PUSH2 0x1607 JUMPI PUSH1 0x40 MLOAD PUSH32 0x8C379A000000000000000000000000000000000000000000000000000000000 DUP2 MSTORE PUSH1 0x4 ADD PUSH2 0x15FE SWAP1 PUSH2 0x27C9 JUMP JUMPDEST PUSH1 0x40 MLOAD DUP1 SWAP2 SUB SWAP1 REVERT JUMPDEST JUMP JUMPDEST PUSH2 0x161A DUP2 PUSH2 0x1615 PUSH2 0x16FD JUMP JUMPDEST PUSH2 0x1923 JUMP JUMPDEST POP JUMP JUMPDEST PUSH2 0x1627 DUP3 DUP3 PUSH2 0xF24 JUMP JUMPDEST PUSH2 0x16F9 JUMPI PUSH1 0x1 PUSH1 0x0 DUP1 DUP5 DUP2 MSTORE PUSH1 0x20 ADD SWAP1 DUP2 MSTORE PUSH1 0x20 ADD PUSH1 0x0 KECCAK256 PUSH1 0x0 ADD PUSH1 0x0 DUP4 PUSH20 0xFFFFFFFFFFFFFFFFFFFFFFFFFFFFFFFFFFFFFFFF AND PUSH20 0xFFFFFFFFFFFFFFFFFFFFFFFFFFFFFFFFFFFFFFFF AND DUP2 MSTORE PUSH1 0x20 ADD SWAP1 DUP2 MSTORE PUSH1 0x20 ADD PUSH1 0x0 KECCAK256 PUSH1 0x0 PUSH2 0x100 EXP DUP2 SLOAD DUP2 PUSH1 0xFF MUL NOT AND SWAP1 DUP4 ISZERO ISZERO MUL OR SWAP1 SSTORE POP PUSH2 0x169E PUSH2 0x16FD JUMP JUMPDEST PUSH20 0xFFFFFFFFFFFFFFFFFFFFFFFFFFFFFFFFFFFFFFFF AND DUP2 PUSH20 0xFFFFFFFFFFFFFFFFFFFFFFFFFFFFFFFFFFFFFFFF AND DUP4 PUSH32 0x2F8788117E7EFF1D82E926EC794901D17C78024A50270940304540A733656F0D PUSH1 0x40 MLOAD PUSH1 0x40 MLOAD DUP1 SWAP2 SUB SWAP1 LOG4 JUMPDEST POP POP JUMP JUMPDEST PUSH1 0x0 CALLER SWAP1 POP SWAP1 JUMP JUMPDEST PUSH2 0x170F DUP3 DUP3 PUSH2 0xF24 JUMP JUMPDEST ISZERO PUSH2 0x17E2 JUMPI PUSH1 0x0 DUP1 PUSH1 0x0 DUP5 DUP2 MSTORE PUSH1 0x20 ADD SWAP1 DUP2 MSTORE PUSH1 0x20 ADD PUSH1 0x0 KECCAK256 PUSH1 0x0 ADD PUSH1 0x0 DUP4 PUSH20 0xFFFFFFFFFFFFFFFFFFFFFFFFFFFFFFFFFFFFFFFF AND PUSH20 0xFFFFFFFFFFFFFFFFFFFFFFFFFFFFFFFFFFFFFFFF AND DUP2 MSTORE PUSH1 0x20 ADD SWAP1 DUP2 MSTORE PUSH1 0x20 ADD PUSH1 0x0 KECCAK256 PUSH1 0x0 PUSH2 0x100 EXP DUP2 SLOAD DUP2 PUSH1 0xFF MUL NOT AND SWAP1 DUP4 ISZERO ISZERO MUL OR SWAP1 SSTORE POP PUSH2 0x1787 PUSH2 0x16FD JUMP JUMPDEST PUSH20 0xFFFFFFFFFFFFFFFFFFFFFFFFFFFFFFFFFFFFFFFF AND DUP2 PUSH20 0xFFFFFFFFFFFFFFFFFFFFFFFFFFFFFFFFFFFFFFFF AND DUP4 PUSH32 0xF6391F5C32D9C69D2A47EA670B442974B53935D1EDC7FD64EB21E047A839171B PUSH1 0x40 MLOAD PUSH1 0x40 MLOAD DUP1 SWAP2 SUB SWAP1 LOG4 JUMPDEST POP POP JUMP JUMPDEST PUSH2 0x17EE PUSH2 0x19A8 JUMP JUMPDEST PUSH1 0x0 PUSH1 0x1 PUSH1 0x0 PUSH2 0x100 EXP DUP2 SLOAD DUP2 PUSH1 0xFF MUL NOT AND SWAP1 DUP4 ISZERO ISZERO MUL OR SWAP1 SSTORE POP PUSH32 0x5DB9EE0A495BF2E6FF9C91A7834C1BA4FDD244A5E8AA4E537BD38AEAE4B073AA PUSH2 0x1832 PUSH2 0x16FD JUMP JUMPDEST PUSH1 0x40 MLOAD PUSH2 0x183F SWAP2 SWAP1 PUSH2 0x21BA JUMP JUMPDEST PUSH1 0x40 MLOAD DUP1 SWAP2 SUB SWAP1 LOG1 JUMP JUMPDEST PUSH2 0x1853 DUP3 DUP3 PUSH2 0x161D JUMP JUMPDEST POP POP JUMP JUMPDEST PUSH2 0x185F PUSH2 0x15BF JUMP JUMPDEST PUSH1 0x1 DUP1 PUSH1 0x0 PUSH2 0x100 EXP DUP2 SLOAD DUP2 PUSH1 0xFF MUL NOT AND SWAP1 DUP4 ISZERO ISZERO MUL OR SWAP1 SSTORE POP PUSH32 0x62E78CEA01BEE320CD4E420270B5EA74000D11B0C9F74754EBDBFC544B05A258 PUSH2 0x18A2 PUSH2 0x16FD JUMP JUMPDEST PUSH1 0x40 MLOAD PUSH2 0x18AF SWAP2 SWAP1 PUSH2 0x21BA JUMP JUMPDEST PUSH1 0x40 MLOAD DUP1 SWAP2 SUB SWAP1 LOG1 JUMP JUMPDEST PUSH1 0x0 PUSH32 0x1FFC9A700000000000000000000000000000000000000000000000000000000 PUSH28 0xFFFFFFFFFFFFFFFFFFFFFFFFFFFFFFFFFFFFFFFFFFFFFFFFFFFFFFFF NOT AND DUP3 PUSH28 0xFFFFFFFFFFFFFFFFFFFFFFFFFFFFFFFFFFFFFFFFFFFFFFFFFFFFFFFF NOT AND EQ SWAP1 POP SWAP2 SWAP1 POP JUMP JUMPDEST PUSH2 0x192D DUP3 DUP3 PUSH2 0xF24 JUMP JUMPDEST PUSH2 0x19A4 JUMPI PUSH2 0x193A DUP2 PUSH2 0x19F1 JUMP JUMPDEST PUSH2 0x1948 DUP4 PUSH1 0x0 SHR PUSH1 0x20 PUSH2 0x1A1E JUMP JUMPDEST PUSH1 0x40 MLOAD PUSH1 0x20 ADD PUSH2 0x1959 SWAP3 SWAP2 SWAP1 PUSH2 0x28BD JUMP JUMPDEST PUSH1 0x40 MLOAD PUSH1 0x20 DUP2 DUP4 SUB SUB DUP2 MSTORE SWAP1 PUSH1 0x40 MSTORE PUSH1 0x40 MLOAD PUSH32 0x8C379A000000000000000000000000000000000000000000000000000000000 DUP2 MSTORE PUSH1 0x4 ADD PUSH2 0x199B SWAP2 SWAP1 PUSH2 0x22C6 JUMP JUMPDEST PUSH1 0x40 MLOAD DUP1 SWAP2 SUB SWAP1 REVERT JUMPDEST POP POP JUMP JUMPDEST PUSH2 0x19B0 PUSH2 0xD55 JUMP JUMPDEST PUSH2 0x19EF JUMPI PUSH1 0x40 MLOAD PUSH32 0x8C379A000000000000000000000000000000000000000000000000000000000 DUP2 MSTORE PUSH1 0x4 ADD PUSH2 0x19E6 SWAP1 PUSH2 0x2943 JUMP JUMPDEST PUSH1 0x40 MLOAD DUP1 SWAP2 SUB SWAP1 REVERT JUMPDEST JUMP JUMPDEST PUSH1 0x60 PUSH2 0x1A17 DUP3 PUSH20 0xFFFFFFFFFFFFFFFFFFFFFFFFFFFFFFFFFFFFFFFF AND PUSH1 0x14 PUSH1 0xFF AND PUSH2 0x1A1E JUMP JUMPDEST SWAP1 POP SWAP2 SWAP1 POP JUMP JUMPDEST PUSH1 0x60 PUSH1 0x0 PUSH1 0x2 DUP4 PUSH1 0x2 PUSH2 0x1A31 SWAP2 SWAP1 PUSH2 0x2992 JUMP JUMPDEST PUSH2 0x1A3B SWAP2 SWAP1 PUSH2 0x29D4 JUMP JUMPDEST PUSH8 0xFFFFFFFFFFFFFFFF DUP2 GT ISZERO PUSH2 0x1A54 JUMPI PUSH2 0x1A53 PUSH2 0x1E3C JUMP JUMPDEST JUMPDEST PUSH1 0x40 MLOAD SWAP1 DUP1 DUP3 MSTORE DUP1 PUSH1 0x1F ADD PUSH1 0x1F NOT AND PUSH1 0x20 ADD DUP3 ADD PUSH1 0x40 MSTORE DUP1 ISZERO PUSH2 0x1A86 JUMPI DUP2 PUSH1 0x20 ADD PUSH1 0x1 DUP3 MUL DUP1 CALLDATASIZE DUP4 CALLDATACOPY DUP1 DUP3 ADD SWAP2 POP POP SWAP1 POP JUMPDEST POP SWAP1 POP PUSH32 0x3000000000000000000000000000000000000000000000000000000000000000 DUP2 PUSH1 0x0 DUP2 MLOAD DUP2 LT PUSH2 0x1ABE JUMPI PUSH2 0x1ABD PUSH2 0x2A08 JUMP JUMPDEST JUMPDEST PUSH1 0x20 ADD ADD SWAP1 PUSH31 0xFFFFFFFFFFFFFFFFFFFFFFFFFFFFFFFFFFFFFFFFFFFFFFFFFFFFFFFFFFFFFF NOT AND SWAP1 DUP2 PUSH1 0x0 BYTE SWAP1 MSTORE8 POP PUSH32 0x7800000000000000000000000000000000000000000000000000000000000000 DUP2 PUSH1 0x1 DUP2 MLOAD DUP2 LT PUSH2 0x1B22 JUMPI PUSH2 0x1B21 PUSH2 0x2A08 JUMP JUMPDEST JUMPDEST PUSH1 0x20 ADD ADD SWAP1 PUSH31 0xFFFFFFFFFFFFFFFFFFFFFFFFFFFFFFFFFFFFFFFFFFFFFFFFFFFFFFFFFFFFFF NOT AND SWAP1 DUP2 PUSH1 0x0 BYTE SWAP1 MSTORE8 POP PUSH1 0x0 PUSH1 0x1 DUP5 PUSH1 0x2 PUSH2 0x1B62 SWAP2 SWAP1 PUSH2 0x2992 JUMP JUMPDEST PUSH2 0x1B6C SWAP2 SWAP1 PUSH2 0x29D4 JUMP JUMPDEST SWAP1 POP JUMPDEST PUSH1 0x1 DUP2 GT ISZERO PUSH2 0x1C0C JUMPI PUSH32 0x3031323334353637383961626364656600000000000000000000000000000000 PUSH1 0xF DUP7 AND PUSH1 0x10 DUP2 LT PUSH2 0x1BAE JUMPI PUSH2 0x1BAD PUSH2 0x2A08 JUMP JUMPDEST JUMPDEST BYTE PUSH1 0xF8 SHL DUP3 DUP3 DUP2 MLOAD DUP2 LT PUSH2 0x1BC5 JUMPI PUSH2 0x1BC4 PUSH2 0x2A08 JUMP JUMPDEST JUMPDEST PUSH1 0x20 ADD ADD SWAP1 PUSH31 0xFFFFFFFFFFFFFFFFFFFFFFFFFFFFFFFFFFFFFFFFFFFFFFFFFFFFFFFFFFFFFF NOT AND SWAP1 DUP2 PUSH1 0x0 BYTE SWAP1 MSTORE8 POP PUSH1 0x4 DUP6 SWAP1 SHR SWAP5 POP DUP1 PUSH2 0x1C05 SWAP1 PUSH2 0x2A37 JUMP JUMPDEST SWAP1 POP PUSH2 0x1B6F JUMP JUMPDEST POP PUSH1 0x0 DUP5 EQ PUSH2 0x1C50 JUMPI PUSH1 0x40 MLOAD PUSH32 0x8C379A000000000000000000000000000000000000000000000000000000000 DUP2 MSTORE PUSH1 0x4 ADD PUSH2 0x1C47 SWAP1 PUSH2 0x2AAC JUMP JUMPDEST PUSH1 0x40 MLOAD DUP1 SWAP2 SUB SWAP1 REVERT JUMPDEST DUP1 SWAP2 POP POP SWAP3 SWAP2 POP POP JUMP JUMPDEST PUSH1 0x0 PUSH1 0x40 MLOAD SWAP1 POP SWAP1 JUMP JUMPDEST PUSH1 0x0 DUP1 REVERT JUMPDEST PUSH1 0x0 DUP1 REVERT JUMPDEST PUSH1 0x0 PUSH32 0xFFFFFFFF00000000000000000000000000000000000000000000000000000000 DUP3 AND SWAP1 POP SWAP2 SWAP1 POP JUMP JUMPDEST PUSH2 0x1CA3 DUP2 PUSH2 0x1C6E JUMP JUMPDEST DUP2 EQ PUSH2 0x1CAE JUMPI PUSH1 0x0 DUP1 REVERT JUMPDEST POP JUMP JUMPDEST PUSH1 0x0 DUP2 CALLDATALOAD SWAP1 POP PUSH2 0x1CC0 DUP2 PUSH2 0x1C9A JUMP JUMPDEST SWAP3 SWAP2 POP POP JUMP JUMPDEST PUSH1 0x0 PUSH1 0x20 DUP3 DUP5 SUB SLT ISZERO PUSH2 0x1CDC JUMPI PUSH2 0x1CDB PUSH2 0x1C64 JUMP JUMPDEST JUMPDEST PUSH1 0x0 PUSH2 0x1CEA DUP5 DUP3 DUP6 ADD PUSH2 0x1CB1 JUMP JUMPDEST SWAP2 POP POP SWAP3 SWAP2 POP POP JUMP JUMPDEST PUSH1 0x0 DUP2 ISZERO ISZERO SWAP1 POP SWAP2 SWAP1 POP JUMP JUMPDEST PUSH2 0x1D08 DUP2 PUSH2 0x1CF3 JUMP JUMPDEST DUP3 MSTORE POP POP JUMP JUMPDEST PUSH1 0x0 PUSH1 0x20 DUP3 ADD SWAP1 POP PUSH2 0x1D23 PUSH1 0x0 DUP4 ADD DUP5 PUSH2 0x1CFF JUMP JUMPDEST SWAP3 SWAP2 POP POP JUMP JUMPDEST PUSH1 0x0 DUP2 SWAP1 POP SWAP2 SWAP1 POP JUMP JUMPDEST PUSH2 0x1D3C DUP2 PUSH2 0x1D29 JUMP JUMPDEST DUP2 EQ PUSH2 0x1D47 JUMPI PUSH1 0x0 DUP1 REVERT JUMPDEST POP JUMP JUMPDEST PUSH1 0x0 DUP2 CALLDATALOAD SWAP1 POP PUSH2 0x1D59 DUP2 PUSH2 0x1D33 JUMP JUMPDEST SWAP3 SWAP2 POP POP JUMP JUMPDEST PUSH1 0x0 PUSH1 0x20 DUP3 DUP5 SUB SLT ISZERO PUSH2 0x1D75 JUMPI PUSH2 0x1D74 PUSH2 0x1C64 JUMP JUMPDEST JUMPDEST PUSH1 0x0 PUSH2 0x1D83 DUP5 DUP3 DUP6 ADD PUSH2 0x1D4A JUMP JUMPDEST SWAP2 POP POP SWAP3 SWAP2 POP POP JUMP JUMPDEST PUSH1 0x0 PUSH20 0xFFFFFFFFFFFFFFFFFFFFFFFFFFFFFFFFFFFFFFFF DUP3 AND SWAP1 POP SWAP2 SWAP1 POP JUMP JUMPDEST PUSH1 0x0 PUSH2 0x1DB7 DUP3 PUSH2 0x1D8C JUMP JUMPDEST SWAP1 POP SWAP2 SWAP1 POP JUMP JUMPDEST PUSH2 0x1DC7 DUP2 PUSH2 0x1DAC JUMP JUMPDEST DUP3 MSTORE POP POP JUMP JUMPDEST PUSH2 0x1DD6 DUP2 PUSH2 0x1D29 JUMP JUMPDEST DUP3 MSTORE POP POP JUMP JUMPDEST PUSH1 0x0 PUSH1 0x80 DUP3 ADD SWAP1 POP PUSH2 0x1DF1 PUSH1 0x0 DUP4 ADD DUP8 PUSH2 0x1DBE JUMP JUMPDEST PUSH2 0x1DFE PUSH1 0x20 DUP4 ADD DUP7 PUSH2 0x1DCD JUMP JUMPDEST PUSH2 0x1E0B PUSH1 0x40 DUP4 ADD DUP6 PUSH2 0x1CFF JUMP JUMPDEST PUSH2 0x1E18 PUSH1 0x60 DUP4 ADD DUP5 PUSH2 0x1CFF JUMP JUMPDEST SWAP6 SWAP5 POP POP POP POP POP JUMP JUMPDEST PUSH1 0x0 DUP1 REVERT JUMPDEST PUSH1 0x0 DUP1 REVERT JUMPDEST PUSH1 0x0 PUSH1 0x1F NOT PUSH1 0x1F DUP4 ADD AND SWAP1 POP SWAP2 SWAP1 POP JUMP JUMPDEST PUSH32 0x4E487B7100000000000000000000000000000000000000000000000000000000 PUSH1 0x0 MSTORE PUSH1 0x41 PUSH1 0x4 MSTORE PUSH1 0x24 PUSH1 0x0 REVERT JUMPDEST PUSH2 0x1E74 DUP3 PUSH2 0x1E2B JUMP JUMPDEST DUP2 ADD DUP2 DUP2 LT PUSH8 0xFFFFFFFFFFFFFFFF DUP3 GT OR ISZERO PUSH2 0x1E93 JUMPI PUSH2 0x1E92 PUSH2 0x1E3C JUMP JUMPDEST JUMPDEST DUP1 PUSH1 0x40 MSTORE POP POP POP JUMP JUMPDEST PUSH1 0x0 PUSH2 0x1EA6 PUSH2 0x1C5A JUMP JUMPDEST SWAP1 POP PUSH2 0x1EB2 DUP3 DUP3 PUSH2 0x1E6B JUMP JUMPDEST SWAP2 SWAP1 POP JUMP JUMPDEST PUSH1 0x0 PUSH8 0xFFFFFFFFFFFFFFFF DUP3 GT ISZERO PUSH2 0x1ED2 JUMPI PUSH2 0x1ED1 PUSH2 0x1E3C JUMP JUMPDEST JUMPDEST PUSH2 0x1EDB DUP3 PUSH2 0x1E2B JUMP JUMPDEST SWAP1 POP PUSH1 0x20 DUP2 ADD SWAP1 POP SWAP2 SWAP1 POP JUMP JUMPDEST DUP3 DUP2 DUP4 CALLDATACOPY PUSH1 0x0 DUP4 DUP4 ADD MSTORE POP POP POP JUMP JUMPDEST PUSH1 0x0 PUSH2 0x1F0A PUSH2 0x1F05 DUP5 PUSH2 0x1EB7 JUMP JUMPDEST PUSH2 0x1E9C JUMP JUMPDEST SWAP1 POP DUP3 DUP2 MSTORE PUSH1 0x20 DUP2 ADD DUP5 DUP5 DUP5 ADD GT ISZERO PUSH2 0x1F26 JUMPI PUSH2 0x1F25 PUSH2 0x1E26 JUMP JUMPDEST JUMPDEST PUSH2 0x1F31 DUP5 DUP3 DUP6 PUSH2 0x1EE8 JUMP JUMPDEST POP SWAP4 SWAP3 POP POP POP JUMP JUMPDEST PUSH1 0x0 DUP3 PUSH1 0x1F DUP4 ADD SLT PUSH2 0x1F4E JUMPI PUSH2 0x1F4D PUSH2 0x1E21 JUMP JUMPDEST JUMPDEST DUP2 CALLDATALOAD PUSH2 0x1F5E DUP5 DUP3 PUSH1 0x20 DUP7 ADD PUSH2 0x1EF7 JUMP JUMPDEST SWAP2 POP POP SWAP3 SWAP2 POP POP JUMP JUMPDEST PUSH1 0x0 DUP1 PUSH1 0x40 DUP4 DUP6 SUB SLT ISZERO PUSH2 0x1F7E JUMPI PUSH2 0x1F7D PUSH2 0x1C64 JUMP JUMPDEST JUMPDEST PUSH1 0x0 DUP4 ADD CALLDATALOAD PUSH8 0xFFFFFFFFFFFFFFFF DUP2 GT ISZERO PUSH2 0x1F9C JUMPI PUSH2 0x1F9B PUSH2 0x1C69 JUMP JUMPDEST JUMPDEST PUSH2 0x1FA8 DUP6 DUP3 DUP7 ADD PUSH2 0x1F39 JUMP JUMPDEST SWAP3 POP POP PUSH1 0x20 PUSH2 0x1FB9 DUP6 DUP3 DUP7 ADD PUSH2 0x1D4A JUMP JUMPDEST SWAP2 POP POP SWAP3 POP SWAP3 SWAP1 POP JUMP JUMPDEST PUSH1 0x0 PUSH1 0x20 DUP3 ADD SWAP1 POP PUSH2 0x1FD8 PUSH1 0x0 DUP4 ADD DUP5 PUSH2 0x1DCD JUMP JUMPDEST SWAP3 SWAP2 POP POP JUMP JUMPDEST PUSH1 0x0 DUP2 SWAP1 POP SWAP2 SWAP1 POP JUMP JUMPDEST PUSH2 0x1FF1 DUP2 PUSH2 0x1FDE JUMP JUMPDEST DUP2 EQ PUSH2 0x1FFC JUMPI PUSH1 0x0 DUP1 REVERT JUMPDEST POP JUMP JUMPDEST PUSH1 0x0 DUP2 CALLDATALOAD SWAP1 POP PUSH2 0x200E DUP2 PUSH2 0x1FE8 JUMP JUMPDEST SWAP3 SWAP2 POP POP JUMP JUMPDEST PUSH1 0x0 PUSH1 0x20 DUP3 DUP5 SUB SLT ISZERO PUSH2 0x202A JUMPI PUSH2 0x2029 PUSH2 0x1C64 JUMP JUMPDEST JUMPDEST PUSH1 0x0 PUSH2 0x2038 DUP5 DUP3 DUP6 ADD PUSH2 0x1FFF JUMP JUMPDEST SWAP2 POP POP SWAP3 SWAP2 POP POP JUMP JUMPDEST PUSH2 0x204A DUP2 PUSH2 0x1FDE JUMP JUMPDEST DUP3 MSTORE POP POP JUMP JUMPDEST PUSH1 0x0 PUSH1 0x20 DUP3 ADD SWAP1 POP PUSH2 0x2065 PUSH1 0x0 DUP4 ADD DUP5 PUSH2 0x2041 JUMP JUMPDEST SWAP3 SWAP2 POP POP JUMP JUMPDEST PUSH2 0x2074 DUP2 PUSH2 0x1DAC JUMP JUMPDEST DUP2 EQ PUSH2 0x207F JUMPI PUSH1 0x0 DUP1 REVERT JUMPDEST POP JUMP JUMPDEST PUSH1 0x0 DUP2 CALLDATALOAD SWAP1 POP PUSH2 0x2091 DUP2 PUSH2 0x206B JUMP JUMPDEST SWAP3 SWAP2 POP POP JUMP JUMPDEST PUSH1 0x0 PUSH1 0x20 DUP3 DUP5 SUB SLT ISZERO PUSH2 0x20AD JUMPI PUSH2 0x20AC PUSH2 0x1C64 JUMP JUMPDEST JUMPDEST PUSH1 0x0 PUSH2 0x20BB DUP5 DUP3 DUP6 ADD PUSH2 0x2082 JUMP JUMPDEST SWAP2 POP POP SWAP3 SWAP2 POP POP JUMP JUMPDEST PUSH1 0x0 DUP1 PUSH1 0x40 DUP4 DUP6 SUB SLT ISZERO PUSH2 0x20DB JUMPI PUSH2 0x20DA PUSH2 0x1C64 JUMP JUMPDEST JUMPDEST PUSH1 0x0 PUSH2 0x20E9 DUP6 DUP3 DUP7 ADD PUSH2 0x1FFF JUMP JUMPDEST SWAP3 POP POP PUSH1 0x20 PUSH2 0x20FA DUP6 DUP3 DUP7 ADD PUSH2 0x2082 JUMP JUMPDEST SWAP2 POP POP SWAP3 POP SWAP3 SWAP1 POP JUMP JUMPDEST PUSH1 0x0 DUP2 SWAP1 POP SWAP2 SWAP1 POP JUMP JUMPDEST PUSH1 0x0 PUSH2 0x2129 PUSH2 0x2124 PUSH2 0x211F DUP5 PUSH2 0x1D8C JUMP JUMPDEST PUSH2 0x2104 JUMP JUMPDEST PUSH2 0x1D8C JUMP JUMPDEST SWAP1 POP SWAP2 SWAP1 POP JUMP JUMPDEST PUSH1 0x0 PUSH2 0x213B DUP3 PUSH2 0x210E JUMP JUMPDEST SWAP1 POP SWAP2 SWAP1 POP JUMP JUMPDEST PUSH1 0x0 PUSH2 0x214D DUP3 PUSH2 0x2130 JUMP JUMPDEST SWAP1 POP SWAP2 SWAP1 POP JUMP JUMPDEST PUSH2 0x215D DUP2 PUSH2 0x2142 JUMP JUMPDEST DUP3 MSTORE POP POP JUMP JUMPDEST PUSH1 0x0 PUSH1 0x20 DUP3 ADD SWAP1 POP PUSH2 0x2178 PUSH1 0x0 DUP4 ADD DUP5 PUSH2 0x2154 JUMP JUMPDEST SWAP3 SWAP2 POP POP JUMP JUMPDEST PUSH1 0x0 PUSH2 0x2189 DUP3 PUSH2 0x2130 JUMP JUMPDEST SWAP1 POP SWAP2 SWAP1 POP JUMP JUMPDEST PUSH2 0x2199 DUP2 PUSH2 0x217E JUMP JUMPDEST DUP3 MSTORE POP POP JUMP JUMPDEST PUSH1 0x0 PUSH1 0x20 DUP3 ADD SWAP1 POP PUSH2 0x21B4 PUSH1 0x0 DUP4 ADD DUP5 PUSH2 0x2190 JUMP JUMPDEST SWAP3 SWAP2 POP POP JUMP JUMPDEST PUSH1 0x0 PUSH1 0x20 DUP3 ADD SWAP1 POP PUSH2 0x21CF PUSH1 0x0 DUP4 ADD DUP5 PUSH2 0x1DBE JUMP JUMPDEST SWAP3 SWAP2 POP POP JUMP JUMPDEST PUSH1 0x0 DUP2 MLOAD SWAP1 POP SWAP2 SWAP1 POP JUMP JUMPDEST PUSH1 0x0 DUP3 DUP3 MSTORE PUSH1 0x20 DUP3 ADD SWAP1 POP SWAP3 SWAP2 POP POP JUMP JUMPDEST PUSH1 0x0 JUMPDEST DUP4 DUP2 LT ISZERO PUSH2 0x220F JUMPI DUP1 DUP3 ADD MLOAD DUP2 DUP5 ADD MSTORE PUSH1 0x20 DUP2 ADD SWAP1 POP PUSH2 0x21F4 JUMP JUMPDEST PUSH1 0x0 DUP5 DUP5 ADD MSTORE POP POP POP POP JUMP JUMPDEST PUSH1 0x0 PUSH2 0x2226 DUP3 PUSH2 0x21D5 JUMP JUMPDEST PUSH2 0x2230 DUP2 DUP6 PUSH2 0x21E0 JUMP JUMPDEST SWAP4 POP PUSH2 0x2240 DUP2 DUP6 PUSH1 0x20 DUP7 ADD PUSH2 0x21F1 JUMP JUMPDEST PUSH2 0x2249 DUP2 PUSH2 0x1E2B JUMP JUMPDEST DUP5 ADD SWAP2 POP POP SWAP3 SWAP2 POP POP JUMP JUMPDEST PUSH1 0x0 PUSH1 0x40 DUP3 ADD SWAP1 POP PUSH2 0x2269 PUSH1 0x0 DUP4 ADD DUP6 PUSH2 0x1DBE JUMP JUMPDEST DUP2 DUP2 SUB PUSH1 0x20 DUP4 ADD MSTORE PUSH2 0x227B DUP2 DUP5 PUSH2 0x221B JUMP JUMPDEST SWAP1 POP SWAP4 SWAP3 POP POP POP JUMP JUMPDEST PUSH1 0x0 DUP2 MLOAD SWAP1 POP PUSH2 0x2293 DUP2 PUSH2 0x1D33 JUMP JUMPDEST SWAP3 SWAP2 POP POP JUMP JUMPDEST PUSH1 0x0 PUSH1 0x20 DUP3 DUP5 SUB SLT ISZERO PUSH2 0x22AF JUMPI PUSH2 0x22AE PUSH2 0x1C64 JUMP JUMPDEST JUMPDEST PUSH1 0x0 PUSH2 0x22BD DUP5 DUP3 DUP6 ADD PUSH2 0x2284 JUMP JUMPDEST SWAP2 POP POP SWAP3 SWAP2 POP POP JUMP JUMPDEST PUSH1 0x0 PUSH1 0x20 DUP3 ADD SWAP1 POP DUP2 DUP2 SUB PUSH1 0x0 DUP4 ADD MSTORE PUSH2 0x22E0 DUP2 DUP5 PUSH2 0x221B JUMP JUMPDEST SWAP1 POP SWAP3 SWAP2 POP POP JUMP JUMPDEST PUSH32 0x416363657373436F6E74726F6C3A2063616E206F6E6C792072656E6F756E6365 PUSH1 0x0 DUP3 ADD MSTORE PUSH32 0x20726F6C657320666F722073656C660000000000000000000000000000000000 PUSH1 0x20 DUP3 ADD MSTORE POP JUMP JUMPDEST PUSH1 0x0 PUSH2 0x2344 PUSH1 0x2F DUP4 PUSH2 0x21E0 JUMP JUMPDEST SWAP2 POP PUSH2 0x234F DUP3 PUSH2 0x22E8 JUMP JUMPDEST PUSH1 0x40 DUP3 ADD SWAP1 POP SWAP2 SWAP1 POP JUMP JUMPDEST PUSH1 0x0 PUSH1 0x20 DUP3 ADD SWAP1 POP DUP2 DUP2 SUB PUSH1 0x0 DUP4 ADD MSTORE PUSH2 0x2373 DUP2 PUSH2 0x2337 JUMP JUMPDEST SWAP1 POP SWAP2 SWAP1 POP JUMP JUMPDEST PUSH32 0x50726F6A656374206E6F74207265676973746572656400000000000000000000 PUSH1 0x0 DUP3 ADD MSTORE POP JUMP JUMPDEST PUSH1 0x0 PUSH2 0x23B0 PUSH1 0x16 DUP4 PUSH2 0x21E0 JUMP JUMPDEST SWAP2 POP PUSH2 0x23BB DUP3 PUSH2 0x237A JUMP JUMPDEST PUSH1 0x20 DUP3 ADD SWAP1 POP SWAP2 SWAP1 POP JUMP JUMPDEST PUSH1 0x0 PUSH1 0x20 DUP3 ADD SWAP1 POP DUP2 DUP2 SUB PUSH1 0x0 DUP4 ADD MSTORE PUSH2 0x23DF DUP2 PUSH2 0x23A3 JUMP JUMPDEST SWAP1 POP SWAP2 SWAP1 POP JUMP JUMPDEST PUSH32 0x50726F6A65637420616C72656164792076616C69646174656400000000000000 PUSH1 0x0 DUP3 ADD MSTORE POP JUMP JUMPDEST PUSH1 0x0 PUSH2 0x241C PUSH1 0x19 DUP4 PUSH2 0x21E0 JUMP JUMPDEST SWAP2 POP PUSH2 0x2427 DUP3 PUSH2 0x23E6 JUMP JUMPDEST PUSH1 0x20 DUP3 ADD SWAP1 POP SWAP2 SWAP1 POP JUMP JUMPDEST PUSH1 0x0 PUSH1 0x20 DUP3 ADD SWAP1 POP DUP2 DUP2 SUB PUSH1 0x0 DUP4 ADD MSTORE PUSH2 0x244B DUP2 PUSH2 0x240F JUMP JUMPDEST SWAP1 POP SWAP2 SWAP1 POP JUMP JUMPDEST PUSH32 0x56616C696461746F7220616C72656164792061737369676E6564000000000000 PUSH1 0x0 DUP3 ADD MSTORE POP JUMP JUMPDEST PUSH1 0x0 PUSH2 0x2488 PUSH1 0x1A DUP4 PUSH2 0x21E0 JUMP JUMPDEST SWAP2 POP PUSH2 0x2493 DUP3 PUSH2 0x2452 JUMP JUMPDEST PUSH1 0x20 DUP3 ADD SWAP1 POP SWAP2 SWAP1 POP JUMP JUMPDEST PUSH1 0x0 PUSH1 0x20 DUP3 ADD SWAP1 POP DUP2 DUP2 SUB PUSH1 0x0 DUP4 ADD MSTORE PUSH2 0x24B7 DUP2 PUSH2 0x247B JUMP JUMPDEST SWAP1 POP SWAP2 SWAP1 POP JUMP JUMPDEST PUSH1 0x0 PUSH1 0x60 DUP3 ADD SWAP1 POP PUSH2 0x24D3 PUSH1 0x0 DUP4 ADD DUP7 PUSH2 0x1DCD JUMP JUMPDEST PUSH2 0x24E0 PUSH1 0x20 DUP4 ADD DUP6 PUSH2 0x1DBE JUMP JUMPDEST PUSH2 0x24ED PUSH1 0x40 DUP4 ADD DUP5 PUSH2 0x1DCD JUMP JUMPDEST SWAP5 SWAP4 POP POP POP POP JUMP JUMPDEST PUSH32 0x496E636F7272656374207374616B6520616D6F756E7400000000000000000000 PUSH1 0x0 DUP3 ADD MSTORE POP JUMP JUMPDEST PUSH1 0x0 PUSH2 0x252B PUSH1 0x16 DUP4 PUSH2 0x21E0 JUMP JUMPDEST SWAP2 POP PUSH2 0x2536 DUP3 PUSH2 0x24F5 JUMP JUMPDEST PUSH1 0x20 DUP3 ADD SWAP1 POP SWAP2 SWAP1 POP JUMP JUMPDEST PUSH1 0x0 PUSH1 0x20 DUP3 ADD SWAP1 POP DUP2 DUP2 SUB PUSH1 0x0 DUP4 ADD MSTORE PUSH2 0x255A DUP2 PUSH2 0x251E JUMP JUMPDEST SWAP1 POP SWAP2 SWAP1 POP JUMP JUMPDEST PUSH32 0x416C726561647920612070726F6A656374206F776E6572000000000000000000 PUSH1 0x0 DUP3 ADD MSTORE POP JUMP JUMPDEST PUSH1 0x0 PUSH2 0x2597 PUSH1 0x17 DUP4 PUSH2 0x21E0 JUMP JUMPDEST SWAP2 POP PUSH2 0x25A2 DUP3 PUSH2 0x2561 JUMP JUMPDEST PUSH1 0x20 DUP3 ADD SWAP1 POP SWAP2 SWAP1 POP JUMP JUMPDEST PUSH1 0x0 PUSH1 0x20 DUP3 ADD SWAP1 POP DUP2 DUP2 SUB PUSH1 0x0 DUP4 ADD MSTORE PUSH2 0x25C6 DUP2 PUSH2 0x258A JUMP JUMPDEST SWAP1 POP SWAP2 SWAP1 POP JUMP JUMPDEST PUSH32 0x4E6F207374616B6520746F207769746864726177000000000000000000000000 PUSH1 0x0 DUP3 ADD MSTORE POP JUMP JUMPDEST PUSH1 0x0 PUSH2 0x2603 PUSH1 0x14 DUP4 PUSH2 0x21E0 JUMP JUMPDEST SWAP2 POP PUSH2 0x260E DUP3 PUSH2 0x25CD JUMP JUMPDEST PUSH1 0x20 DUP3 ADD SWAP1 POP SWAP2 SWAP1 POP JUMP JUMPDEST PUSH1 0x0 PUSH1 0x20 DUP3 ADD SWAP1 POP DUP2 DUP2 SUB PUSH1 0x0 DUP4 ADD MSTORE PUSH2 0x2632 DUP2 PUSH2 0x25F6 JUMP JUMPDEST SWAP1 POP SWAP2 SWAP1 POP JUMP JUMPDEST PUSH32 0x486173206163746976652070726F6A6563747300000000000000000000000000 PUSH1 0x0 DUP3 ADD MSTORE POP JUMP JUMPDEST PUSH1 0x0 PUSH2 0x266F PUSH1 0x13 DUP4 PUSH2 0x21E0 JUMP JUMPDEST SWAP2 POP PUSH2 0x267A DUP3 PUSH2 0x2639 JUMP JUMPDEST PUSH1 0x20 DUP3 ADD SWAP1 POP SWAP2 SWAP1 POP JUMP JUMPDEST PUSH1 0x0 PUSH1 0x20 DUP3 ADD SWAP1 POP DUP2 DUP2 SUB PUSH1 0x0 DUP4 ADD MSTORE PUSH2 0x269E DUP2 PUSH2 0x2662 JUMP JUMPDEST SWAP1 POP SWAP2 SWAP1 POP JUMP JUMPDEST PUSH32 0x486173206163746976652076616C69646174696F6E7300000000000000000000 PUSH1 0x0 DUP3 ADD MSTORE POP JUMP JUMPDEST PUSH1 0x0 PUSH2 0x26DB PUSH1 0x16 DUP4 PUSH2 0x21E0 JUMP JUMPDEST SWAP2 POP PUSH2 0x26E6 DUP3 PUSH2 0x26A5 JUMP JUMPDEST PUSH1 0x20 DUP3 ADD SWAP1 POP SWAP2 SWAP1 POP JUMP JUMPDEST PUSH1 0x0 PUSH1 0x20 DUP3 ADD SWAP1 POP DUP2 DUP2 SUB PUSH1 0x0 DUP4 ADD MSTORE PUSH2 0x270A DUP2 PUSH2 0x26CE JUMP JUMPDEST SWAP1 POP SWAP2 SWAP1 POP JUMP JUMPDEST PUSH32 0x416C726561647920612076616C696461746F7200000000000000000000000000 PUSH1 0x0 DUP3 ADD MSTORE POP JUMP JUMPDEST PUSH1 0x0 PUSH2 0x2747 PUSH1 0x13 DUP4 PUSH2 0x21E0 JUMP JUMPDEST SWAP2 POP PUSH2 0x2752 DUP3 PUSH2 0x2711 JUMP JUMPDEST PUSH1 0x20 DUP3 ADD SWAP1 POP SWAP2 SWAP1 POP JUMP JUMPDEST PUSH1 0x0 PUSH1 0x20 DUP3 ADD SWAP1 POP DUP2 DUP2 SUB PUSH1 0x0 DUP4 ADD MSTORE PUSH2 0x2776 DUP2 PUSH2 0x273A JUMP JUMPDEST SWAP1 POP SWAP2 SWAP1 POP JUMP JUMPDEST PUSH32 0x5061757361626C653A2070617573656400000000000000000000000000000000 PUSH1 0x0 DUP3 ADD MSTORE POP JUMP JUMPDEST PUSH1 0x0 PUSH2 0x27B3 PUSH1 0x10 DUP4 PUSH2 0x21E0 JUMP JUMPDEST SWAP2 POP PUSH2 0x27BE DUP3 PUSH2 0x277D JUMP JUMPDEST PUSH1 0x20 DUP3 ADD SWAP1 POP SWAP2 SWAP1 POP JUMP JUMPDEST PUSH1 0x0 PUSH1 0x20 DUP3 ADD SWAP1 POP DUP2 DUP2 SUB PUSH1 0x0 DUP4 ADD MSTORE PUSH2 0x27E2 DUP2 PUSH2 0x27A6 JUMP JUMPDEST SWAP1 POP SWAP2 SWAP1 POP JUMP JUMPDEST PUSH1 0x0 DUP2 SWAP1 POP SWAP3 SWAP2 POP POP JUMP JUMPDEST PUSH32 0x416363657373436F6E74726F6C3A206163636F756E7420000000000000000000 PUSH1 0x0 DUP3 ADD MSTORE POP JUMP JUMPDEST PUSH1 0x0 PUSH2 0x282A PUSH1 0x17 DUP4 PUSH2 0x27E9 JUMP JUMPDEST SWAP2 POP PUSH2 0x2835 DUP3 PUSH2 0x27F4 JUMP JUMPDEST PUSH1 0x17 DUP3 ADD SWAP1 POP SWAP2 SWAP1 POP JUMP JUMPDEST PUSH1 0x0 PUSH2 0x284B DUP3 PUSH2 0x21D5 JUMP JUMPDEST PUSH2 0x2855 DUP2 DUP6 PUSH2 0x27E9 JUMP JUMPDEST SWAP4 POP PUSH2 0x2865 DUP2 DUP6 PUSH1 0x20 DUP7 ADD PUSH2 0x21F1 JUMP JUMPDEST DUP1 DUP5 ADD SWAP2 POP POP SWAP3 SWAP2 POP POP JUMP JUMPDEST PUSH32 0x206973206D697373696E6720726F6C6520000000000000000000000000000000 PUSH1 0x0 DUP3 ADD MSTORE POP JUMP JUMPDEST PUSH1 0x0 PUSH2 0x28A7 PUSH1 0x11 DUP4 PUSH2 0x27E9 JUMP JUMPDEST SWAP2 POP PUSH2 0x28B2 DUP3 PUSH2 0x2871 JUMP JUMPDEST PUSH1 0x11 DUP3 ADD SWAP1 POP SWAP2 SWAP1 POP JUMP JUMPDEST PUSH1 0x0 PUSH2 0x28C8 DUP3 PUSH2 0x281D JUMP JUMPDEST SWAP2 POP PUSH2 0x28D4 DUP3 DUP6 PUSH2 0x2840 JUMP JUMPDEST SWAP2 POP PUSH2 0x28DF DUP3 PUSH2 0x289A JUMP JUMPDEST SWAP2 POP PUSH2 0x28EB DUP3 DUP5 PUSH2 0x2840 JUMP JUMPDEST SWAP2 POP DUP2 SWAP1 POP SWAP4 SWAP3 POP POP POP JUMP JUMPDEST PUSH32 0x5061757361626C653A206E6F7420706175736564000000000000000000000000 PUSH1 0x0 DUP3 ADD MSTORE POP JUMP JUMPDEST PUSH1 0x0 PUSH2 0x292D PUSH1 0x14 DUP4 PUSH2 0x21E0 JUMP JUMPDEST SWAP2 POP PUSH2 0x2938 DUP3 PUSH2 0x28F7 JUMP JUMPDEST PUSH1 0x20 DUP3 ADD SWAP1 POP SWAP2 SWAP1 POP JUMP JUMPDEST PUSH1 0x0 PUSH1 0x20 DUP3 ADD SWAP1 POP DUP2 DUP2 SUB PUSH1 0x0 DUP4 ADD MSTORE PUSH2 0x295C DUP2 PUSH2 0x2920 JUMP JUMPDEST SWAP1 POP SWAP2 SWAP1 POP JUMP JUMPDEST PUSH32 0x4E487B7100000000000000000000000000000000000000000000000000000000 PUSH1 0x0 MSTORE PUSH1 0x11 PUSH1 0x4 MSTORE PUSH1 0x24 PUSH1 0x0 REVERT JUMPDEST PUSH1 0x0 PUSH2 0x299D DUP3 PUSH2 0x1D29 JUMP JUMPDEST SWAP2 POP PUSH2 0x29A8 DUP4 PUSH2 0x1D29 JUMP JUMPDEST SWAP3 POP DUP3 DUP3 MUL PUSH2 0x29B6 DUP2 PUSH2 0x1D29 JUMP JUMPDEST SWAP2 POP DUP3 DUP3 DIV DUP5 EQ DUP4 ISZERO OR PUSH2 0x29CD JUMPI PUSH2 0x29CC PUSH2 0x2963 JUMP JUMPDEST JUMPDEST POP SWAP3 SWAP2 POP POP JUMP JUMPDEST PUSH1 0x0 PUSH2 0x29DF DUP3 PUSH2 0x1D29 JUMP JUMPDEST SWAP2 POP PUSH2 0x29EA DUP4 PUSH2 0x1D29 JUMP JUMPDEST SWAP3 POP DUP3 DUP3 ADD SWAP1 POP DUP1 DUP3 GT ISZERO PUSH2 0x2A02 JUMPI PUSH2 0x2A01 PUSH2 0x2963 JUMP JUMPDEST JUMPDEST SWAP3 SWAP2 POP POP JUMP JUMPDEST PUSH32 0x4E487B7100000000000000000000000000000000000000000000000000000000 PUSH1 0x0 MSTORE PUSH1 0x32 PUSH1 0x4 MSTORE PUSH1 0x24 PUSH1 0x0 REVERT JUMPDEST PUSH1 0x0 PUSH2 0x2A42 DUP3 PUSH2 0x1D29 JUMP JUMPDEST SWAP2 POP PUSH1 0x0 DUP3 SUB PUSH2 0x2A55 JUMPI PUSH2 0x2A54 PUSH2 0x2963 JUMP JUMPDEST JUMPDEST PUSH1 0x1 DUP3 SUB SWAP1 POP SWAP2 SWAP1 POP JUMP JUMPDEST PUSH32 0x537472696E67733A20686578206C656E67746820696E73756666696369656E74 PUSH1 0x0 DUP3 ADD MSTORE POP JUMP JUMPDEST PUSH1 0x0 PUSH2 0x2A96 PUSH1 0x20 DUP4 PUSH2 0x21E0 JUMP JUMPDEST SWAP2 POP PUSH2 0x2AA1 DUP3 PUSH2 0x2A60 JUMP JUMPDEST PUSH1 0x20 DUP3 ADD SWAP1 POP SWAP2 SWAP1 POP JUMP JUMPDEST PUSH1 0x0 PUSH1 0x20 DUP3 ADD SWAP1 POP DUP2 DUP2 SUB PUSH1 0x0 DUP4 ADD MSTORE PUSH2 0x2AC5 DUP2 PUSH2 0x2A89 JUMP JUMPDEST SWAP1 POP SWAP2 SWAP1 POP JUMP INVALID LOG2 PUSH5 0x6970667358 0x22 SLT KECCAK256 DUP16 MLOAD DELEGATECALL 0xCB PUSH7 0x3EF64C8B0355B2 DUP13 MUL 0x24 0xA5 0xF9 SWAP7 PUSH17 0xA24F18CC605BD79111FA93DB464736F6C PUSH4 0x43000814 STOP CALLER "},"methodIdentifiers":{"DEFAULT_ADMIN_ROLE()":"a217fddf","PROJECT_OWNER_ROLE()":"be62da0e","PROJECT_OWNER_STAKE_AMOUNT()":"f26f629c","VALIDATOR_ROLE()":"c49baebe","VALIDATOR_STAKE_AMOUNT()":"1b9a3e70","carbonToken()":"82a71ef2","getRoleAdmin(bytes32)":"248a9ca3","grantRole(bytes32,address)":"2f2ff15d","hasActiveProjects(address)":"3ff7fc11","hasActiveValidations(address)":"28ac4637","hasRole(bytes32,address)":"91d14854","pause()":"8456cb59","paused()":"5c975abb","projectNFT()":"a2fd6917","projectValidator(uint256)":"e45bf199","projects(uint256)":"107046bd","registerProject(string,uint256)":"1410b909","renounceRole(bytes32,address)":"36568abe","revokeRole(bytes32,address)":"d547741f","stakeAsProjectOwner()":"732b97fe","stakeAsValidator()":"dad64ff5","stakedAmount(address)":"f9931855","supportsInterface(bytes4)":"01ffc9a7","unpause()":"3f4ba83a","validateProject(uint256)":"57021469","withdrawStake()":"bed9d861"}}}}}