{
  "_format": "hh-sol-artifact-1",
  "contractName": "CarbonToken",
  "sourceName": "contracts/CarbonToken.sol",
  "abi": [
    {
      "inputs": [
        {
          "internalType": "address",
          "name": "_projectNFT",
          "type": "address"
        }
      ],
      "stateMutability": "nonpayable",
      "type": "constructor"
    },
    {
      "anonymous": false,
      "inputs": [
        {
          "indexed": true,
          "internalType": "address",
          "name": "owner",
          "type": "address"
        },
        {
          "indexed": true,
          "internalType": "address",
          "name": "spender",
          "type": "address"
        },
        {
          "indexed": false,
          "internalType": "uint256",
          "name": "value",
          "type": "uint256"
        }
      ],
      "name": "Approval",
      "type": "event"
    },
    {
      "anonymous": false,
      "inputs": [
        {
          "indexed": true,
          "internalType": "uint256",
          "name": "projectId",
          "type": "uint256"
        },
        {
          "indexed": true,
          "internalType": "address",
          "name": "recipient",
          "type": "address"
        },
        {
          "indexed": false,
          "internalType": "uint256",
          "name": "amount",
          "type": "uint256"
        }
      ],
      "name": "CreditsMinted",
      "type": "event"
    },
    {
      "anonymous": false,
      "inputs": [
        {
          "indexed": true,
          "internalType": "address",
          "name": "account",
          "type": "address"
        },
        {
          "indexed": false,
          "internalType": "uint256",
          "name": "amount",
          "type": "uint256"
        }
      ],
      "name": "CreditsRetired",
      "type": "event"
    },
    {
      "anonymous": false,
      "inputs": [
        {
          "indexed": true,
          "internalType": "address",
          "name": "from",
          "type": "address"
        },
        {
          "indexed": true,
          "internalType": "address",
          "name": "to",
          "type": "address"
        },
        {
          "indexed": false,
          "internalType": "uint256",
          "name": "amount",
          "type": "uint256"
        }
      ],
      "name": "CreditsTransferred",
      "type": "event"
    },
    {
      "anonymous": false,
      "inputs": [
        {
          "indexed": false,
          "internalType": "address",
          "name": "account",
          "type": "address"
        }
      ],
      "name": "Paused",
      "type": "event"
    },
    {
      "anonymous": false,
      "inputs": [
        {
          "indexed": true,
          "internalType": "bytes32",
          "name": "role",
          "type": "bytes32"
        },
        {
          "indexed": true,
          "internalType": "bytes32",
          "name": "previousAdminRole",
          "type": "bytes32"
        },
        {
          "indexed": true,
          "internalType": "bytes32",
          "name": "newAdminRole",
          "type": "bytes32"
        }
      ],
      "name": "RoleAdminChanged",
      "type": "event"
    },
    {
      "anonymous": false,
      "inputs": [
        {
          "indexed": true,
          "internalType": "bytes32",
          "name": "role",
          "type": "bytes32"
        },
        {
          "indexed": true,
          "internalType": "address",
          "name": "account",
          "type": "address"
        },
        {
          "indexed": true,
          "internalType": "address",
          "name": "sender",
          "type": "address"
        }
      ],
      "name": "RoleGranted",
      "type": "event"
    },
    {
      "anonymous": false,
      "inputs": [
        {
          "indexed": true,
          "internalType": "bytes32",
          "name": "role",
          "type": "bytes32"
        },
        {
          "indexed": true,
          "internalType": "address",
          "name": "account",
          "type": "address"
        },
        {
          "indexed": true,
          "internalType": "address",
          "name": "sender",
          "type": "address"
        }
      ],
      "name": "RoleRevoked",
      "type": "event"
    },
    {
      "anonymous": false,
      "inputs": [
        {
          "indexed": true,
          "internalType": "address",
          "name": "validator",
          "type": "address"
        },
        {
          "indexed": false,
          "internalType": "uint256",
          "name": "amount",
          "type": "uint256"
        }
      ],
      "name": "Slashed",
      "type": "event"
    },
    {
      "anonymous": false,
      "inputs": [
        {
          "indexed": true,
          "internalType": "address",
          "name": "validator",
          "type": "address"
        },
        {
          "indexed": false,
          "internalType": "uint256",
          "name": "amount",
          "type": "uint256"
        }
      ],
      "name": "Staked",
      "type": "event"
    },
    {
      "anonymous": false,
      "inputs": [
        {
          "indexed": true,
          "internalType": "address",
          "name": "from",
          "type": "address"
        },
        {
          "indexed": true,
          "internalType": "address",
          "name": "to",
          "type": "address"
        },
        {
          "indexed": false,
          "internalType": "uint256",
          "name": "value",
          "type": "uint256"
        }
      ],
      "name": "Transfer",
      "type": "event"
    },
    {
      "anonymous": false,
      "inputs": [
        {
          "indexed": false,
          "internalType": "address",
          "name": "account",
          "type": "address"
        }
      ],
      "name": "Unpaused",
      "type": "event"
    },
    {
      "anonymous": false,
      "inputs": [
        {
          "indexed": true,
          "internalType": "address",
          "name": "validator",
          "type": "address"
        },
        {
          "indexed": false,
          "internalType": "uint256",
          "name": "amount",
          "type": "uint256"
        }
      ],
      "name": "Unstaked",
      "type": "event"
    },
    {
      "inputs": [],
      "name": "DEFAULT_ADMIN_ROLE",
      "outputs": [
        {
          "internalType": "bytes32",
          "name": "",
          "type": "bytes32"
        }
      ],
      "stateMutability": "view",
      "type": "function"
    },
    {
      "inputs": [],
      "name": "MINTER_ROLE",
      "outputs": [
        {
          "internalType": "bytes32",
          "name": "",
          "type": "bytes32"
        }
      ],
      "stateMutability": "view",
      "type": "function"
    },
    {
      "inputs": [],
      "name": "VALIDATOR_ROLE",
      "outputs": [
        {
          "internalType": "bytes32",
          "name": "",
          "type": "bytes32"
        }
      ],
      "stateMutability": "view",
      "type": "function"
    },
    {
      "inputs": [
        {
          "internalType": "address",
          "name": "owner",
          "type": "address"
        },
        {
          "internalType": "address",
          "name": "spender",
          "type": "address"
        }
      ],
      "name": "allowance",
      "outputs": [
        {
          "internalType": "uint256",
          "name": "",
          "type": "uint256"
        }
      ],
      "stateMutability": "view",
      "type": "function"
    },
    {
      "inputs": [
        {
          "internalType": "address",
          "name": "spender",
          "type": "address"
        },
        {
          "internalType": "uint256",
          "name": "amount",
          "type": "uint256"
        }
      ],
      "name": "approve",
      "outputs": [
        {
          "internalType": "bool",
          "name": "",
          "type": "bool"
        }
      ],
      "stateMutability": "nonpayable",
      "type": "function"
    },
    {
      "inputs": [
        {
          "internalType": "address",
          "name": "account",
          "type": "address"
        }
      ],
      "name": "balanceOf",
      "outputs": [
        {
          "internalType": "uint256",
          "name": "",
          "type": "uint256"
        }
      ],
      "stateMutability": "view",
      "type": "function"
    },
    {
      "inputs": [],
      "name": "decimals",
      "outputs": [
        {
          "internalType": "uint8",
          "name": "",
          "type": "uint8"
        }
      ],
      "stateMutability": "view",
      "type": "function"
    },
    {
      "inputs": [
        {
          "internalType": "address",
          "name": "spender",
          "type": "address"
        },
        {
          "internalType": "uint256",
          "name": "subtractedValue",
          "type": "uint256"
        }
      ],
      "name": "decreaseAllowance",
      "outputs": [
        {
          "internalType": "bool",
          "name": "",
          "type": "bool"
        }
      ],
      "stateMutability": "nonpayable",
      "type": "function"
    },
    {
      "inputs": [
        {
          "internalType": "uint256",
          "name": "projectId",
          "type": "uint256"
        }
      ],
      "name": "getProjectMintedStatus",
      "outputs": [
        {
          "internalType": "bool",
          "name": "",
          "type": "bool"
        }
      ],
      "stateMutability": "view",
      "type": "function"
    },
    {
      "inputs": [
        {
          "internalType": "uint256",
          "name": "projectId",
          "type": "uint256"
        }
      ],
      "name": "getProjectTotalMinted",
      "outputs": [
        {
          "internalType": "uint256",
          "name": "",
          "type": "uint256"
        }
      ],
      "stateMutability": "view",
      "type": "function"
    },
    {
      "inputs": [
        {
          "internalType": "bytes32",
          "name": "role",
          "type": "bytes32"
        }
      ],
      "name": "getRoleAdmin",
      "outputs": [
        {
          "internalType": "bytes32",
          "name": "",
          "type": "bytes32"
        }
      ],
      "stateMutability": "view",
      "type": "function"
    },
    {
      "inputs": [
        {
          "internalType": "bytes32",
          "name": "role",
          "type": "bytes32"
        },
        {
          "internalType": "address",
          "name": "account",
          "type": "address"
        }
      ],
      "name": "grantRole",
      "outputs": [],
      "stateMutability": "nonpayable",
      "type": "function"
    },
    {
      "inputs": [
        {
          "internalType": "bytes32",
          "name": "role",
          "type": "bytes32"
        },
        {
          "internalType": "address",
          "name": "account",
          "type": "address"
        }
      ],
      "name": "hasRole",
      "outputs": [
        {
          "internalType": "bool",
          "name": "",
          "type": "bool"
        }
      ],
      "stateMutability": "view",
      "type": "function"
    },
    {
      "inputs": [
        {
          "internalType": "address",
          "name": "spender",
          "type": "address"
        },
        {
          "internalType": "uint256",
          "name": "addedValue",
          "type": "uint256"
        }
      ],
      "name": "increaseAllowance",
      "outputs": [
        {
          "internalType": "bool",
          "name": "",
          "type": "bool"
        }
      ],
      "stateMutability": "nonpayable",
      "type": "function"
    },
    {
      "inputs": [
        {
          "internalType": "uint256",
          "name": "projectId",
          "type": "uint256"
        },
        {
          "internalType": "address",
          "name": "recipient",
          "type": "address"
        },
        {
          "internalType": "uint256",
          "name": "amount",
          "type": "uint256"
        }
      ],
      "name": "mintCarbonCredits",
      "outputs": [],
      "stateMutability": "nonpayable",
      "type": "function"
    },
    {
      "inputs": [],
      "name": "name",
      "outputs": [
        {
          "internalType": "string",
          "name": "",
          "type": "string"
        }
      ],
      "stateMutability": "view",
      "type": "function"
    },
    {
      "inputs": [],
      "name": "pause",
      "outputs": [],
      "stateMutability": "nonpayable",
      "type": "function"
    },
    {
      "inputs": [],
      "name": "paused",
      "outputs": [
        {
          "internalType": "bool",
          "name": "",
          "type": "bool"
        }
      ],
      "stateMutability": "view",
      "type": "function"
    },
    {
      "inputs": [],
      "name": "projectNFT",
      "outputs": [
        {
          "internalType": "contract ProjectNFT",
          "name": "",
          "type": "address"
        }
      ],
      "stateMutability": "view",
      "type": "function"
    },
    {
      "inputs": [
        {
          "internalType": "bytes32",
          "name": "role",
          "type": "bytes32"
        },
        {
          "internalType": "address",
          "name": "account",
          "type": "address"
        }
      ],
      "name": "renounceRole",
      "outputs": [],
      "stateMutability": "nonpayable",
      "type": "function"
    },
    {
      "inputs": [
        {
          "internalType": "uint256",
          "name": "amount",
          "type": "uint256"
        }
      ],
      "name": "retireCarbonCredits",
      "outputs": [],
      "stateMutability": "nonpayable",
      "type": "function"
    },
    {
      "inputs": [
        {
          "internalType": "bytes32",
          "name": "role",
          "type": "bytes32"
        },
        {
          "internalType": "address",
          "name": "account",
          "type": "address"
        }
      ],
      "name": "revokeRole",
      "outputs": [],
      "stateMutability": "nonpayable",
      "type": "function"
    },
    {
      "inputs": [
        {
          "internalType": "address",
          "name": "validator",
          "type": "address"
        }
      ],
      "name": "slash",
      "outputs": [],
      "stateMutability": "nonpayable",
      "type": "function"
    },
    {
      "inputs": [],
      "name": "stake",
      "outputs": [],
      "stateMutability": "payable",
      "type": "function"
    },
    {
      "inputs": [
        {
          "internalType": "bytes4",
          "name": "interfaceId",
          "type": "bytes4"
        }
      ],
      "name": "supportsInterface",
      "outputs": [
        {
          "internalType": "bool",
          "name": "",
          "type": "bool"
        }
      ],
      "stateMutability": "view",
      "type": "function"
    },
    {
      "inputs": [],
      "name": "symbol",
      "outputs": [
        {
          "internalType": "string",
          "name": "",
          "type": "string"
        }
      ],
      "stateMutability": "view",
      "type": "function"
    },
    {
      "inputs": [],
      "name": "totalSupply",
      "outputs": [
        {
          "internalType": "uint256",
          "name": "",
          "type": "uint256"
        }
      ],
      "stateMutability": "view",
      "type": "function"
    },
    {
      "inputs": [
        {
          "internalType": "address",
          "name": "to",
          "type": "address"
        },
        {
          "internalType": "uint256",
          "name": "amount",
          "type": "uint256"
        }
      ],
      "name": "transfer",
      "outputs": [
        {
          "internalType": "bool",
          "name": "",
          "type": "bool"
        }
      ],
      "stateMutability": "nonpayable",
      "type": "function"
    },
    {
      "inputs": [
        {
          "internalType": "address",
          "name": "from",
          "type": "address"
        },
        {
          "internalType": "address",
          "name": "to",
          "type": "address"
        },
        {
          "internalType": "uint256",
          "name": "amount",
          "type": "uint256"
        }
      ],
      "name": "transferFrom",
      "outputs": [
        {
          "internalType": "bool",
          "name": "",
          "type": "bool"
        }
      ],
      "stateMutability": "nonpayable",
      "type": "function"
    },
    {
      "inputs": [],
      "name": "unpause",
      "outputs": [],
      "stateMutability": "nonpayable",
      "type": "function"
    },
    {
      "inputs": [
        {
          "internalType": "uint256",
          "name": "amount",
          "type": "uint256"
        }
      ],
      "name": "unstake",
      "outputs": [],
      "stateMutability": "nonpayable",
      "type": "function"
    }
  ],
  "bytecode": "0x60806040523480156200001157600080fd5b5060405162003d0038038062003d0083398181016040528101906200003791906200038a565b6040518060400160405280601381526020017f436172626f6e2043726564697420546f6b656e000000000000000000000000008152506040518060400160405280600381526020017f43435400000000000000000000000000000000000000000000000000000000008152508160039081620000b4919062000636565b508060049081620000c6919062000636565b5050506000600660006101000a81548160ff021916908315150217905550620000f96000801b33620001a560201b60201c565b6200012b7f9f2df0fed2c77648de5860a4cc508cd0818c85b8b8a1ab4ceeef8d981c8956a633620001a560201b60201c565b6200015d7f21702c8af46127c7fa207f89d0b0a8441bb32959a0ac7df790e9ab1a25c9892633620001a560201b60201c565b80600660016101000a81548173ffffffffffffffffffffffffffffffffffffffff021916908373ffffffffffffffffffffffffffffffffffffffff160217905550506200071d565b620001b78282620001bb60201b60201c565b5050565b620001cd8282620002ad60201b60201c565b620002a95760016005600084815260200190815260200160002060000160008373ffffffffffffffffffffffffffffffffffffffff1673ffffffffffffffffffffffffffffffffffffffff16815260200190815260200160002060006101000a81548160ff0219169083151502179055506200024e6200031860201b60201c565b73ffffffffffffffffffffffffffffffffffffffff168173ffffffffffffffffffffffffffffffffffffffff16837f2f8788117e7eff1d82e926ec794901d17c78024a50270940304540a733656f0d60405160405180910390a45b5050565b60006005600084815260200190815260200160002060000160008373ffffffffffffffffffffffffffffffffffffffff1673ffffffffffffffffffffffffffffffffffffffff16815260200190815260200160002060009054906101000a900460ff16905092915050565b600033905090565b600080fd5b600073ffffffffffffffffffffffffffffffffffffffff82169050919050565b6000620003528262000325565b9050919050565b620003648162000345565b81146200037057600080fd5b50565b600081519050620003848162000359565b92915050565b600060208284031215620003a357620003a262000320565b5b6000620003b38482850162000373565b91505092915050565b600081519050919050565b7f4e487b7100000000000000000000000000000000000000000000000000000000600052604160045260246000fd5b7f4e487b7100000000000000000000000000000000000000000000000000000000600052602260045260246000fd5b600060028204905060018216806200043e57607f821691505b602082108103620004545762000453620003f6565b5b50919050565b60008190508160005260206000209050919050565b60006020601f8301049050919050565b600082821b905092915050565b600060088302620004be7fffffffffffffffffffffffffffffffffffffffffffffffffffffffffffffffff826200047f565b620004ca86836200047f565b95508019841693508086168417925050509392505050565b6000819050919050565b6000819050919050565b600062000517620005116200050b84620004e2565b620004ec565b620004e2565b9050919050565b6000819050919050565b6200053383620004f6565b6200054b62000542826200051e565b8484546200048c565b825550505050565b600090565b6200056262000553565b6200056f81848462000528565b505050565b5b8181101562000597576200058b60008262000558565b60018101905062000575565b5050565b601f821115620005e657620005b0816200045a565b620005bb846200046f565b81016020851015620005cb578190505b620005e3620005da856200046f565b83018262000574565b50505b505050565b600082821c905092915050565b60006200060b60001984600802620005eb565b1980831691505092915050565b6000620006268383620005f8565b9150826002028217905092915050565b6200064182620003bc565b67ffffffffffffffff8111156200065d576200065c620003c7565b5b62000669825462000425565b620006768282856200059b565b600060209050601f831160018114620006ae576000841562000699578287015190505b620006a5858262000618565b86555062000715565b601f198416620006be866200045a565b60005b82811015620006e857848901518255600182019150602085019450602081019050620006c1565b8683101562000708578489015162000704601f891682620005f8565b8355505b6001600288020188555050505b505050505050565b6135d3806200072d6000396000f3fe6080604052600436106101d85760003560e01c806370a0823111610102578063a9059cbb11610095578063d539139311610064578063d5391393146106d9578063d547741f14610704578063d9c53c841461072d578063dd62ed3e14610756576101d8565b8063a9059cbb1461060b578063b745f16314610648578063c49baebe14610685578063c96be4cb146106b0576101d8565b806395d89b41116100d157806395d89b411461054d578063a217fddf14610578578063a2fd6917146105a3578063a457c2d7146105ce576101d8565b806370a082311461047f578063815067b2146104bc5780638456cb59146104f957806391d1485414610510576101d8565b80632e17de781161017a578063395093511161014957806339509351146103f65780633a4b66f1146104335780633f4ba83a1461043d5780635c975abb14610454576101d8565b80632e17de78146103505780632f2ff15d14610379578063313ce567146103a257806336568abe146103cd576101d8565b806318160ddd116101b657806318160ddd1461028257806323b872dd146102ad578063248a9ca3146102ea5780632c99753114610327576101d8565b806301ffc9a7146101dd57806306fdde031461021a578063095ea7b314610245575b600080fd5b3480156101e957600080fd5b5061020460048036038101906101ff91906122b9565b610793565b6040516102119190612301565b60405180910390f35b34801561022657600080fd5b5061022f61080d565b60405161023c91906123ac565b60405180910390f35b34801561025157600080fd5b5061026c60048036038101906102679190612462565b61089f565b6040516102799190612301565b60405180910390f35b34801561028e57600080fd5b506102976108c2565b6040516102a491906124b1565b60405180910390f35b3480156102b957600080fd5b506102d460048036038101906102cf91906124cc565b6108cc565b6040516102e19190612301565b60405180910390f35b3480156102f657600080fd5b50610311600480360381019061030c9190612555565b6108fb565b60405161031e9190612591565b60405180910390f35b34801561033357600080fd5b5061034e600480360381019061034991906125ac565b61091b565b005b34801561035c57600080fd5b50610377600480360381019061037291906125ac565b610a0c565b005b34801561038557600080fd5b506103a0600480360381019061039b91906125d9565b610b4d565b005b3480156103ae57600080fd5b506103b7610b6e565b6040516103c49190612635565b60405180910390f35b3480156103d957600080fd5b506103f460048036038101906103ef91906125d9565b610b77565b005b34801561040257600080fd5b5061041d60048036038101906104189190612462565b610bfa565b60405161042a9190612301565b60405180910390f35b61043b610c31565b005b34801561044957600080fd5b50610452610cc4565b005b34801561046057600080fd5b50610469610cdc565b6040516104769190612301565b60405180910390f35b34801561048b57600080fd5b506104a660048036038101906104a19190612650565b610cf3565b6040516104b391906124b1565b60405180910390f35b3480156104c857600080fd5b506104e360048036038101906104de91906125ac565b610d3b565b6040516104f09190612301565b60405180910390f35b34801561050557600080fd5b5061050e610d65565b005b34801561051c57600080fd5b50610537600480360381019061053291906125d9565b610d7d565b6040516105449190612301565b60405180910390f35b34801561055957600080fd5b50610562610de8565b60405161056f91906123ac565b60405180910390f35b34801561058457600080fd5b5061058d610e7a565b60405161059a9190612591565b60405180910390f35b3480156105af57600080fd5b506105b8610e81565b6040516105c591906126dc565b60405180910390f35b3480156105da57600080fd5b506105f560048036038101906105f09190612462565b610ea7565b6040516106029190612301565b60405180910390f35b34801561061757600080fd5b50610632600480360381019061062d9190612462565b610f1e565b60405161063f9190612301565b60405180910390f35b34801561065457600080fd5b5061066f600480360381019061066a91906125ac565b610fac565b60405161067c91906124b1565b60405180910390f35b34801561069157600080fd5b5061069a610fc9565b6040516106a79190612591565b60405180910390f35b3480156106bc57600080fd5b506106d760048036038101906106d29190612650565b610fed565b005b3480156106e557600080fd5b506106ee61104d565b6040516106fb9190612591565b60405180910390f35b34801561071057600080fd5b5061072b600480360381019061072691906125d9565b611071565b005b34801561073957600080fd5b50610754600480360381019061074f91906126f7565b611092565b005b34801561076257600080fd5b5061077d6004803603810190610778919061274a565b611312565b60405161078a91906124b1565b60405180910390f35b60007f7965db0b000000000000000000000000000000000000000000000000000000007bffffffffffffffffffffffffffffffffffffffffffffffffffffffff1916827bffffffffffffffffffffffffffffffffffffffffffffffffffffffff19161480610806575061080582611399565b5b9050919050565b60606003805461081c906127b9565b80601f0160208091040260200160405190810160405280929190818152602001828054610848906127b9565b80156108955780601f1061086a57610100808354040283529160200191610895565b820191906000526020600020905b81548152906001019060200180831161087857829003601f168201915b5050505050905090565b6000806108aa611403565b90506108b781858561140b565b600191505092915050565b6000600254905090565b6000806108d7611403565b90506108e48582856115d4565b6108ef858585611660565b60019150509392505050565b600060056000838152602001908152602001600020600101549050919050565b6109236118d6565b60008111610966576040517f08c379a000000000000000000000000000000000000000000000000000000000815260040161095d90612836565b60405180910390fd5b8061097033610cf3565b10156109b1576040517f08c379a00000000000000000000000000000000000000000000000000000000081526004016109a8906128a2565b60405180910390fd5b6109bb3382611920565b3373ffffffffffffffffffffffffffffffffffffffff167f75ce18f0b9e34e9d622e58c9a8e26936ea62297ebb7ca2ea99e83d0535d7997782604051610a0191906124b1565b60405180910390a250565b60008111610a4f576040517f08c379a0000000000000000000000000000000000000000000000000000000008152600401610a469061290e565b60405180910390fd5b60003373ffffffffffffffffffffffffffffffffffffffff1682604051610a759061295f565b60006040518083038185875af1925050503d8060008114610ab2576040519150601f19603f3d011682016040523d82523d6000602084013e610ab7565b606091505b5050905080610afb576040517f08c379a0000000000000000000000000000000000000000000000000000000008152600401610af2906129c0565b60405180910390fd5b3373ffffffffffffffffffffffffffffffffffffffff167f0f5bb82176feb1b5e747e28471aa92156a04d9f3ab9f45f28e2d704232b93f7583604051610b4191906124b1565b60405180910390a25050565b610b56826108fb565b610b5f81611aed565b610b698383611b01565b505050565b60006012905090565b610b7f611403565b73ffffffffffffffffffffffffffffffffffffffff168173ffffffffffffffffffffffffffffffffffffffff1614610bec576040517f08c379a0000000000000000000000000000000000000000000000000000000008152600401610be390612a52565b60405180910390fd5b610bf68282611be2565b5050565b600080610c05611403565b9050610c26818585610c178589611312565b610c219190612aa1565b61140b565b600191505092915050565b60003411610c74576040517f08c379a0000000000000000000000000000000000000000000000000000000008152600401610c6b90612b21565b60405180910390fd5b3373ffffffffffffffffffffffffffffffffffffffff167f9e71bc8eea02a63969f509818f2dafb9254532904319f9dbda79b67bd34a5f3d34604051610cba91906124b1565b60405180910390a2565b6000801b610cd181611aed565b610cd9611cc4565b50565b6000600660009054906101000a900460ff16905090565b60008060008373ffffffffffffffffffffffffffffffffffffffff1673ffffffffffffffffffffffffffffffffffffffff168152602001908152602001600020549050919050565b60006007600083815260200190815260200160002060009054906101000a900460ff169050919050565b6000801b610d7281611aed565b610d7a611d27565b50565b60006005600084815260200190815260200160002060000160008373ffffffffffffffffffffffffffffffffffffffff1673ffffffffffffffffffffffffffffffffffffffff16815260200190815260200160002060009054906101000a900460ff16905092915050565b606060048054610df7906127b9565b80601f0160208091040260200160405190810160405280929190818152602001828054610e23906127b9565b8015610e705780601f10610e4557610100808354040283529160200191610e70565b820191906000526020600020905b815481529060010190602001808311610e5357829003601f168201915b5050505050905090565b6000801b81565b600660019054906101000a900473ffffffffffffffffffffffffffffffffffffffff1681565b600080610eb2611403565b90506000610ec08286611312565b905083811015610f05576040517f08c379a0000000000000000000000000000000000000000000000000000000008152600401610efc90612bb3565b60405180910390fd5b610f12828686840361140b565b60019250505092915050565b6000610f286118d6565b6000610f348484611d8a565b90508015610fa2578373ffffffffffffffffffffffffffffffffffffffff163373ffffffffffffffffffffffffffffffffffffffff167fed198cadddd93e734cbf04cb1c3226d9bafaeb504cedbd8ee36b830b0cb9e7a585604051610f9991906124b1565b60405180910390a35b8091505092915050565b600060086000838152602001908152602001600020549050919050565b7f21702c8af46127c7fa207f89d0b0a8441bb32959a0ac7df790e9ab1a25c9892681565b6000801b610ffa81611aed565b8173ffffffffffffffffffffffffffffffffffffffff167f4ed05e9673c26d2ed44f7ef6a7f2942df0ee3b5e1e17db4b99f9dcd261a339cd60006040516110419190612c0e565b60405180910390a25050565b7f9f2df0fed2c77648de5860a4cc508cd0818c85b8b8a1ab4ceeef8d981c8956a681565b61107a826108fb565b61108381611aed565b61108d8383611be2565b505050565b61109a6118d6565b7f9f2df0fed2c77648de5860a4cc508cd0818c85b8b8a1ab4ceeef8d981c8956a66110c481611aed565b6007600085815260200190815260200160002060009054906101000a900460ff1615611125576040517f08c379a000000000000000000000000000000000000000000000000000000000815260040161111c90612c75565b60405180910390fd5b60008211611168576040517f08c379a000000000000000000000000000000000000000000000000000000000815260040161115f90612836565b60405180910390fd5b6000600660019054906101000a900473ffffffffffffffffffffffffffffffffffffffff1673ffffffffffffffffffffffffffffffffffffffff16639675c009866040518263ffffffff1660e01b81526004016111c591906124b1565b602060405180830381865afa1580156111e2573d6000803e3d6000fd5b505050506040513d601f19601f820116820180604052508101906112069190612cba565b905060028081111561121b5761121a612ce7565b5b81600281111561122e5761122d612ce7565b5b1461126e576040517f08c379a000000000000000000000000000000000000000000000000000000000815260040161126590612d62565b60405180910390fd5b60016007600087815260200190815260200160002060006101000a81548160ff0219169083151502179055508260086000878152602001908152602001600020819055506112bc8484611dad565b8373ffffffffffffffffffffffffffffffffffffffff16857f921c08e825069e4d980f75f8c9d39ab505649f98d18f620f19759e16f0e3ba6b8560405161130391906124b1565b60405180910390a35050505050565b6000600160008473ffffffffffffffffffffffffffffffffffffffff1673ffffffffffffffffffffffffffffffffffffffff16815260200190815260200160002060008373ffffffffffffffffffffffffffffffffffffffff1673ffffffffffffffffffffffffffffffffffffffff16815260200190815260200160002054905092915050565b60007f01ffc9a7000000000000000000000000000000000000000000000000000000007bffffffffffffffffffffffffffffffffffffffffffffffffffffffff1916827bffffffffffffffffffffffffffffffffffffffffffffffffffffffff1916149050919050565b600033905090565b600073ffffffffffffffffffffffffffffffffffffffff168373ffffffffffffffffffffffffffffffffffffffff160361147a576040517f08c379a000000000000000000000000000000000000000000000000000000000815260040161147190612df4565b60405180910390fd5b600073ffffffffffffffffffffffffffffffffffffffff168273ffffffffffffffffffffffffffffffffffffffff16036114e9576040517f08c379a00000000000000000000000000000000000000000000000000000000081526004016114e090612e86565b60405180910390fd5b80600160008573ffffffffffffffffffffffffffffffffffffffff1673ffffffffffffffffffffffffffffffffffffffff16815260200190815260200160002060008473ffffffffffffffffffffffffffffffffffffffff1673ffffffffffffffffffffffffffffffffffffffff168152602001908152602001600020819055508173ffffffffffffffffffffffffffffffffffffffff168373ffffffffffffffffffffffffffffffffffffffff167f8c5be1e5ebec7d5bd14f71427d1e84f3dd0314c0f7b2291e5b200ac8c7c3b925836040516115c791906124b1565b60405180910390a3505050565b60006115e08484611312565b90507fffffffffffffffffffffffffffffffffffffffffffffffffffffffffffffffff811461165a578181101561164c576040517f08c379a000000000000000000000000000000000000000000000000000000000815260040161164390612ef2565b60405180910390fd5b611659848484840361140b565b5b50505050565b600073ffffffffffffffffffffffffffffffffffffffff168373ffffffffffffffffffffffffffffffffffffffff16036116cf576040517f08c379a00000000000000000000000000000000000000000000000000000000081526004016116c690612f84565b60405180910390fd5b600073ffffffffffffffffffffffffffffffffffffffff168273ffffffffffffffffffffffffffffffffffffffff160361173e576040517f08c379a000000000000000000000000000000000000000000000000000000000815260040161173590613016565b60405180910390fd5b611749838383611f03565b60008060008573ffffffffffffffffffffffffffffffffffffffff1673ffffffffffffffffffffffffffffffffffffffff168152602001908152602001600020549050818110156117cf576040517f08c379a00000000000000000000000000000000000000000000000000000000081526004016117c6906130a8565b60405180910390fd5b8181036000808673ffffffffffffffffffffffffffffffffffffffff1673ffffffffffffffffffffffffffffffffffffffff16815260200190815260200160002081905550816000808573ffffffffffffffffffffffffffffffffffffffff1673ffffffffffffffffffffffffffffffffffffffff168152602001908152602001600020600082825401925050819055508273ffffffffffffffffffffffffffffffffffffffff168473ffffffffffffffffffffffffffffffffffffffff167fddf252ad1be2c89b69c2b068fc378daa952ba7f163c4a11628f55a4df523b3ef846040516118bd91906124b1565b60405180910390a36118d0848484611f1b565b50505050565b6118de610cdc565b1561191e576040517f08c379a000000000000000000000000000000000000000000000000000000000815260040161191590613114565b60405180910390fd5b565b600073ffffffffffffffffffffffffffffffffffffffff168273ffffffffffffffffffffffffffffffffffffffff160361198f576040517f08c379a0000000000000000000000000000000000000000000000000000000008152600401611986906131a6565b60405180910390fd5b61199b82600083611f03565b60008060008473ffffffffffffffffffffffffffffffffffffffff1673ffffffffffffffffffffffffffffffffffffffff16815260200190815260200160002054905081811015611a21576040517f08c379a0000000000000000000000000000000000000000000000000000000008152600401611a1890613238565b60405180910390fd5b8181036000808573ffffffffffffffffffffffffffffffffffffffff1673ffffffffffffffffffffffffffffffffffffffff1681526020019081526020016000208190555081600260008282540392505081905550600073ffffffffffffffffffffffffffffffffffffffff168373ffffffffffffffffffffffffffffffffffffffff167fddf252ad1be2c89b69c2b068fc378daa952ba7f163c4a11628f55a4df523b3ef84604051611ad491906124b1565b60405180910390a3611ae883600084611f1b565b505050565b611afe81611af9611403565b611f20565b50565b611b0b8282610d7d565b611bde5760016005600084815260200190815260200160002060000160008373ffffffffffffffffffffffffffffffffffffffff1673ffffffffffffffffffffffffffffffffffffffff16815260200190815260200160002060006101000a81548160ff021916908315150217905550611b83611403565b73ffffffffffffffffffffffffffffffffffffffff168173ffffffffffffffffffffffffffffffffffffffff16837f2f8788117e7eff1d82e926ec794901d17c78024a50270940304540a733656f0d60405160405180910390a45b5050565b611bec8282610d7d565b15611cc05760006005600084815260200190815260200160002060000160008373ffffffffffffffffffffffffffffffffffffffff1673ffffffffffffffffffffffffffffffffffffffff16815260200190815260200160002060006101000a81548160ff021916908315150217905550611c65611403565b73ffffffffffffffffffffffffffffffffffffffff168173ffffffffffffffffffffffffffffffffffffffff16837ff6391f5c32d9c69d2a47ea670b442974b53935d1edc7fd64eb21e047a839171b60405160405180910390a45b5050565b611ccc611fa5565b6000600660006101000a81548160ff0219169083151502179055507f5db9ee0a495bf2e6ff9c91a7834c1ba4fdd244a5e8aa4e537bd38aeae4b073aa611d10611403565b604051611d1d9190613267565b60405180910390a1565b611d2f6118d6565b6001600660006101000a81548160ff0219169083151502179055507f62e78cea01bee320cd4e420270b5ea74000d11b0c9f74754ebdbfc544b05a258611d73611403565b604051611d809190613267565b60405180910390a1565b600080611d95611403565b9050611da2818585611660565b600191505092915050565b600073ffffffffffffffffffffffffffffffffffffffff168273ffffffffffffffffffffffffffffffffffffffff1603611e1c576040517f08c379a0000000000000000000000000000000000000000000000000000000008152600401611e13906132ce565b60405180910390fd5b611e2860008383611f03565b8060026000828254611e3a9190612aa1565b92505081905550806000808473ffffffffffffffffffffffffffffffffffffffff1673ffffffffffffffffffffffffffffffffffffffff168152602001908152602001600020600082825401925050819055508173ffffffffffffffffffffffffffffffffffffffff16600073ffffffffffffffffffffffffffffffffffffffff167fddf252ad1be2c89b69c2b068fc378daa952ba7f163c4a11628f55a4df523b3ef83604051611eeb91906124b1565b60405180910390a3611eff60008383611f1b565b5050565b611f0b6118d6565b611f16838383611fee565b505050565b505050565b611f2a8282610d7d565b611fa157611f3781611ff3565b611f458360001c6020612020565b604051602001611f569291906133c2565b6040516020818303038152906040526040517f08c379a0000000000000000000000000000000000000000000000000000000008152600401611f9891906123ac565b60405180910390fd5b5050565b611fad610cdc565b611fec576040517f08c379a0000000000000000000000000000000000000000000000000000000008152600401611fe390613448565b60405180910390fd5b565b505050565b60606120198273ffffffffffffffffffffffffffffffffffffffff16601460ff16612020565b9050919050565b6060600060028360026120339190613468565b61203d9190612aa1565b67ffffffffffffffff811115612056576120556134aa565b5b6040519080825280601f01601f1916602001820160405280156120885781602001600182028036833780820191505090505b5090507f3000000000000000000000000000000000000000000000000000000000000000816000815181106120c0576120bf6134d9565b5b60200101907effffffffffffffffffffffffffffffffffffffffffffffffffffffffffffff1916908160001a9053507f780000000000000000000000000000000000000000000000000000000000000081600181518110612124576121236134d9565b5b60200101907effffffffffffffffffffffffffffffffffffffffffffffffffffffffffffff1916908160001a905350600060018460026121649190613468565b61216e9190612aa1565b90505b600181111561220e577f3031323334353637383961626364656600000000000000000000000000000000600f8616601081106121b0576121af6134d9565b5b1a60f81b8282815181106121c7576121c66134d9565b5b60200101907effffffffffffffffffffffffffffffffffffffffffffffffffffffffffffff1916908160001a905350600485901c94508061220790613508565b9050612171565b5060008414612252576040517f08c379a00000000000000000000000000000000000000000000000000000000081526004016122499061357d565b60405180910390fd5b8091505092915050565b600080fd5b60007fffffffff0000000000000000000000000000000000000000000000000000000082169050919050565b61229681612261565b81146122a157600080fd5b50565b6000813590506122b38161228d565b92915050565b6000602082840312156122cf576122ce61225c565b5b60006122dd848285016122a4565b91505092915050565b60008115159050919050565b6122fb816122e6565b82525050565b600060208201905061231660008301846122f2565b92915050565b600081519050919050565b600082825260208201905092915050565b60005b8381101561235657808201518184015260208101905061233b565b60008484015250505050565b6000601f19601f8301169050919050565b600061237e8261231c565b6123888185612327565b9350612398818560208601612338565b6123a181612362565b840191505092915050565b600060208201905081810360008301526123c68184612373565b905092915050565b600073ffffffffffffffffffffffffffffffffffffffff82169050919050565b60006123f9826123ce565b9050919050565b612409816123ee565b811461241457600080fd5b50565b60008135905061242681612400565b92915050565b6000819050919050565b61243f8161242c565b811461244a57600080fd5b50565b60008135905061245c81612436565b92915050565b600080604083850312156124795761247861225c565b5b600061248785828601612417565b92505060206124988582860161244d565b9150509250929050565b6124ab8161242c565b82525050565b60006020820190506124c660008301846124a2565b92915050565b6000806000606084860312156124e5576124e461225c565b5b60006124f386828701612417565b935050602061250486828701612417565b92505060406125158682870161244d565b9150509250925092565b6000819050919050565b6125328161251f565b811461253d57600080fd5b50565b60008135905061254f81612529565b92915050565b60006020828403121561256b5761256a61225c565b5b600061257984828501612540565b91505092915050565b61258b8161251f565b82525050565b60006020820190506125a66000830184612582565b92915050565b6000602082840312156125c2576125c161225c565b5b60006125d08482850161244d565b91505092915050565b600080604083850312156125f0576125ef61225c565b5b60006125fe85828601612540565b925050602061260f85828601612417565b9150509250929050565b600060ff82169050919050565b61262f81612619565b82525050565b600060208201905061264a6000830184612626565b92915050565b6000602082840312156126665761266561225c565b5b600061267484828501612417565b91505092915050565b6000819050919050565b60006126a261269d612698846123ce565b61267d565b6123ce565b9050919050565b60006126b482612687565b9050919050565b60006126c6826126a9565b9050919050565b6126d6816126bb565b82525050565b60006020820190506126f160008301846126cd565b92915050565b6000806000606084860312156127105761270f61225c565b5b600061271e8682870161244d565b935050602061272f86828701612417565b92505060406127408682870161244d565b9150509250925092565b600080604083850312156127615761276061225c565b5b600061276f85828601612417565b925050602061278085828601612417565b9150509250929050565b7f4e487b7100000000000000000000000000000000000000000000000000000000600052602260045260246000fd5b600060028204905060018216806127d157607f821691505b6020821081036127e4576127e361278a565b5b50919050565b7f416d6f756e74206d7573742062652067726561746572207468616e2030000000600082015250565b6000612820601d83612327565b915061282b826127ea565b602082019050919050565b6000602082019050818103600083015261284f81612813565b9050919050565b7f496e73756666696369656e742062616c616e6365000000000000000000000000600082015250565b600061288c601483612327565b915061289782612856565b602082019050919050565b600060208201905081810360008301526128bb8161287f565b9050919050565b7f4d75737420756e7374616b6520736f6d65204554480000000000000000000000600082015250565b60006128f8601583612327565b9150612903826128c2565b602082019050919050565b60006020820190508181036000830152612927816128eb565b9050919050565b600081905092915050565b50565b600061294960008361292e565b915061295482612939565b600082019050919050565b600061296a8261293c565b9150819050919050565b7f5472616e73666572206661696c65640000000000000000000000000000000000600082015250565b60006129aa600f83612327565b91506129b582612974565b602082019050919050565b600060208201905081810360008301526129d98161299d565b9050919050565b7f416363657373436f6e74726f6c3a2063616e206f6e6c792072656e6f756e636560008201527f20726f6c657320666f722073656c660000000000000000000000000000000000602082015250565b6000612a3c602f83612327565b9150612a47826129e0565b604082019050919050565b60006020820190508181036000830152612a6b81612a2f565b9050919050565b7f4e487b7100000000000000000000000000000000000000000000000000000000600052601160045260246000fd5b6000612aac8261242c565b9150612ab78361242c565b9250828201905080821115612acf57612ace612a72565b5b92915050565b7f4d757374207374616b6520736f6d652045544800000000000000000000000000600082015250565b6000612b0b601383612327565b9150612b1682612ad5565b602082019050919050565b60006020820190508181036000830152612b3a81612afe565b9050919050565b7f45524332303a2064656372656173656420616c6c6f77616e63652062656c6f7760008201527f207a65726f000000000000000000000000000000000000000000000000000000602082015250565b6000612b9d602583612327565b9150612ba882612b41565b604082019050919050565b60006020820190508181036000830152612bcc81612b90565b9050919050565b6000819050919050565b6000612bf8612bf3612bee84612bd3565b61267d565b61242c565b9050919050565b612c0881612bdd565b82525050565b6000602082019050612c236000830184612bff565b92915050565b7f50726f6a65637420616c7265616479206d696e74656400000000000000000000600082015250565b6000612c5f601683612327565b9150612c6a82612c29565b602082019050919050565b60006020820190508181036000830152612c8e81612c52565b9050919050565b60038110612ca257600080fd5b50565b600081519050612cb481612c95565b92915050565b600060208284031215612cd057612ccf61225c565b5b6000612cde84828501612ca5565b91505092915050565b7f4e487b7100000000000000000000000000000000000000000000000000000000600052602160045260246000fd5b7f50726f6a656374206e6f74207665726966696564000000000000000000000000600082015250565b6000612d4c601483612327565b9150612d5782612d16565b602082019050919050565b60006020820190508181036000830152612d7b81612d3f565b9050919050565b7f45524332303a20617070726f76652066726f6d20746865207a65726f2061646460008201527f7265737300000000000000000000000000000000000000000000000000000000602082015250565b6000612dde602483612327565b9150612de982612d82565b604082019050919050565b60006020820190508181036000830152612e0d81612dd1565b9050919050565b7f45524332303a20617070726f766520746f20746865207a65726f20616464726560008201527f7373000000000000000000000000000000000000000000000000000000000000602082015250565b6000612e70602283612327565b9150612e7b82612e14565b604082019050919050565b60006020820190508181036000830152612e9f81612e63565b9050919050565b7f45524332303a20696e73756666696369656e7420616c6c6f77616e6365000000600082015250565b6000612edc601d83612327565b9150612ee782612ea6565b602082019050919050565b60006020820190508181036000830152612f0b81612ecf565b9050919050565b7f45524332303a207472616e736665722066726f6d20746865207a65726f20616460008201527f6472657373000000000000000000000000000000000000000000000000000000602082015250565b6000612f6e602583612327565b9150612f7982612f12565b604082019050919050565b60006020820190508181036000830152612f9d81612f61565b9050919050565b7f45524332303a207472616e7366657220746f20746865207a65726f206164647260008201527f6573730000000000000000000000000000000000000000000000000000000000602082015250565b6000613000602383612327565b915061300b82612fa4565b604082019050919050565b6000602082019050818103600083015261302f81612ff3565b9050919050565b7f45524332303a207472616e7366657220616d6f756e742065786365656473206260008201527f616c616e63650000000000000000000000000000000000000000000000000000602082015250565b6000613092602683612327565b915061309d82613036565b604082019050919050565b600060208201905081810360008301526130c181613085565b9050919050565b7f5061757361626c653a2070617573656400000000000000000000000000000000600082015250565b60006130fe601083612327565b9150613109826130c8565b602082019050919050565b6000602082019050818103600083015261312d816130f1565b9050919050565b7f45524332303a206275726e2066726f6d20746865207a65726f2061646472657360008201527f7300000000000000000000000000000000000000000000000000000000000000602082015250565b6000613190602183612327565b915061319b82613134565b604082019050919050565b600060208201905081810360008301526131bf81613183565b9050919050565b7f45524332303a206275726e20616d6f756e7420657863656564732062616c616e60008201527f6365000000000000000000000000000000000000000000000000000000000000602082015250565b6000613222602283612327565b915061322d826131c6565b604082019050919050565b6000602082019050818103600083015261325181613215565b9050919050565b613261816123ee565b82525050565b600060208201905061327c6000830184613258565b92915050565b7f45524332303a206d696e7420746f20746865207a65726f206164647265737300600082015250565b60006132b8601f83612327565b91506132c382613282565b602082019050919050565b600060208201905081810360008301526132e7816132ab565b9050919050565b600081905092915050565b7f416363657373436f6e74726f6c3a206163636f756e7420000000000000000000600082015250565b600061332f6017836132ee565b915061333a826132f9565b601782019050919050565b60006133508261231c565b61335a81856132ee565b935061336a818560208601612338565b80840191505092915050565b7f206973206d697373696e6720726f6c6520000000000000000000000000000000600082015250565b60006133ac6011836132ee565b91506133b782613376565b601182019050919050565b60006133cd82613322565b91506133d98285613345565b91506133e48261339f565b91506133f08284613345565b91508190509392505050565b7f5061757361626c653a206e6f7420706175736564000000000000000000000000600082015250565b6000613432601483612327565b915061343d826133fc565b602082019050919050565b6000602082019050818103600083015261346181613425565b9050919050565b60006134738261242c565b915061347e8361242c565b925082820261348c8161242c565b915082820484148315176134a3576134a2612a72565b5b5092915050565b7f4e487b7100000000000000000000000000000000000000000000000000000000600052604160045260246000fd5b7f4e487b7100000000000000000000000000000000000000000000000000000000600052603260045260246000fd5b60006135138261242c565b91506000820361352657613525612a72565b5b600182039050919050565b7f537472696e67733a20686578206c656e67746820696e73756666696369656e74600082015250565b6000613567602083612327565b915061357282613531565b602082019050919050565b600060208201905081810360008301526135968161355a565b905091905056fea2646970667358221220c8225e943f83aecbf825aac8e7b79da5622da5d7f4ebee37be35bdebde0b69c764736f6c63430008140033",
  "linkReferences": {},
  "deployedLinkReferences": {}
}