{
  "_format": "hh-sol-artifact-1",
  "contractName": "ProjectManager",
  "sourceName": "contracts/ProjectManager.sol",
  "abi": [
    {
      "inputs": [
        {
          "internalType": "address",
          "name": "_projectNFT",
          "type": "address"
        },
        {
          "internalType": "address",
          "name": "_carbonToken",
          "type": "address"
        }
      ],
      "stateMutability": "nonpayable",
      "type": "constructor"
    },
    {
      "anonymous": false,
      "inputs": [
        {
          "indexed": false,
          "internalType": "address",
          "name": "account",
          "type": "address"
        }
      ],
      "name": "Paused",
      "type": "event"
    },
    {
      "anonymous": false,
      "inputs": [
        {
          "indexed": true,
          "internalType": "address",
          "name": "projectOwner",
          "type": "address"
        },
        {
          "indexed": false,
          "internalType": "uint256",
          "name": "amount",
          "type": "uint256"
        }
      ],
      "name": "ProjectOwnerStaked",
      "type": "event"
    },
    {
      "anonymous": false,
      "inputs": [
        {
          "indexed": true,
          "internalType": "uint256",
          "name": "projectId",
          "type": "uint256"
        },
        {
          "indexed": true,
          "internalType": "address",
          "name": "owner",
          "type": "address"
        },
        {
          "indexed": false,
          "internalType": "string",
          "name": "metadataURI",
          "type": "string"
        }
      ],
      "name": "ProjectRegistered",
      "type": "event"
    },
    {
      "anonymous": false,
      "inputs": [
        {
          "indexed": true,
          "internalType": "uint256",
          "name": "projectId",
          "type": "uint256"
        },
        {
          "indexed": true,
          "internalType": "address",
          "name": "validator",
          "type": "address"
        }
      ],
      "name": "ProjectValidated",
      "type": "event"
    },
    {
      "anonymous": false,
      "inputs": [
        {
          "indexed": true,
          "internalType": "bytes32",
          "name": "role",
          "type": "bytes32"
        },
        {
          "indexed": true,
          "internalType": "bytes32",
          "name": "previousAdminRole",
          "type": "bytes32"
        },
        {
          "indexed": true,
          "internalType": "bytes32",
          "name": "newAdminRole",
          "type": "bytes32"
        }
      ],
      "name": "RoleAdminChanged",
      "type": "event"
    },
    {
      "anonymous": false,
      "inputs": [
        {
          "indexed": true,
          "internalType": "bytes32",
          "name": "role",
          "type": "bytes32"
        },
        {
          "indexed": true,
          "internalType": "address",
          "name": "account",
          "type": "address"
        },
        {
          "indexed": true,
          "internalType": "address",
          "name": "sender",
          "type": "address"
        }
      ],
      "name": "RoleGranted",
      "type": "event"
    },
    {
      "anonymous": false,
      "inputs": [
        {
          "indexed": true,
          "internalType": "bytes32",
          "name": "role",
          "type": "bytes32"
        },
        {
          "indexed": true,
          "internalType": "address",
          "name": "account",
          "type": "address"
        },
        {
          "indexed": true,
          "internalType": "address",
          "name": "sender",
          "type": "address"
        }
      ],
      "name": "RoleRevoked",
      "type": "event"
    },
    {
      "anonymous": false,
      "inputs": [
        {
          "indexed": true,
          "internalType": "address",
          "name": "staker",
          "type": "address"
        },
        {
          "indexed": false,
          "internalType": "uint256",
          "name": "amount",
          "type": "uint256"
        }
      ],
      "name": "StakeWithdrawn",
      "type": "event"
    },
    {
      "anonymous": false,
      "inputs": [
        {
          "indexed": false,
          "internalType": "address",
          "name": "account",
          "type": "address"
        }
      ],
      "name": "Unpaused",
      "type": "event"
    },
    {
      "anonymous": false,
      "inputs": [
        {
          "indexed": true,
          "internalType": "address",
          "name": "validator",
          "type": "address"
        },
        {
          "indexed": false,
          "internalType": "uint256",
          "name": "amount",
          "type": "uint256"
        }
      ],
      "name": "ValidatorStaked",
      "type": "event"
    },
    {
      "inputs": [],
      "name": "DEFAULT_ADMIN_ROLE",
      "outputs": [
        {
          "internalType": "bytes32",
          "name": "",
          "type": "bytes32"
        }
      ],
      "stateMutability": "view",
      "type": "function"
    },
    {
      "inputs": [],
      "name": "PROJECT_OWNER_ROLE",
      "outputs": [
        {
          "internalType": "bytes32",
          "name": "",
          "type": "bytes32"
        }
      ],
      "stateMutability": "view",
      "type": "function"
    },
    {
      "inputs": [],
      "name": "PROJECT_OWNER_STAKE_AMOUNT",
      "outputs": [
        {
          "internalType": "uint256",
          "name": "",
          "type": "uint256"
        }
      ],
      "stateMutability": "view",
      "type": "function"
    },
    {
      "inputs": [],
      "name": "VALIDATOR_ROLE",
      "outputs": [
        {
          "internalType": "bytes32",
          "name": "",
          "type": "bytes32"
        }
      ],
      "stateMutability": "view",
      "type": "function"
    },
    {
      "inputs": [],
      "name": "VALIDATOR_STAKE_AMOUNT",
      "outputs": [
        {
          "internalType": "uint256",
          "name": "",
          "type": "uint256"
        }
      ],
      "stateMutability": "view",
      "type": "function"
    },
    {
      "inputs": [],
      "name": "carbonToken",
      "outputs": [
        {
          "internalType": "contract CarbonToken",
          "name": "",
          "type": "address"
        }
      ],
      "stateMutability": "view",
      "type": "function"
    },
    {
      "inputs": [
        {
          "internalType": "bytes32",
          "name": "role",
          "type": "bytes32"
        }
      ],
      "name": "getRoleAdmin",
      "outputs": [
        {
          "internalType": "bytes32",
          "name": "",
          "type": "bytes32"
        }
      ],
      "stateMutability": "view",
      "type": "function"
    },
    {
      "inputs": [
        {
          "internalType": "bytes32",
          "name": "role",
          "type": "bytes32"
        },
        {
          "internalType": "address",
          "name": "account",
          "type": "address"
        }
      ],
      "name": "grantRole",
      "outputs": [],
      "stateMutability": "nonpayable",
      "type": "function"
    },
    {
      "inputs": [
        {
          "internalType": "address",
          "name": "owner",
          "type": "address"
        }
      ],
      "name": "hasActiveProjects",
      "outputs": [
        {
          "internalType": "bool",
          "name": "",
          "type": "bool"
        }
      ],
      "stateMutability": "view",
      "type": "function"
    },
    {
      "inputs": [
        {
          "internalType": "address",
          "name": "validator",
          "type": "address"
        }
      ],
      "name": "hasActiveValidations",
      "outputs": [
        {
          "internalType": "bool",
          "name": "",
          "type": "bool"
        }
      ],
      "stateMutability": "view",
      "type": "function"
    },
    {
      "inputs": [
        {
          "internalType": "bytes32",
          "name": "role",
          "type": "bytes32"
        },
        {
          "internalType": "address",
          "name": "account",
          "type": "address"
        }
      ],
      "name": "hasRole",
      "outputs": [
        {
          "internalType": "bool",
          "name": "",
          "type": "bool"
        }
      ],
      "stateMutability": "view",
      "type": "function"
    },
    {
      "inputs": [],
      "name": "pause",
      "outputs": [],
      "stateMutability": "nonpayable",
      "type": "function"
    },
    {
      "inputs": [],
      "name": "paused",
      "outputs": [
        {
          "internalType": "bool",
          "name": "",
          "type": "bool"
        }
      ],
      "stateMutability": "view",
      "type": "function"
    },
    {
      "inputs": [],
      "name": "projectNFT",
      "outputs": [
        {
          "internalType": "contract ProjectNFT",
          "name": "",
          "type": "address"
        }
      ],
      "stateMutability": "view",
      "type": "function"
    },
    {
      "inputs": [
        {
          "internalType": "uint256",
          "name": "",
          "type": "uint256"
        }
      ],
      "name": "projectValidator",
      "outputs": [
        {
          "internalType": "address",
          "name": "",
          "type": "address"
        }
      ],
      "stateMutability": "view",
      "type": "function"
    },
    {
      "inputs": [
        {
          "internalType": "uint256",
          "name": "",
          "type": "uint256"
        }
      ],
      "name": "projects",
      "outputs": [
        {
          "internalType": "address",
          "name": "owner",
          "type": "address"
        },
        {
          "internalType": "uint256",
          "name": "expectedCredits",
          "type": "uint256"
        },
        {
          "internalType": "bool",
          "name": "isRegistered",
          "type": "bool"
        },
        {
          "internalType": "bool",
          "name": "isValidated",
          "type": "bool"
        }
      ],
      "stateMutability": "view",
      "type": "function"
    },
    {
      "inputs": [
        {
          "internalType": "string",
          "name": "metadataURI",
          "type": "string"
        },
        {
          "internalType": "uint256",
          "name": "expectedCredits",
          "type": "uint256"
        }
      ],
      "name": "registerProject",
      "outputs": [
        {
          "internalType": "uint256",
          "name": "",
          "type": "uint256"
        }
      ],
      "stateMutability": "nonpayable",
      "type": "function"
    },
    {
      "inputs": [
        {
          "internalType": "bytes32",
          "name": "role",
          "type": "bytes32"
        },
        {
          "internalType": "address",
          "name": "account",
          "type": "address"
        }
      ],
      "name": "renounceRole",
      "outputs": [],
      "stateMutability": "nonpayable",
      "type": "function"
    },
    {
      "inputs": [
        {
          "internalType": "bytes32",
          "name": "role",
          "type": "bytes32"
        },
        {
          "internalType": "address",
          "name": "account",
          "type": "address"
        }
      ],
      "name": "revokeRole",
      "outputs": [],
      "stateMutability": "nonpayable",
      "type": "function"
    },
    {
      "inputs": [],
      "name": "stakeAsProjectOwner",
      "outputs": [],
      "stateMutability": "payable",
      "type": "function"
    },
    {
      "inputs": [],
      "name": "stakeAsValidator",
      "outputs": [],
      "stateMutability": "payable",
      "type": "function"
    },
    {
      "inputs": [
        {
          "internalType": "address",
          "name": "",
          "type": "address"
        }
      ],
      "name": "stakedAmount",
      "outputs": [
        {
          "internalType": "uint256",
          "name": "",
          "type": "uint256"
        }
      ],
      "stateMutability": "view",
      "type": "function"
    },
    {
      "inputs": [
        {
          "internalType": "bytes4",
          "name": "interfaceId",
          "type": "bytes4"
        }
      ],
      "name": "supportsInterface",
      "outputs": [
        {
          "internalType": "bool",
          "name": "",
          "type": "bool"
        }
      ],
      "stateMutability": "view",
      "type": "function"
    },
    {
      "inputs": [],
      "name": "unpause",
      "outputs": [],
      "stateMutability": "nonpayable",
      "type": "function"
    },
    {
      "inputs": [
        {
          "internalType": "uint256",
          "name": "projectId",
          "type": "uint256"
        }
      ],
      "name": "validateProject",
      "outputs": [],
      "stateMutability": "nonpayable",
      "type": "function"
    },
    {
      "inputs": [],
      "name": "withdrawStake",
      "outputs": [],
      "stateMutability": "nonpayable",
      "type": "function"
    }
  ],
  "bytecode": "0x60806040523480156200001157600080fd5b5060405162002e2c38038062002e2c8339818101604052810190620000379190620002d3565b6000600160006101000a81548160ff021916908315150217905550620000676000801b33620000f060201b60201c565b816001806101000a81548173ffffffffffffffffffffffffffffffffffffffff021916908373ffffffffffffffffffffffffffffffffffffffff16021790555080600260006101000a81548173ffffffffffffffffffffffffffffffffffffffff021916908373ffffffffffffffffffffffffffffffffffffffff16021790555050506200031a565b6200010282826200010660201b60201c565b5050565b620001188282620001f760201b60201c565b620001f357600160008084815260200190815260200160002060000160008373ffffffffffffffffffffffffffffffffffffffff1673ffffffffffffffffffffffffffffffffffffffff16815260200190815260200160002060006101000a81548160ff021916908315150217905550620001986200026160201b60201c565b73ffffffffffffffffffffffffffffffffffffffff168173ffffffffffffffffffffffffffffffffffffffff16837f2f8788117e7eff1d82e926ec794901d17c78024a50270940304540a733656f0d60405160405180910390a45b5050565b600080600084815260200190815260200160002060000160008373ffffffffffffffffffffffffffffffffffffffff1673ffffffffffffffffffffffffffffffffffffffff16815260200190815260200160002060009054906101000a900460ff16905092915050565b600033905090565b600080fd5b600073ffffffffffffffffffffffffffffffffffffffff82169050919050565b60006200029b826200026e565b9050919050565b620002ad816200028e565b8114620002b957600080fd5b50565b600081519050620002cd81620002a2565b92915050565b60008060408385031215620002ed57620002ec62000269565b5b6000620002fd85828601620002bc565b92505060206200031085828601620002bc565b9150509250929050565b612b02806200032a6000396000f3fe6080604052600436106101815760003560e01c806382a71ef2116100d1578063bed9d8611161008a578063dad64ff511610064578063dad64ff514610554578063e45bf1991461055e578063f26f629c1461059b578063f9931855146105c657610181565b8063bed9d861146104e9578063c49baebe14610500578063d547741f1461052b57610181565b806382a71ef2146103e95780638456cb591461041457806391d148541461042b578063a217fddf14610468578063a2fd691714610493578063be62da0e146104be57610181565b80632f2ff15d1161013e5780633ff7fc11116101185780633ff7fc111461034e578063570214691461038b5780635c975abb146103b4578063732b97fe146103df57610181565b80632f2ff15d146102e557806336568abe1461030e5780633f4ba83a1461033757610181565b806301ffc9a714610186578063107046bd146101c35780631410b909146102035780631b9a3e7014610240578063248a9ca31461026b57806328ac4637146102a8575b600080fd5b34801561019257600080fd5b506101ad60048036038101906101a89190611cc6565b610603565b6040516101ba9190611d0e565b60405180910390f35b3480156101cf57600080fd5b506101ea60048036038101906101e59190611d5f565b610615565b6040516101fa9493929190611ddc565b60405180910390f35b34801561020f57600080fd5b5061022a60048036038101906102259190611f67565b61067f565b6040516102379190611fc3565b60405180910390f35b34801561024c57600080fd5b50610255610893565b6040516102629190611fc3565b60405180910390f35b34801561027757600080fd5b50610292600480360381019061028d9190612014565b6108a0565b60405161029f9190612050565b60405180910390f35b3480156102b457600080fd5b506102cf60048036038101906102ca9190612097565b6108bf565b6040516102dc9190611d0e565b60405180910390f35b3480156102f157600080fd5b5061030c600480360381019061030791906120c4565b6108c6565b005b34801561031a57600080fd5b50610335600480360381019061033091906120c4565b6108e7565b005b34801561034357600080fd5b5061034c61096a565b005b34801561035a57600080fd5b5061037560048036038101906103709190612097565b610982565b6040516103829190611d0e565b60405180910390f35b34801561039757600080fd5b506103b260048036038101906103ad9190611d5f565b610989565b005b3480156103c057600080fd5b506103c9610d55565b6040516103d69190611d0e565b60405180910390f35b6103e7610d6c565b005b3480156103f557600080fd5b506103fe610ee6565b60405161040b9190612163565b60405180910390f35b34801561042057600080fd5b50610429610f0c565b005b34801561043757600080fd5b50610452600480360381019061044d91906120c4565b610f24565b60405161045f9190611d0e565b60405180910390f35b34801561047457600080fd5b5061047d610f8e565b60405161048a9190612050565b60405180910390f35b34801561049f57600080fd5b506104a8610f95565b6040516104b5919061219f565b60405180910390f35b3480156104ca57600080fd5b506104d3610fb9565b6040516104e09190612050565b60405180910390f35b3480156104f557600080fd5b506104fe610fdd565b005b34801561050c57600080fd5b5061051561132e565b6040516105229190612050565b60405180910390f35b34801561053757600080fd5b50610552600480360381019061054d91906120c4565b611352565b005b61055c611373565b005b34801561056a57600080fd5b5061058560048036038101906105809190611d5f565b6114ee565b60405161059291906121ba565b60405180910390f35b3480156105a757600080fd5b506105b0611521565b6040516105bd9190611fc3565b60405180910390f35b3480156105d257600080fd5b506105ed60048036038101906105e89190612097565b61152d565b6040516105fa9190611fc3565b60405180910390f35b600061060e82611545565b9050919050565b60056020528060005260406000206000915090508060000160009054906101000a900473ffffffffffffffffffffffffffffffffffffffff16908060010154908060020160009054906101000a900460ff16908060020160019054906101000a900460ff16905084565b60006106896115bf565b7f770fadb28e0e3026382976ee8b810cb0eb8666922148dd9e10b20cfb9b477ba86106b381611609565b600060018054906101000a900473ffffffffffffffffffffffffffffffffffffffff1673ffffffffffffffffffffffffffffffffffffffff1663dcbb935533876040518363ffffffff1660e01b8152600401610710929190612254565b6020604051808303816000875af115801561072f573d6000803e3d6000fd5b505050506040513d601f19601f820116820180604052508101906107539190612299565b905060405180608001604052803373ffffffffffffffffffffffffffffffffffffffff168152602001858152602001600115158152602001600015158152506005600083815260200190815260200160002060008201518160000160006101000a81548173ffffffffffffffffffffffffffffffffffffffff021916908373ffffffffffffffffffffffffffffffffffffffff1602179055506020820151816001015560408201518160020160006101000a81548160ff02191690831515021790555060608201518160020160016101000a81548160ff0219169083151502179055509050503373ffffffffffffffffffffffffffffffffffffffff16817f1fb4423aed62bba3e66f7c81a4af273642c7e8c57d7b111ae2b1aca9887869ba8760405161088091906122c6565b60405180910390a3809250505092915050565b6802b5e3af16b188000081565b6000806000838152602001908152602001600020600101549050919050565b6000919050565b6108cf826108a0565b6108d881611609565b6108e2838361161d565b505050565b6108ef6116fd565b73ffffffffffffffffffffffffffffffffffffffff168173ffffffffffffffffffffffffffffffffffffffff161461095c576040517f08c379a00000000000000000000000000000000000000000000000000000000081526004016109539061235a565b60405180910390fd5b6109668282611705565b5050565b6000801b61097781611609565b61097f6117e6565b50565b6000919050565b6109916115bf565b7f21702c8af46127c7fa207f89d0b0a8441bb32959a0ac7df790e9ab1a25c989266109bb81611609565b6005600083815260200190815260200160002060020160009054906101000a900460ff16610a1e576040517f08c379a0000000000000000000000000000000000000000000000000000000008152600401610a15906123c6565b60405180910390fd5b6005600083815260200190815260200160002060020160019054906101000a900460ff1615610a82576040517f08c379a0000000000000000000000000000000000000000000000000000000008152600401610a7990612432565b60405180910390fd5b600073ffffffffffffffffffffffffffffffffffffffff166004600084815260200190815260200160002060009054906101000a900473ffffffffffffffffffffffffffffffffffffffff1673ffffffffffffffffffffffffffffffffffffffff1614610b24576040517f08c379a0000000000000000000000000000000000000000000000000000000008152600401610b1b9061249e565b60405180910390fd5b336004600084815260200190815260200160002060006101000a81548173ffffffffffffffffffffffffffffffffffffffff021916908373ffffffffffffffffffffffffffffffffffffffff16021790555060016005600084815260200190815260200160002060020160016101000a81548160ff02191690831515021790555060018054906101000a900473ffffffffffffffffffffffffffffffffffffffff1673ffffffffffffffffffffffffffffffffffffffff1663e73a50f0836040518263ffffffff1660e01b8152600401610bfe9190611fc3565b600060405180830381600087803b158015610c1857600080fd5b505af1158015610c2c573d6000803e3d6000fd5b50505050600260009054906101000a900473ffffffffffffffffffffffffffffffffffffffff1673ffffffffffffffffffffffffffffffffffffffff1663d9c53c84836005600086815260200190815260200160002060000160009054906101000a900473ffffffffffffffffffffffffffffffffffffffff1660056000878152602001908152602001600020600101546040518463ffffffff1660e01b8152600401610cdb939291906124be565b600060405180830381600087803b158015610cf557600080fd5b505af1158015610d09573d6000803e3d6000fd5b505050503373ffffffffffffffffffffffffffffffffffffffff16827f84ffc84db0a14dc30a09c96c2dc65081ab5a1f28b1ec2543ec701b04ad161a9d60405160405180910390a35050565b6000600160009054906101000a900460ff16905090565b610d746115bf565b678ac7230489e800003414610dbe576040517f08c379a0000000000000000000000000000000000000000000000000000000008152600401610db590612541565b60405180910390fd5b610de87f770fadb28e0e3026382976ee8b810cb0eb8666922148dd9e10b20cfb9b477ba833610f24565b15610e28576040517f08c379a0000000000000000000000000000000000000000000000000000000008152600401610e1f906125ad565b60405180910390fd5b34600360003373ffffffffffffffffffffffffffffffffffffffff1673ffffffffffffffffffffffffffffffffffffffff16815260200190815260200160002081905550610e967f770fadb28e0e3026382976ee8b810cb0eb8666922148dd9e10b20cfb9b477ba833611849565b3373ffffffffffffffffffffffffffffffffffffffff167f092bb0ea98f286b67ecb12d06ed9e477b1987927596d030006babfa2c9eb057e34604051610edc9190611fc3565b60405180910390a2565b600260009054906101000a900473ffffffffffffffffffffffffffffffffffffffff1681565b6000801b610f1981611609565b610f21611857565b50565b600080600084815260200190815260200160002060000160008373ffffffffffffffffffffffffffffffffffffffff1673ffffffffffffffffffffffffffffffffffffffff16815260200190815260200160002060009054906101000a900460ff16905092915050565b6000801b81565b60018054906101000a900473ffffffffffffffffffffffffffffffffffffffff1681565b7f770fadb28e0e3026382976ee8b810cb0eb8666922148dd9e10b20cfb9b477ba881565b610fe56115bf565b6000600360003373ffffffffffffffffffffffffffffffffffffffff1673ffffffffffffffffffffffffffffffffffffffff1681526020019081526020016000205411611067576040517f08c379a000000000000000000000000000000000000000000000000000000000815260040161105e90612619565b60405180910390fd5b6110917f770fadb28e0e3026382976ee8b810cb0eb8666922148dd9e10b20cfb9b477ba833610f24565b156110e05761109f33610982565b156110df576040517f08c379a00000000000000000000000000000000000000000000000000000000081526004016110d690612685565b60405180910390fd5b5b61110a7f21702c8af46127c7fa207f89d0b0a8441bb32959a0ac7df790e9ab1a25c9892633610f24565b1561115957611118336108bf565b15611158576040517f08c379a000000000000000000000000000000000000000000000000000000000815260040161114f906126f1565b60405180910390fd5b5b6000600360003373ffffffffffffffffffffffffffffffffffffffff1673ffffffffffffffffffffffffffffffffffffffff1681526020019081526020016000205490506000600360003373ffffffffffffffffffffffffffffffffffffffff1673ffffffffffffffffffffffffffffffffffffffff1681526020019081526020016000208190555061120c7f21702c8af46127c7fa207f89d0b0a8441bb32959a0ac7df790e9ab1a25c9892633610f24565b1561123c5761123b7f21702c8af46127c7fa207f89d0b0a8441bb32959a0ac7df790e9ab1a25c9892633611352565b5b6112667f770fadb28e0e3026382976ee8b810cb0eb8666922148dd9e10b20cfb9b477ba833610f24565b15611296576112957f770fadb28e0e3026382976ee8b810cb0eb8666922148dd9e10b20cfb9b477ba833611352565b5b3373ffffffffffffffffffffffffffffffffffffffff166108fc829081150290604051600060405180830381858888f193505050501580156112dc573d6000803e3d6000fd5b503373ffffffffffffffffffffffffffffffffffffffff167f8108595eb6bad3acefa9da467d90cc2217686d5c5ac85460f8b7849c840645fc826040516113239190611fc3565b60405180910390a250565b7f21702c8af46127c7fa207f89d0b0a8441bb32959a0ac7df790e9ab1a25c9892681565b61135b826108a0565b61136481611609565b61136e8383611705565b505050565b61137b6115bf565b6802b5e3af16b188000034146113c6576040517f08c379a00000000000000000000000000000000000000000000000000000000081526004016113bd90612541565b60405180910390fd5b6113f07f21702c8af46127c7fa207f89d0b0a8441bb32959a0ac7df790e9ab1a25c9892633610f24565b15611430576040517f08c379a00000000000000000000000000000000000000000000000000000000081526004016114279061275d565b60405180910390fd5b34600360003373ffffffffffffffffffffffffffffffffffffffff1673ffffffffffffffffffffffffffffffffffffffff1681526020019081526020016000208190555061149e7f21702c8af46127c7fa207f89d0b0a8441bb32959a0ac7df790e9ab1a25c9892633611849565b3373ffffffffffffffffffffffffffffffffffffffff167fbdf8f4c0feff7f456c5c1fd1c42716baa7ee66801a0b860872009ac945403fa0346040516114e49190611fc3565b60405180910390a2565b60046020528060005260406000206000915054906101000a900473ffffffffffffffffffffffffffffffffffffffff1681565b678ac7230489e8000081565b60036020528060005260406000206000915090505481565b60007f7965db0b000000000000000000000000000000000000000000000000000000007bffffffffffffffffffffffffffffffffffffffffffffffffffffffff1916827bffffffffffffffffffffffffffffffffffffffffffffffffffffffff191614806115b857506115b7826118b9565b5b9050919050565b6115c7610d55565b15611607576040517f08c379a00000000000000000000000000000000000000000000000000000000081526004016115fe906127c9565b60405180910390fd5b565b61161a816116156116fd565b611923565b50565b6116278282610f24565b6116f957600160008084815260200190815260200160002060000160008373ffffffffffffffffffffffffffffffffffffffff1673ffffffffffffffffffffffffffffffffffffffff16815260200190815260200160002060006101000a81548160ff02191690831515021790555061169e6116fd565b73ffffffffffffffffffffffffffffffffffffffff168173ffffffffffffffffffffffffffffffffffffffff16837f2f8788117e7eff1d82e926ec794901d17c78024a50270940304540a733656f0d60405160405180910390a45b5050565b600033905090565b61170f8282610f24565b156117e257600080600084815260200190815260200160002060000160008373ffffffffffffffffffffffffffffffffffffffff1673ffffffffffffffffffffffffffffffffffffffff16815260200190815260200160002060006101000a81548160ff0219169083151502179055506117876116fd565b73ffffffffffffffffffffffffffffffffffffffff168173ffffffffffffffffffffffffffffffffffffffff16837ff6391f5c32d9c69d2a47ea670b442974b53935d1edc7fd64eb21e047a839171b60405160405180910390a45b5050565b6117ee6119a8565b6000600160006101000a81548160ff0219169083151502179055507f5db9ee0a495bf2e6ff9c91a7834c1ba4fdd244a5e8aa4e537bd38aeae4b073aa6118326116fd565b60405161183f91906121ba565b60405180910390a1565b611853828261161d565b5050565b61185f6115bf565b60018060006101000a81548160ff0219169083151502179055507f62e78cea01bee320cd4e420270b5ea74000d11b0c9f74754ebdbfc544b05a2586118a26116fd565b6040516118af91906121ba565b60405180910390a1565b60007f01ffc9a7000000000000000000000000000000000000000000000000000000007bffffffffffffffffffffffffffffffffffffffffffffffffffffffff1916827bffffffffffffffffffffffffffffffffffffffffffffffffffffffff1916149050919050565b61192d8282610f24565b6119a45761193a816119f1565b6119488360001c6020611a1e565b6040516020016119599291906128bd565b6040516020818303038152906040526040517f08c379a000000000000000000000000000000000000000000000000000000000815260040161199b91906122c6565b60405180910390fd5b5050565b6119b0610d55565b6119ef576040517f08c379a00000000000000000000000000000000000000000000000000000000081526004016119e690612943565b60405180910390fd5b565b6060611a178273ffffffffffffffffffffffffffffffffffffffff16601460ff16611a1e565b9050919050565b606060006002836002611a319190612992565b611a3b91906129d4565b67ffffffffffffffff811115611a5457611a53611e3c565b5b6040519080825280601f01601f191660200182016040528015611a865781602001600182028036833780820191505090505b5090507f300000000000000000000000000000000000000000000000000000000000000081600081518110611abe57611abd612a08565b5b60200101907effffffffffffffffffffffffffffffffffffffffffffffffffffffffffffff1916908160001a9053507f780000000000000000000000000000000000000000000000000000000000000081600181518110611b2257611b21612a08565b5b60200101907effffffffffffffffffffffffffffffffffffffffffffffffffffffffffffff1916908160001a90535060006001846002611b629190612992565b611b6c91906129d4565b90505b6001811115611c0c577f3031323334353637383961626364656600000000000000000000000000000000600f861660108110611bae57611bad612a08565b5b1a60f81b828281518110611bc557611bc4612a08565b5b60200101907effffffffffffffffffffffffffffffffffffffffffffffffffffffffffffff1916908160001a905350600485901c945080611c0590612a37565b9050611b6f565b5060008414611c50576040517f08c379a0000000000000000000000000000000000000000000000000000000008152600401611c4790612aac565b60405180910390fd5b8091505092915050565b6000604051905090565b600080fd5b600080fd5b60007fffffffff0000000000000000000000000000000000000000000000000000000082169050919050565b611ca381611c6e565b8114611cae57600080fd5b50565b600081359050611cc081611c9a565b92915050565b600060208284031215611cdc57611cdb611c64565b5b6000611cea84828501611cb1565b91505092915050565b60008115159050919050565b611d0881611cf3565b82525050565b6000602082019050611d236000830184611cff565b92915050565b6000819050919050565b611d3c81611d29565b8114611d4757600080fd5b50565b600081359050611d5981611d33565b92915050565b600060208284031215611d7557611d74611c64565b5b6000611d8384828501611d4a565b91505092915050565b600073ffffffffffffffffffffffffffffffffffffffff82169050919050565b6000611db782611d8c565b9050919050565b611dc781611dac565b82525050565b611dd681611d29565b82525050565b6000608082019050611df16000830187611dbe565b611dfe6020830186611dcd565b611e0b6040830185611cff565b611e186060830184611cff565b95945050505050565b600080fd5b600080fd5b6000601f19601f8301169050919050565b7f4e487b7100000000000000000000000000000000000000000000000000000000600052604160045260246000fd5b611e7482611e2b565b810181811067ffffffffffffffff82111715611e9357611e92611e3c565b5b80604052505050565b6000611ea6611c5a565b9050611eb28282611e6b565b919050565b600067ffffffffffffffff821115611ed257611ed1611e3c565b5b611edb82611e2b565b9050602081019050919050565b82818337600083830152505050565b6000611f0a611f0584611eb7565b611e9c565b905082815260208101848484011115611f2657611f25611e26565b5b611f31848285611ee8565b509392505050565b600082601f830112611f4e57611f4d611e21565b5b8135611f5e848260208601611ef7565b91505092915050565b60008060408385031215611f7e57611f7d611c64565b5b600083013567ffffffffffffffff811115611f9c57611f9b611c69565b5b611fa885828601611f39565b9250506020611fb985828601611d4a565b9150509250929050565b6000602082019050611fd86000830184611dcd565b92915050565b6000819050919050565b611ff181611fde565b8114611ffc57600080fd5b50565b60008135905061200e81611fe8565b92915050565b60006020828403121561202a57612029611c64565b5b600061203884828501611fff565b91505092915050565b61204a81611fde565b82525050565b60006020820190506120656000830184612041565b92915050565b61207481611dac565b811461207f57600080fd5b50565b6000813590506120918161206b565b92915050565b6000602082840312156120ad576120ac611c64565b5b60006120bb84828501612082565b91505092915050565b600080604083850312156120db576120da611c64565b5b60006120e985828601611fff565b92505060206120fa85828601612082565b9150509250929050565b6000819050919050565b600061212961212461211f84611d8c565b612104565b611d8c565b9050919050565b600061213b8261210e565b9050919050565b600061214d82612130565b9050919050565b61215d81612142565b82525050565b60006020820190506121786000830184612154565b92915050565b600061218982612130565b9050919050565b6121998161217e565b82525050565b60006020820190506121b46000830184612190565b92915050565b60006020820190506121cf6000830184611dbe565b92915050565b600081519050919050565b600082825260208201905092915050565b60005b8381101561220f5780820151818401526020810190506121f4565b60008484015250505050565b6000612226826121d5565b61223081856121e0565b93506122408185602086016121f1565b61224981611e2b565b840191505092915050565b60006040820190506122696000830185611dbe565b818103602083015261227b818461221b565b90509392505050565b60008151905061229381611d33565b92915050565b6000602082840312156122af576122ae611c64565b5b60006122bd84828501612284565b91505092915050565b600060208201905081810360008301526122e0818461221b565b905092915050565b7f416363657373436f6e74726f6c3a2063616e206f6e6c792072656e6f756e636560008201527f20726f6c657320666f722073656c660000000000000000000000000000000000602082015250565b6000612344602f836121e0565b915061234f826122e8565b604082019050919050565b6000602082019050818103600083015261237381612337565b9050919050565b7f50726f6a656374206e6f74207265676973746572656400000000000000000000600082015250565b60006123b06016836121e0565b91506123bb8261237a565b602082019050919050565b600060208201905081810360008301526123df816123a3565b9050919050565b7f50726f6a65637420616c72656164792076616c69646174656400000000000000600082015250565b600061241c6019836121e0565b9150612427826123e6565b602082019050919050565b6000602082019050818103600083015261244b8161240f565b9050919050565b7f56616c696461746f7220616c72656164792061737369676e6564000000000000600082015250565b6000612488601a836121e0565b915061249382612452565b602082019050919050565b600060208201905081810360008301526124b78161247b565b9050919050565b60006060820190506124d36000830186611dcd565b6124e06020830185611dbe565b6124ed6040830184611dcd565b949350505050565b7f496e636f7272656374207374616b6520616d6f756e7400000000000000000000600082015250565b600061252b6016836121e0565b9150612536826124f5565b602082019050919050565b6000602082019050818103600083015261255a8161251e565b9050919050565b7f416c726561647920612070726f6a656374206f776e6572000000000000000000600082015250565b60006125976017836121e0565b91506125a282612561565b602082019050919050565b600060208201905081810360008301526125c68161258a565b9050919050565b7f4e6f207374616b6520746f207769746864726177000000000000000000000000600082015250565b60006126036014836121e0565b915061260e826125cd565b602082019050919050565b60006020820190508181036000830152612632816125f6565b9050919050565b7f486173206163746976652070726f6a6563747300000000000000000000000000600082015250565b600061266f6013836121e0565b915061267a82612639565b602082019050919050565b6000602082019050818103600083015261269e81612662565b9050919050565b7f486173206163746976652076616c69646174696f6e7300000000000000000000600082015250565b60006126db6016836121e0565b91506126e6826126a5565b602082019050919050565b6000602082019050818103600083015261270a816126ce565b9050919050565b7f416c726561647920612076616c696461746f7200000000000000000000000000600082015250565b60006127476013836121e0565b915061275282612711565b602082019050919050565b600060208201905081810360008301526127768161273a565b9050919050565b7f5061757361626c653a2070617573656400000000000000000000000000000000600082015250565b60006127b36010836121e0565b91506127be8261277d565b602082019050919050565b600060208201905081810360008301526127e2816127a6565b9050919050565b600081905092915050565b7f416363657373436f6e74726f6c3a206163636f756e7420000000000000000000600082015250565b600061282a6017836127e9565b9150612835826127f4565b601782019050919050565b600061284b826121d5565b61285581856127e9565b93506128658185602086016121f1565b80840191505092915050565b7f206973206d697373696e6720726f6c6520000000000000000000000000000000600082015250565b60006128a76011836127e9565b91506128b282612871565b601182019050919050565b60006128c88261281d565b91506128d48285612840565b91506128df8261289a565b91506128eb8284612840565b91508190509392505050565b7f5061757361626c653a206e6f7420706175736564000000000000000000000000600082015250565b600061292d6014836121e0565b9150612938826128f7565b602082019050919050565b6000602082019050818103600083015261295c81612920565b9050919050565b7f4e487b7100000000000000000000000000000000000000000000000000000000600052601160045260246000fd5b600061299d82611d29565b91506129a883611d29565b92508282026129b681611d29565b915082820484148315176129cd576129cc612963565b5b5092915050565b60006129df82611d29565b91506129ea83611d29565b9250828201905080821115612a0257612a01612963565b5b92915050565b7f4e487b7100000000000000000000000000000000000000000000000000000000600052603260045260246000fd5b6000612a4282611d29565b915060008203612a5557612a54612963565b5b600182039050919050565b7f537472696e67733a20686578206c656e67746820696e73756666696369656e74600082015250565b6000612a966020836121e0565b9150612aa182612a60565b602082019050919050565b60006020820190508181036000830152612ac581612a89565b905091905056fea26469706673582212208f51f4cb663ef64c8b0355b28c0224a5f996700a24f18cc605bd79111fa93db464736f6c63430008140033",
  "linkReferences": {},
  "deployedLinkReferences": {}
}