{
  "contractName": "CarbonCreditSystem",
  "abi": [
    {
      "inputs": [
        {
          "internalType": "contract CarbonCreditToken",
          "name": "_token",
          "type": "address"
        }
      ],
      "stateMutability": "nonpayable",
      "type": "constructor"
    },
    {
      "anonymous": false,
      "inputs": [
        {
          "indexed": true,
          "internalType": "uint256",
          "name": "projectId",
          "type": "uint256"
        },
        {
          "indexed": true,
          "internalType": "address",
          "name": "owner",
          "type": "address"
        },
        {
          "indexed": false,
          "internalType": "string",
          "name": "metadataURI",
          "type": "string"
        }
      ],
      "name": "ProjectCreated",
      "type": "event"
    },
    {
      "anonymous": false,
      "inputs": [
        {
          "indexed": true,
          "internalType": "uint256",
          "name": "projectId",
          "type": "uint256"
        },
        {
          "indexed": false,
          "internalType": "string",
          "name": "metadataURI",
          "type": "string"
        }
      ],
      "name": "ProjectUpdated",
      "type": "event"
    },
    {
      "anonymous": false,
      "inputs": [
        {
          "indexed": true,
          "internalType": "bytes32",
          "name": "role",
          "type": "bytes32"
        },
        {
          "indexed": true,
          "internalType": "bytes32",
          "name": "previousAdminRole",
          "type": "bytes32"
        },
        {
          "indexed": true,
          "internalType": "bytes32",
          "name": "newAdminRole",
          "type": "bytes32"
        }
      ],
      "name": "RoleAdminChanged",
      "type": "event"
    },
    {
      "anonymous": false,
      "inputs": [
        {
          "indexed": true,
          "internalType": "bytes32",
          "name": "role",
          "type": "bytes32"
        },
        {
          "indexed": true,
          "internalType": "address",
          "name": "account",
          "type": "address"
        },
        {
          "indexed": true,
          "internalType": "address",
          "name": "sender",
          "type": "address"
        }
      ],
      "name": "RoleGranted",
      "type": "event"
    },
    {
      "anonymous": false,
      "inputs": [
        {
          "indexed": true,
          "internalType": "bytes32",
          "name": "role",
          "type": "bytes32"
        },
        {
          "indexed": true,
          "internalType": "address",
          "name": "account",
          "type": "address"
        },
        {
          "indexed": true,
          "internalType": "address",
          "name": "sender",
          "type": "address"
        }
      ],
      "name": "RoleRevoked",
      "type": "event"
    },
    {
      "anonymous": false,
      "inputs": [
        {
          "indexed": true,
          "internalType": "uint256",
          "name": "projectId",
          "type": "uint256"
        },
        {
          "indexed": false,
          "internalType": "uint256",
          "name": "finalCredits",
          "type": "uint256"
        }
      ],
      "name": "ValidationFinalized",
      "type": "event"
    },
    {
      "anonymous": false,
      "inputs": [
        {
          "indexed": true,
          "internalType": "uint256",
          "name": "projectId",
          "type": "uint256"
        }
      ],
      "name": "ValidationRequested",
      "type": "event"
    },
    {
      "anonymous": false,
      "inputs": [
        {
          "indexed": true,
          "internalType": "address",
          "name": "validator",
          "type": "address"
        },
        {
          "indexed": false,
          "internalType": "uint256",
          "name": "initialStake",
          "type": "uint256"
        }
      ],
      "name": "ValidatorAdded",
      "type": "event"
    },
    {
      "anonymous": false,
      "inputs": [
        {
          "indexed": true,
          "internalType": "uint256",
          "name": "projectId",
          "type": "uint256"
        },
        {
          "indexed": true,
          "internalType": "address",
          "name": "validator",
          "type": "address"
        },
        {
          "indexed": false,
          "internalType": "uint256",
          "name": "credits",
          "type": "uint256"
        }
      ],
      "name": "ValidatorResponded",
      "type": "event"
    },
    {
      "anonymous": false,
      "inputs": [
        {
          "indexed": true,
          "internalType": "address",
          "name": "validator",
          "type": "address"
        },
        {
          "indexed": false,
          "internalType": "uint256",
          "name": "amountSlashed",
          "type": "uint256"
        },
        {
          "indexed": false,
          "internalType": "uint256",
          "name": "newCredibility",
          "type": "uint256"
        }
      ],
      "name": "ValidatorSlashed",
      "type": "event"
    },
    {
      "inputs": [],
      "name": "DEFAULT_ADMIN_ROLE",
      "outputs": [
        {
          "internalType": "bytes32",
          "name": "",
          "type": "bytes32"
        }
      ],
      "stateMutability": "view",
      "type": "function",
      "constant": true
    },
    {
      "inputs": [],
      "name": "VALIDATOR_ROLE",
      "outputs": [
        {
          "internalType": "bytes32",
          "name": "",
          "type": "bytes32"
        }
      ],
      "stateMutability": "view",
      "type": "function",
      "constant": true
    },
    {
      "inputs": [],
      "name": "admin",
      "outputs": [
        {
          "internalType": "address payable",
          "name": "",
          "type": "address"
        }
      ],
      "stateMutability": "view",
      "type": "function",
      "constant": true
    },
    {
      "inputs": [],
      "name": "creditToken",
      "outputs": [
        {
          "internalType": "contract CarbonCreditToken",
          "name": "",
          "type": "address"
        }
      ],
      "stateMutability": "view",
      "type": "function",
      "constant": true
    },
    {
      "inputs": [
        {
          "internalType": "bytes32",
          "name": "role",
          "type": "bytes32"
        }
      ],
      "name": "getRoleAdmin",
      "outputs": [
        {
          "internalType": "bytes32",
          "name": "",
          "type": "bytes32"
        }
      ],
      "stateMutability": "view",
      "type": "function",
      "constant": true
    },
    {
      "inputs": [
        {
          "internalType": "bytes32",
          "name": "role",
          "type": "bytes32"
        },
        {
          "internalType": "address",
          "name": "account",
          "type": "address"
        }
      ],
      "name": "grantRole",
      "outputs": [],
      "stateMutability": "nonpayable",
      "type": "function"
    },
    {
      "inputs": [
        {
          "internalType": "bytes32",
          "name": "role",
          "type": "bytes32"
        },
        {
          "internalType": "address",
          "name": "account",
          "type": "address"
        }
      ],
      "name": "hasRole",
      "outputs": [
        {
          "internalType": "bool",
          "name": "",
          "type": "bool"
        }
      ],
      "stateMutability": "view",
      "type": "function",
      "constant": true
    },
    {
      "inputs": [
        {
          "internalType": "uint256",
          "name": "",
          "type": "uint256"
        }
      ],
      "name": "projects",
      "outputs": [
        {
          "internalType": "address",
          "name": "owner",
          "type": "address"
        },
        {
          "internalType": "enum CarbonCreditSystem.Status",
          "name": "status",
          "type": "uint8"
        },
        {
          "internalType": "string",
          "name": "metadataURI",
          "type": "string"
        }
      ],
      "stateMutability": "view",
      "type": "function",
      "constant": true
    },
    {
      "inputs": [
        {
          "internalType": "bytes32",
          "name": "role",
          "type": "bytes32"
        },
        {
          "internalType": "address",
          "name": "account",
          "type": "address"
        }
      ],
      "name": "renounceRole",
      "outputs": [],
      "stateMutability": "nonpayable",
      "type": "function"
    },
    {
      "inputs": [
        {
          "internalType": "uint256",
          "name": "",
          "type": "uint256"
        },
        {
          "internalType": "uint256",
          "name": "",
          "type": "uint256"
        }
      ],
      "name": "responders",
      "outputs": [
        {
          "internalType": "address",
          "name": "",
          "type": "address"
        }
      ],
      "stateMutability": "view",
      "type": "function",
      "constant": true
    },
    {
      "inputs": [
        {
          "internalType": "uint256",
          "name": "",
          "type": "uint256"
        },
        {
          "internalType": "address",
          "name": "",
          "type": "address"
        }
      ],
      "name": "responses",
      "outputs": [
        {
          "internalType": "uint256",
          "name": "credits",
          "type": "uint256"
        },
        {
          "internalType": "bool",
          "name": "responded",
          "type": "bool"
        }
      ],
      "stateMutability": "view",
      "type": "function",
      "constant": true
    },
    {
      "inputs": [
        {
          "internalType": "bytes32",
          "name": "role",
          "type": "bytes32"
        },
        {
          "internalType": "address",
          "name": "account",
          "type": "address"
        }
      ],
      "name": "revokeRole",
      "outputs": [],
      "stateMutability": "nonpayable",
      "type": "function"
    },
    {
      "inputs": [
        {
          "internalType": "bytes4",
          "name": "interfaceId",
          "type": "bytes4"
        }
      ],
      "name": "supportsInterface",
      "outputs": [
        {
          "internalType": "bool",
          "name": "",
          "type": "bool"
        }
      ],
      "stateMutability": "view",
      "type": "function",
      "constant": true
    },
    {
      "inputs": [
        {
          "internalType": "address",
          "name": "",
          "type": "address"
        }
      ],
      "name": "validators",
      "outputs": [
        {
          "internalType": "uint256",
          "name": "stake",
          "type": "uint256"
        },
        {
          "internalType": "uint256",
          "name": "credibility",
          "type": "uint256"
        },
        {
          "internalType": "bool",
          "name": "registered",
          "type": "bool"
        }
      ],
      "stateMutability": "view",
      "type": "function",
      "constant": true
    },
    {
      "inputs": [
        {
          "internalType": "string",
          "name": "metadataURI",
          "type": "string"
        }
      ],
      "name": "createProject",
      "outputs": [
        {
          "internalType": "uint256",
          "name": "",
          "type": "uint256"
        }
      ],
      "stateMutability": "nonpayable",
      "type": "function"
    },
    {
      "inputs": [
        {
          "internalType": "uint256",
          "name": "projectId",
          "type": "uint256"
        },
        {
          "internalType": "string",
          "name": "metadataURI",
          "type": "string"
        }
      ],
      "name": "updateProject",
      "outputs": [],
      "stateMutability": "nonpayable",
      "type": "function"
    },
    {
      "inputs": [
        {
          "internalType": "uint256",
          "name": "projectId",
          "type": "uint256"
        }
      ],
      "name": "requestValidation",
      "outputs": [],
      "stateMutability": "nonpayable",
      "type": "function"
    },
    {
      "inputs": [
        {
          "internalType": "address",
          "name": "v",
          "type": "address"
        }
      ],
      "name": "addValidator",
      "outputs": [],
      "stateMutability": "payable",
      "type": "function",
      "payable": true
    },
    {
      "inputs": [],
      "name": "stake",
      "outputs": [],
      "stateMutability": "payable",
      "type": "function",
      "payable": true
    },
    {
      "inputs": [
        {
          "internalType": "uint256",
          "name": "projectId",
          "type": "uint256"
        },
        {
          "internalType": "uint256",
          "name": "credits",
          "type": "uint256"
        }
      ],
      "name": "respondValidation",
      "outputs": [],
      "stateMutability": "nonpayable",
      "type": "function"
    },
    {
      "inputs": [
        {
          "internalType": "uint256",
          "name": "projectId",
          "type": "uint256"
        }
      ],
      "name": "finalizeValidation",
      "outputs": [],
      "stateMutability": "nonpayable",
      "type": "function"
    }
  ],
  "bytecode": "0x60a060405234801561000f575f5ffd5b50604051611b02380380611b0283398101604081905261002e916100e8565b6001600160a01b0381166080526100455f3361004b565b50610115565b5f828152602081815260408083206001600160a01b038516845290915290205460ff166100e4575f828152602081815260408083206001600160a01b03851684529091529020805460ff191660011790556100a33390565b6001600160a01b0316816001600160a01b0316837f2f8788117e7eff1d82e926ec794901d17c78024a50270940304540a733656f0d60405160405180910390a45b5050565b5f602082840312156100f8575f5ffd5b81516001600160a01b038116811461010e575f5ffd5b9392505050565b6080516119ce6101345f395f81816103050152610b7d01526119ce5ff3fe608060405260043610610126575f3560e01c80634bef5ef0116100a8578063bbc3a7f31161006d578063bbc3a7f314610371578063c49baebe14610390578063d547741f146103b0578063d7e3c5d9146103cf578063f851a440146103ee578063fa52c7d81461040d575f5ffd5b80634bef5ef01461028c5780634d238c8e146102e1578063899e5d85146102f457806391d148541461033f578063a217fddf1461035e575f5ffd5b8063248a9ca3116100ee578063248a9ca3146101f95780632f2ff15d1461022757806336568abe146102465780633a4b66f1146102655780634b7987161461026d575f5ffd5b806301ffc9a71461012a57806305dc09eb1461015e578063107046bd1461017f57806311e1cf21146101ad57806315ee4df1146101cc575b5f5ffd5b348015610135575f5ffd5b50610149610144366004611411565b610467565b60405190151581526020015b60405180910390f35b348015610169575f5ffd5b5061017d610178366004611438565b61049d565b005b34801561018a575f5ffd5b5061019e610199366004611438565b610538565b60405161015593929190611491565b3480156101b8575f5ffd5b5061017d6101c73660046114dd565b6105f0565b3480156101d7575f5ffd5b506101eb6101e6366004611542565b610763565b604051908152602001610155565b348015610204575f5ffd5b506101eb610213366004611438565b5f9081526020819052604090206001015490565b348015610232575f5ffd5b5061017d61024136600461159c565b610890565b348015610251575f5ffd5b5061017d61026036600461159c565b6108b9565b61017d610937565b348015610278575f5ffd5b5061017d610287366004611438565b6109f7565b348015610297575f5ffd5b506102cc6102a636600461159c565b600460209081525f92835260408084209091529082529020805460019091015460ff1682565b60408051928352901515602083015201610155565b61017d6102ef3660046115c6565b610e5d565b3480156102ff575f5ffd5b506103277f000000000000000000000000000000000000000000000000000000000000000081565b6040516001600160a01b039091168152602001610155565b34801561034a575f5ffd5b5061014961035936600461159c565b610fc0565b348015610369575f5ffd5b506101eb5f81565b34801561037c575f5ffd5b5061017d61038b3660046115df565b610fe8565b34801561039b575f5ffd5b506101eb5f5160206119795f395f51905f5281565b3480156103bb575f5ffd5b5061017d6103ca36600461159c565b61108f565b3480156103da575f5ffd5b506103276103e93660046114dd565b6110b3565b3480156103f9575f5ffd5b50600154610327906001600160a01b031681565b348015610418575f5ffd5b5061044a6104273660046115c6565b60066020525f908152604090208054600182015460029092015490919060ff1683565b604080519384526020840192909252151590820152606001610155565b5f6001600160e01b03198216637965db0b60e01b148061049757506301ffc9a760e01b6001600160e01b03198316145b92915050565b5f81815260036020526040902080546001600160a01b031633146104f95760405162461bcd60e51b815260206004820152600e60248201526d21a1a99d102737ba1037bbb732b960911b60448201526064015b60405180910390fd5b805460ff60a01b1916600160a01b17815560405182907f2b50235b6632e3fea51ffb5420030678abc0e4b2ecf47c35bdb82f77f1a6a733905f90a25050565b60036020525f9081526040902080546001820180546001600160a01b03831693600160a01b90930460ff1692919061056f90611627565b80601f016020809104026020016040519081016040528092919081815260200182805461059b90611627565b80156105e65780601f106105bd576101008083540402835291602001916105e6565b820191905f5260205f20905b8154815290600101906020018083116105c957829003601f168201915b5050505050905083565b5f5160206119795f395f51905f52610607816110e7565b5f83815260036020526040902060018154600160a01b900460ff1660028111156106335761063361144f565b146106785760405162461bcd60e51b81526020600482015260156024820152744343533a204e6f7420756e6465722072657669657760581b60448201526064016104f0565b5f8481526004602090815260408083203384529091529020600181015460ff16156106de5760405162461bcd60e51b815260206004820152601660248201527510d0d4ce88105b1c9958591e481c995cdc1bdb99195960521b60448201526064016104f0565b8381556001808201805460ff1916821790555f868152600560209081526040808320805494850181558352912090910180546001600160a01b03191633908117909155905186907f0b6814a90a14810c09a6e289d7627bbb0efe1a790207c0a6e62d630f19fd3e2c906107549088815260200190565b60405180910390a35050505050565b5f610772600280546001019055565b5f61077c60025490565b6040805160608101909152338152909150602081015f815260200185858080601f0160208091040260200160405190810160405280939291908181526020018383808284375f920182905250939094525050838152600360209081526040909120835181546001600160a01b039091166001600160a01b031982168117835592850151919350909183916001600160a81b03191617600160a01b8360028111156108285761082861144f565b02179055506040820151600182019061084190826116be565b50905050336001600160a01b0316817f9d9ec461f162f3f4fdb9f6d189bfe13c59e48d8acd23a4c3bfcf7cc0fe4e84ed8686604051610881929190611779565b60405180910390a39392505050565b5f828152602081905260409020600101546108aa816110e7565b6108b483836110f4565b505050565b6001600160a01b03811633146109295760405162461bcd60e51b815260206004820152602f60248201527f416363657373436f6e74726f6c3a2063616e206f6e6c792072656e6f756e636560448201526e103937b632b9903337b91039b2b63360891b60648201526084016104f0565b6109338282611177565b5050565b5f5160206119795f395f51905f5261094e816110e7565b5f341161098e5760405162461bcd60e51b815260206004820152600e60248201526d04343533a205374616b65203e20360941b60448201526064016104f0565b335f90815260066020526040812080543492906109ac9084906117bb565b9091555050335f818152600660209081526040918290205491519182527f9000b209805850a65058f21361a9978cb30f1413ed555553ab52a59b440b5d99910160405180910390a250565b5f81815260036020526040902060018154600160a01b900460ff166002811115610a2357610a2361144f565b14610a685760405162461bcd60e51b81526020600482015260156024820152744343533a204e6f7420756e6465722072657669657760581b60448201526064016104f0565b5f8281526005602052604090208054610ab75760405162461bcd60e51b81526020600482015260116024820152704343533a204e6f20726573706f6e73657360781b60448201526064016104f0565b5f5f5f5b8354811015610b46575f848281548110610ad757610ad76117ce565b5f9182526020808320909101546001600160a01b0316808352600682526040808420600101548b8552600484528185208386529093529092205491925090610b1f82876117bb565b9550610b2b82826117e2565b610b3590866117bb565b94505060019092019150610abb9050565b505f610b5283836117f9565b85546040516340c10f1960e01b81526001600160a01b039182166004820152602481018390529192507f000000000000000000000000000000000000000000000000000000000000000016906340c10f19906044015f604051808303815f87803b158015610bbe575f5ffd5b505af1158015610bd0573d5f5f3e3d5ffd5b505050505f5b8454811015610df8575f858281548110610bf257610bf26117ce565b5f9182526020808320909101548a83526004825260408084206001600160a01b0390921680855291909252912054909150838114610dbe576001600160a01b0382165f90815260066020526040812054610c4e906003906117f9565b6001600160a01b0384165f90815260066020526040812080549293508392909190610c7a908490611818565b909155505f9050858311610c9757610c928387611818565b610ca1565b610ca18684611818565b90505f86610cb1836127106117e2565b610cbb91906117f9565b6001600160a01b0386165f908152600660205260409020600101549091508110610cff576001600160a01b0385165f90815260066020526040812060010155610d2f565b6001600160a01b0385165f9081526006602052604081206001018054839290610d29908490611818565b90915550505b6001546040516001600160a01b039091169084156108fc029085905f818181858888f19350505050158015610d66573d5f5f3e3d5ffd5b506001600160a01b0385165f81815260066020908152604091829020600101548251878152918201527f83b04ecf7330997e742429a641e136d9f3698c3e9ac9cb9ce0cc2d6da36a244d910160405180910390a25050505b505f8881526004602090815260408083206001600160a01b0390941683529290529081209081556001908101805460ff1916905501610bd6565b505f868152600560205260408120610e0f916113e3565b845460ff60a01b1916600160a11b17855560405181815286907fe69f91882e38b950670c7daa30e3c2475722198b94e641d9b33b2b71bd65053e9060200160405180910390a2505050505050565b5f610e67816110e7565b6001600160a01b0382165f9081526006602052604090206002015460ff1615610ecb5760405162461bcd60e51b815260206004820152601660248201527521a1a99d1020b63932b0b23c903b30b634b230ba37b960511b60448201526064016104f0565b5f3411610f0b5760405162461bcd60e51b815260206004820152600e60248201526d04343533a205374616b65203e20360941b60448201526064016104f0565b60408051606081018252348152612710602080830191825260018385018181526001600160a01b0388165f9081526006909352949091209251835590519082015590516002909101805460ff1916911515919091179055610f795f5160206119795f395f51905f52836110f4565b816001600160a01b03167f9000b209805850a65058f21361a9978cb30f1413ed555553ab52a59b440b5d9934604051610fb491815260200190565b60405180910390a25050565b5f918252602082815260408084206001600160a01b0393909316845291905290205460ff1690565b5f83815260036020526040902080546001600160a01b0316331461103f5760405162461bcd60e51b815260206004820152600e60248201526d21a1a99d102737ba1037bbb732b960911b60448201526064016104f0565b6001810161104e83858361182b565b50837fd59ff490e419b5a72d916db4f77bc918cb64099584e8605b5a5aa543eacc0c078484604051611081929190611779565b60405180910390a250505050565b5f828152602081905260409020600101546110a9816110e7565b6108b48383611177565b6005602052815f5260405f2081815481106110cc575f80fd5b5f918252602090912001546001600160a01b03169150829050565b6110f181336111db565b50565b6110fe8282610fc0565b610933575f828152602081815260408083206001600160a01b03851684529091529020805460ff191660011790556111333390565b6001600160a01b0316816001600160a01b0316837f2f8788117e7eff1d82e926ec794901d17c78024a50270940304540a733656f0d60405160405180910390a45050565b6111818282610fc0565b15610933575f828152602081815260408083206001600160a01b0385168085529252808320805460ff1916905551339285917ff6391f5c32d9c69d2a47ea670b442974b53935d1edc7fd64eb21e047a839171b9190a45050565b6111e58282610fc0565b610933576111f281611234565b6111fd836020611246565b60405160200161120e9291906118fc565b60408051601f198184030181529082905262461bcd60e51b82526104f091600401611951565b60606104976001600160a01b03831660145b60605f6112548360026117e2565b61125f9060026117bb565b67ffffffffffffffff8111156112775761127761165f565b6040519080825280601f01601f1916602001820160405280156112a1576020820181803683370190505b509050600360fc1b815f815181106112bb576112bb6117ce565b60200101906001600160f81b03191690815f1a905350600f60fb1b816001815181106112e9576112e96117ce565b60200101906001600160f81b03191690815f1a9053505f61130b8460026117e2565b6113169060016117bb565b90505b600181111561138d576f181899199a1a9b1b9c1cb0b131b232b360811b85600f166010811061134a5761134a6117ce565b1a60f81b828281518110611360576113606117ce565b60200101906001600160f81b03191690815f1a90535060049490941c9361138681611963565b9050611319565b5083156113dc5760405162461bcd60e51b815260206004820181905260248201527f537472696e67733a20686578206c656e67746820696e73756666696369656e7460448201526064016104f0565b9392505050565b5080545f8255905f5260205f20908101906110f191905b8082111561140d575f81556001016113fa565b5090565b5f60208284031215611421575f5ffd5b81356001600160e01b0319811681146113dc575f5ffd5b5f60208284031215611448575f5ffd5b5035919050565b634e487b7160e01b5f52602160045260245ffd5b5f81518084528060208401602086015e5f602082860101526020601f19601f83011685010191505092915050565b6001600160a01b03841681525f600384106114ba57634e487b7160e01b5f52602160045260245ffd5b836020830152606060408301526114d46060830184611463565b95945050505050565b5f5f604083850312156114ee575f5ffd5b50508035926020909101359150565b5f5f83601f84011261150d575f5ffd5b50813567ffffffffffffffff811115611524575f5ffd5b60208301915083602082850101111561153b575f5ffd5b9250929050565b5f5f60208385031215611553575f5ffd5b823567ffffffffffffffff811115611569575f5ffd5b611575858286016114fd565b90969095509350505050565b80356001600160a01b0381168114611597575f5ffd5b919050565b5f5f604083850312156115ad575f5ffd5b823591506115bd60208401611581565b90509250929050565b5f602082840312156115d6575f5ffd5b6113dc82611581565b5f5f5f604084860312156115f1575f5ffd5b83359250602084013567ffffffffffffffff81111561160e575f5ffd5b61161a868287016114fd565b9497909650939450505050565b600181811c9082168061163b57607f821691505b60208210810361165957634e487b7160e01b5f52602260045260245ffd5b50919050565b634e487b7160e01b5f52604160045260245ffd5b601f8211156108b457805f5260205f20601f840160051c810160208510156116985750805b601f840160051c820191505b818110156116b7575f81556001016116a4565b5050505050565b815167ffffffffffffffff8111156116d8576116d861165f565b6116ec816116e68454611627565b84611673565b6020601f82116001811461171e575f83156117075750848201515b5f19600385901b1c1916600184901b1784556116b7565b5f84815260208120601f198516915b8281101561174d578785015182556020948501946001909201910161172d565b508482101561176a57868401515f19600387901b60f8161c191681555b50505050600190811b01905550565b60208152816020820152818360408301375f818301604090810191909152601f909201601f19160101919050565b634e487b7160e01b5f52601160045260245ffd5b80820180821115610497576104976117a7565b634e487b7160e01b5f52603260045260245ffd5b8082028115828204841417610497576104976117a7565b5f8261181357634e487b7160e01b5f52601260045260245ffd5b500490565b81810381811115610497576104976117a7565b67ffffffffffffffff8311156118435761184361165f565b611857836118518354611627565b83611673565b5f601f841160018114611888575f85156118715750838201355b5f19600387901b1c1916600186901b1783556116b7565b5f83815260208120601f198716915b828110156118b75786850135825560209485019460019092019101611897565b50868210156118d3575f1960f88860031b161c19848701351681555b505060018560011b0183555050505050565b5f81518060208401855e5f93019283525090919050565b7f416363657373436f6e74726f6c3a206163636f756e742000000000000000000081525f61192d60178301856118e5565b7001034b99036b4b9b9b4b733903937b6329607d1b81526114d460118201856118e5565b602081525f6113dc6020830184611463565b5f81611971576119716117a7565b505f19019056fe21702c8af46127c7fa207f89d0b0a8441bb32959a0ac7df790e9ab1a25c98926a2646970667358221220c97722d6b07acbf29369ed38a9bf641c6fcaa2a4d8ca93b14f31e049243593b464736f6c634300081e0033",
  "immutableReferences": {
    "2433": [
      {
        "length": 32,
        "start": 773
      },
      {
        "length": 32,
        "start": 2941
      }
    ]
  },
  "source": "// SPDX-License-Identifier: MIT\npragma solidity ^0.8.0;\n\nimport \"./CarbonCreditToken.sol\";\nimport \"@openzeppelin/contracts/access/AccessControl.sol\";\nimport \"@openzeppelin/contracts/utils/Counters.sol\";\n\n/// @title Carbon Credit Validation & Issuance System\n/// @notice Manages projects, validators, staking, credibility, and credit minting\ncontract CarbonCreditSystem is AccessControl {\n    using Counters for Counters.Counter;\n\n    CarbonCreditToken public immutable creditToken;\n    address payable   public admin;\n\n    bytes32 public constant VALIDATOR_ROLE = keccak256(\"VALIDATOR_ROLE\");\n\n    enum Status { Unverified, UnderReview, Verified }\n    struct Project {\n        address owner;\n        Status  status;\n        string  metadataURI;\n    }\n\n    struct Validator {\n        uint256 stake;        // in wei\n        uint256 credibility;  // basis points (10_000 = 100%)\n        bool    registered;\n    }\n\n    struct Response {\n        uint256 credits;      // estimate\n        bool    responded;\n    }\n\n    Counters.Counter private _projectIds;\n    mapping(uint256 => Project)                            public projects;\n    mapping(uint256 => mapping(address => Response))       public responses;\n    mapping(uint256 => address[])                          public responders;\n    mapping(address => Validator)                          public validators;\n\n    event ProjectCreated(uint256 indexed projectId, address indexed owner, string metadataURI);\n    event ProjectUpdated(uint256 indexed projectId, string metadataURI);\n    event ValidationRequested(uint256 indexed projectId);\n    event ValidatorResponded(uint256 indexed projectId, address indexed validator, uint256 credits);\n    event ValidationFinalized(uint256 indexed projectId, uint256 finalCredits);\n    event ValidatorAdded(address indexed validator, uint256 initialStake);\n    event ValidatorSlashed(address indexed validator, uint256 amountSlashed, uint256 newCredibility);\n\n    constructor(CarbonCreditToken _token) {\n        creditToken = _token;\n        _grantRole(DEFAULT_ADMIN_ROLE, msg.sender);\n        // Give this system contract the ability to mint credits:\n        // creditToken.grantRole(_token.MINTER_ROLE(), address(this));\n    }\n\n    // --------------------\n    // Project Management\n    // --------------------\n\n    /// @notice Create a new project record\n    function createProject(string calldata metadataURI) external returns (uint256) {\n        _projectIds.increment();\n        uint256 pid = _projectIds.current();\n        projects[pid] = Project({\n            owner:       msg.sender,\n            status:      Status.Unverified,\n            metadataURI: metadataURI\n        });\n        emit ProjectCreated(pid, msg.sender, metadataURI);\n        return pid;\n    }\n\n    /// @notice Owner can update their project metadata\n    function updateProject(uint256 projectId, string calldata metadataURI) external {\n        Project storage p = projects[projectId];\n        require(p.owner == msg.sender, \"CCS: Not owner\");\n        p.metadataURI = metadataURI;\n        emit ProjectUpdated(projectId, metadataURI);\n    }\n\n    /// @notice Owner requests validation\n    function requestValidation(uint256 projectId) external {\n        Project storage p = projects[projectId];\n        require(p.owner == msg.sender, \"CCS: Not owner\");\n        p.status = Status.UnderReview;\n        emit ValidationRequested(projectId);\n    }\n\n    // --------------------\n    // Validator Management\n    // --------------------\n\n    /// @notice Admin adds a validator and stakes ETH\n    function addValidator(address v) external payable onlyRole(DEFAULT_ADMIN_ROLE) {\n        require(!validators[v].registered, \"CCS: Already validator\");\n        require(msg.value > 0, \"CCS: Stake > 0\");\n        validators[v] = Validator({\n            stake:       msg.value,\n            credibility: 10_000,\n            registered:  true\n        });\n        _grantRole(VALIDATOR_ROLE, v);\n        emit ValidatorAdded(v, msg.value);\n    }\n\n    /// @notice Validator tops up their stake\n    function stake() external payable onlyRole(VALIDATOR_ROLE) {\n        require(msg.value > 0, \"CCS: Stake > 0\");\n        validators[msg.sender].stake += msg.value;\n        emit ValidatorAdded(msg.sender, validators[msg.sender].stake);\n    }\n\n    // --------------------\n    // Validation Workflow\n    // --------------------\n\n    /// @notice Validator responds with a credits estimate\n    function respondValidation(uint256 projectId, uint256 credits) external onlyRole(VALIDATOR_ROLE) {\n        Project storage p = projects[projectId];\n        require(p.status == Status.UnderReview, \"CCS: Not under review\");\n        Response storage r = responses[projectId][msg.sender];\n        require(!r.responded, \"CCS: Already responded\");\n        r.credits   = credits;\n        r.responded = true;\n        responders[projectId].push(msg.sender);\n        emit ValidatorResponded(projectId, msg.sender, credits);\n    }\n\n    /// @notice Anyone can finalize once validators have responded\n    function finalizeValidation(uint256 projectId) external {\n        Project storage p = projects[projectId];\n        require(p.status == Status.UnderReview, \"CCS: Not under review\");\n\n        address[] storage voters = responders[projectId];\n        require(voters.length > 0, \"CCS: No responses\");\n\n        // Compute weighted average\n        uint256 weightSum;\n        uint256 weightedTotal;\n        for (uint i; i < voters.length; i++) {\n            address v = voters[i];\n            uint256 w = validators[v].credibility;\n            uint256 c = responses[projectId][v].credits;\n            weightSum     += w;\n            weightedTotal += c * w;\n        }\n        uint256 finalCredits = weightedTotal / weightSum;\n\n        // Mint ERC-20 to project owner\n        creditToken.mint(p.owner, finalCredits);\n\n        // Slash deviators\n        for (uint i; i < voters.length; i++) {\n            address v     = voters[i];\n            uint256 given = responses[projectId][v].credits;\n            if (given != finalCredits) {\n                // slash 1/3 of stake\n                uint256 slash = validators[v].stake / 3;\n                validators[v].stake -= slash;\n\n                // reduce credibility by relative error in basis points\n                uint256 error = (given > finalCredits)\n                    ? given - finalCredits\n                    : finalCredits - given;\n                uint256 penaltyBP = (error * 10_000) / finalCredits;\n                if (penaltyBP >= validators[v].credibility) {\n                    validators[v].credibility = 0;\n                } else {\n                    validators[v].credibility -= penaltyBP;\n                }\n\n                // send slashed ETH to admin\n                admin.transfer(slash);\n                emit ValidatorSlashed(v, slash, validators[v].credibility);\n            }\n            // reset for next round\n            delete responses[projectId][v];\n        }\n        delete responders[projectId];\n\n        // mark as verified\n        p.status = Status.Verified;\n        emit ValidationFinalized(projectId, finalCredits);\n    }\n}\n",
  "sourcePath": "/Users/sanjana/Documents/Cornell/Courses/Industrial_blockchain/FinalProject/CarbonCredit/contracts/CarbonCreditSystem.sol",
  "compiler": {
    "name": "solc",
    "version": "0.8.30+commit.73712a01.Emscripten.clang"
  },
  "schemaVersion": "3.4.16",
  "updatedAt": "2025-05-15T07:11:18.463Z",
  "networkType": "ethereum",
  "devdoc": {
    "events": {
      "RoleAdminChanged(bytes32,bytes32,bytes32)": {
        "details": "Emitted when `newAdminRole` is set as ``role``'s admin role, replacing `previousAdminRole` `DEFAULT_ADMIN_ROLE` is the starting admin for all roles, despite {RoleAdminChanged} not being emitted signaling this. _Available since v3.1._"
      },
      "RoleGranted(bytes32,address,address)": {
        "details": "Emitted when `account` is granted `role`. `sender` is the account that originated the contract call, an admin role bearer except when using {AccessControl-_setupRole}."
      },
      "RoleRevoked(bytes32,address,address)": {
        "details": "Emitted when `account` is revoked `role`. `sender` is the account that originated the contract call:   - if using `revokeRole`, it is the admin role bearer   - if using `renounceRole`, it is the role bearer (i.e. `account`)"
      }
    },
    "kind": "dev",
    "methods": {
      "getRoleAdmin(bytes32)": {
        "details": "Returns the admin role that controls `role`. See {grantRole} and {revokeRole}. To change a role's admin, use {_setRoleAdmin}."
      },
      "grantRole(bytes32,address)": {
        "details": "Grants `role` to `account`. If `account` had not been already granted `role`, emits a {RoleGranted} event. Requirements: - the caller must have ``role``'s admin role. May emit a {RoleGranted} event."
      },
      "hasRole(bytes32,address)": {
        "details": "Returns `true` if `account` has been granted `role`."
      },
      "renounceRole(bytes32,address)": {
        "details": "Revokes `role` from the calling account. Roles are often managed via {grantRole} and {revokeRole}: this function's purpose is to provide a mechanism for accounts to lose their privileges if they are compromised (such as when a trusted device is misplaced). If the calling account had been revoked `role`, emits a {RoleRevoked} event. Requirements: - the caller must be `account`. May emit a {RoleRevoked} event."
      },
      "revokeRole(bytes32,address)": {
        "details": "Revokes `role` from `account`. If `account` had been granted `role`, emits a {RoleRevoked} event. Requirements: - the caller must have ``role``'s admin role. May emit a {RoleRevoked} event."
      },
      "supportsInterface(bytes4)": {
        "details": "See {IERC165-supportsInterface}."
      }
    },
    "title": "Carbon Credit Validation & Issuance System",
    "version": 1
  },
  "userdoc": {
    "kind": "user",
    "methods": {
      "addValidator(address)": {
        "notice": "Admin adds a validator and stakes ETH"
      },
      "createProject(string)": {
        "notice": "Create a new project record"
      },
      "finalizeValidation(uint256)": {
        "notice": "Anyone can finalize once validators have responded"
      },
      "requestValidation(uint256)": {
        "notice": "Owner requests validation"
      },
      "respondValidation(uint256,uint256)": {
        "notice": "Validator responds with a credits estimate"
      },
      "stake()": {
        "notice": "Validator tops up their stake"
      },
      "updateProject(uint256,string)": {
        "notice": "Owner can update their project metadata"
      }
    },
    "notice": "Manages projects, validators, staking, credibility, and credit minting",
    "version": 1
  }
}