{
  "contractName": "CarbonCreditSystem",
  "abi": [
    {
      "inputs": [
        {
          "internalType": "contract CarbonCreditToken",
          "name": "_token",
          "type": "address"
        }
      ],
      "stateMutability": "nonpayable",
      "type": "constructor"
    },
    {
      "anonymous": false,
      "inputs": [
        {
          "indexed": true,
          "internalType": "uint256",
          "name": "projectId",
          "type": "uint256"
        },
        {
          "indexed": true,
          "internalType": "address",
          "name": "owner",
          "type": "address"
        },
        {
          "indexed": false,
          "internalType": "string",
          "name": "metadataURI",
          "type": "string"
        }
      ],
      "name": "ProjectCreated",
      "type": "event"
    },
    {
      "anonymous": false,
      "inputs": [
        {
          "indexed": true,
          "internalType": "uint256",
          "name": "projectId",
          "type": "uint256"
        },
        {
          "indexed": false,
          "internalType": "string",
          "name": "metadataURI",
          "type": "string"
        }
      ],
      "name": "ProjectUpdated",
      "type": "event"
    },
    {
      "anonymous": false,
      "inputs": [
        {
          "indexed": true,
          "internalType": "bytes32",
          "name": "role",
          "type": "bytes32"
        },
        {
          "indexed": true,
          "internalType": "bytes32",
          "name": "previousAdminRole",
          "type": "bytes32"
        },
        {
          "indexed": true,
          "internalType": "bytes32",
          "name": "newAdminRole",
          "type": "bytes32"
        }
      ],
      "name": "RoleAdminChanged",
      "type": "event"
    },
    {
      "anonymous": false,
      "inputs": [
        {
          "indexed": true,
          "internalType": "bytes32",
          "name": "role",
          "type": "bytes32"
        },
        {
          "indexed": true,
          "internalType": "address",
          "name": "account",
          "type": "address"
        },
        {
          "indexed": true,
          "internalType": "address",
          "name": "sender",
          "type": "address"
        }
      ],
      "name": "RoleGranted",
      "type": "event"
    },
    {
      "anonymous": false,
      "inputs": [
        {
          "indexed": true,
          "internalType": "bytes32",
          "name": "role",
          "type": "bytes32"
        },
        {
          "indexed": true,
          "internalType": "address",
          "name": "account",
          "type": "address"
        },
        {
          "indexed": true,
          "internalType": "address",
          "name": "sender",
          "type": "address"
        }
      ],
      "name": "RoleRevoked",
      "type": "event"
    },
    {
      "anonymous": false,
      "inputs": [
        {
          "indexed": true,
          "internalType": "uint256",
          "name": "projectId",
          "type": "uint256"
        },
        {
          "indexed": false,
          "internalType": "uint256",
          "name": "finalCredits",
          "type": "uint256"
        }
      ],
      "name": "ValidationFinalized",
      "type": "event"
    },
    {
      "anonymous": false,
      "inputs": [
        {
          "indexed": true,
          "internalType": "uint256",
          "name": "projectId",
          "type": "uint256"
        }
      ],
      "name": "ValidationRequested",
      "type": "event"
    },
    {
      "anonymous": false,
      "inputs": [
        {
          "indexed": true,
          "internalType": "address",
          "name": "validator",
          "type": "address"
        },
        {
          "indexed": false,
          "internalType": "uint256",
          "name": "initialStake",
          "type": "uint256"
        }
      ],
      "name": "ValidatorRegistered",
      "type": "event"
    },
    {
      "anonymous": false,
      "inputs": [
        {
          "indexed": true,
          "internalType": "uint256",
          "name": "projectId",
          "type": "uint256"
        },
        {
          "indexed": true,
          "internalType": "address",
          "name": "validator",
          "type": "address"
        },
        {
          "indexed": false,
          "internalType": "uint256",
          "name": "credits",
          "type": "uint256"
        }
      ],
      "name": "ValidatorResponded",
      "type": "event"
    },
    {
      "anonymous": false,
      "inputs": [
        {
          "indexed": true,
          "internalType": "address",
          "name": "validator",
          "type": "address"
        },
        {
          "indexed": false,
          "internalType": "uint256",
          "name": "amountSlashed",
          "type": "uint256"
        },
        {
          "indexed": false,
          "internalType": "uint256",
          "name": "newCredibility",
          "type": "uint256"
        }
      ],
      "name": "ValidatorSlashed",
      "type": "event"
    },
    {
      "inputs": [],
      "name": "DEFAULT_ADMIN_ROLE",
      "outputs": [
        {
          "internalType": "bytes32",
          "name": "",
          "type": "bytes32"
        }
      ],
      "stateMutability": "view",
      "type": "function",
      "constant": true
    },
    {
      "inputs": [],
      "name": "VALIDATOR_ROLE",
      "outputs": [
        {
          "internalType": "bytes32",
          "name": "",
          "type": "bytes32"
        }
      ],
      "stateMutability": "view",
      "type": "function",
      "constant": true
    },
    {
      "inputs": [],
      "name": "admin",
      "outputs": [
        {
          "internalType": "address payable",
          "name": "",
          "type": "address"
        }
      ],
      "stateMutability": "view",
      "type": "function",
      "constant": true
    },
    {
      "inputs": [],
      "name": "creditToken",
      "outputs": [
        {
          "internalType": "contract CarbonCreditToken",
          "name": "",
          "type": "address"
        }
      ],
      "stateMutability": "view",
      "type": "function",
      "constant": true
    },
    {
      "inputs": [
        {
          "internalType": "bytes32",
          "name": "role",
          "type": "bytes32"
        }
      ],
      "name": "getRoleAdmin",
      "outputs": [
        {
          "internalType": "bytes32",
          "name": "",
          "type": "bytes32"
        }
      ],
      "stateMutability": "view",
      "type": "function",
      "constant": true
    },
    {
      "inputs": [
        {
          "internalType": "bytes32",
          "name": "role",
          "type": "bytes32"
        },
        {
          "internalType": "address",
          "name": "account",
          "type": "address"
        }
      ],
      "name": "grantRole",
      "outputs": [],
      "stateMutability": "nonpayable",
      "type": "function"
    },
    {
      "inputs": [
        {
          "internalType": "bytes32",
          "name": "role",
          "type": "bytes32"
        },
        {
          "internalType": "address",
          "name": "account",
          "type": "address"
        }
      ],
      "name": "hasRole",
      "outputs": [
        {
          "internalType": "bool",
          "name": "",
          "type": "bool"
        }
      ],
      "stateMutability": "view",
      "type": "function",
      "constant": true
    },
    {
      "inputs": [
        {
          "internalType": "uint256",
          "name": "",
          "type": "uint256"
        }
      ],
      "name": "projects",
      "outputs": [
        {
          "internalType": "address",
          "name": "owner",
          "type": "address"
        },
        {
          "internalType": "enum CarbonCreditSystem.Status",
          "name": "status",
          "type": "uint8"
        },
        {
          "internalType": "string",
          "name": "metadataURI",
          "type": "string"
        }
      ],
      "stateMutability": "view",
      "type": "function",
      "constant": true
    },
    {
      "inputs": [
        {
          "internalType": "bytes32",
          "name": "role",
          "type": "bytes32"
        },
        {
          "internalType": "address",
          "name": "account",
          "type": "address"
        }
      ],
      "name": "renounceRole",
      "outputs": [],
      "stateMutability": "nonpayable",
      "type": "function"
    },
    {
      "inputs": [
        {
          "internalType": "uint256",
          "name": "",
          "type": "uint256"
        },
        {
          "internalType": "uint256",
          "name": "",
          "type": "uint256"
        }
      ],
      "name": "responders",
      "outputs": [
        {
          "internalType": "address",
          "name": "",
          "type": "address"
        }
      ],
      "stateMutability": "view",
      "type": "function",
      "constant": true
    },
    {
      "inputs": [
        {
          "internalType": "uint256",
          "name": "",
          "type": "uint256"
        },
        {
          "internalType": "address",
          "name": "",
          "type": "address"
        }
      ],
      "name": "responses",
      "outputs": [
        {
          "internalType": "uint256",
          "name": "credits",
          "type": "uint256"
        },
        {
          "internalType": "bool",
          "name": "responded",
          "type": "bool"
        }
      ],
      "stateMutability": "view",
      "type": "function",
      "constant": true
    },
    {
      "inputs": [
        {
          "internalType": "bytes32",
          "name": "role",
          "type": "bytes32"
        },
        {
          "internalType": "address",
          "name": "account",
          "type": "address"
        }
      ],
      "name": "revokeRole",
      "outputs": [],
      "stateMutability": "nonpayable",
      "type": "function"
    },
    {
      "inputs": [
        {
          "internalType": "bytes4",
          "name": "interfaceId",
          "type": "bytes4"
        }
      ],
      "name": "supportsInterface",
      "outputs": [
        {
          "internalType": "bool",
          "name": "",
          "type": "bool"
        }
      ],
      "stateMutability": "view",
      "type": "function",
      "constant": true
    },
    {
      "inputs": [
        {
          "internalType": "address",
          "name": "",
          "type": "address"
        }
      ],
      "name": "validators",
      "outputs": [
        {
          "internalType": "uint256",
          "name": "stake",
          "type": "uint256"
        },
        {
          "internalType": "uint256",
          "name": "credibility",
          "type": "uint256"
        },
        {
          "internalType": "bool",
          "name": "registered",
          "type": "bool"
        }
      ],
      "stateMutability": "view",
      "type": "function",
      "constant": true
    },
    {
      "inputs": [
        {
          "internalType": "string",
          "name": "metadataURI",
          "type": "string"
        }
      ],
      "name": "createProject",
      "outputs": [
        {
          "internalType": "uint256",
          "name": "",
          "type": "uint256"
        }
      ],
      "stateMutability": "nonpayable",
      "type": "function"
    },
    {
      "inputs": [
        {
          "internalType": "uint256",
          "name": "projectId",
          "type": "uint256"
        },
        {
          "internalType": "string",
          "name": "metadataURI",
          "type": "string"
        }
      ],
      "name": "updateProject",
      "outputs": [],
      "stateMutability": "nonpayable",
      "type": "function"
    },
    {
      "inputs": [
        {
          "internalType": "uint256",
          "name": "projectId",
          "type": "uint256"
        }
      ],
      "name": "requestValidation",
      "outputs": [],
      "stateMutability": "nonpayable",
      "type": "function"
    },
    {
      "inputs": [],
      "name": "registerValidator",
      "outputs": [],
      "stateMutability": "payable",
      "type": "function",
      "payable": true
    },
    {
      "inputs": [],
      "name": "stake",
      "outputs": [],
      "stateMutability": "payable",
      "type": "function",
      "payable": true
    },
    {
      "inputs": [
        {
          "internalType": "uint256",
          "name": "projectId",
          "type": "uint256"
        },
        {
          "internalType": "uint256",
          "name": "credits",
          "type": "uint256"
        }
      ],
      "name": "respondValidation",
      "outputs": [],
      "stateMutability": "nonpayable",
      "type": "function"
    },
    {
      "inputs": [
        {
          "internalType": "uint256",
          "name": "projectId",
          "type": "uint256"
        }
      ],
      "name": "finalizeValidation",
      "outputs": [],
      "stateMutability": "nonpayable",
      "type": "function"
    }
  ],
  "bytecode": "0x60a060405234801561000f575f5ffd5b50604051611ae4380380611ae483398101604081905261002e916100fe565b6001600160a01b038116608052600180546001600160a01b0319163390811790915561005b905f90610061565b5061012b565b5f828152602081815260408083206001600160a01b038516845290915290205460ff166100fa575f828152602081815260408083206001600160a01b03851684529091529020805460ff191660011790556100b93390565b6001600160a01b0316816001600160a01b0316837f2f8788117e7eff1d82e926ec794901d17c78024a50270940304540a733656f0d60405160405180910390a45b5050565b5f6020828403121561010e575f5ffd5b81516001600160a01b0381168114610124575f5ffd5b9392505050565b60805161199a61014a5f395f81816102f20152610b72015261199a5ff3fe608060405260043610610126575f3560e01c80634bef5ef0116100a8578063bcc6587f1161006d578063bcc6587f1461037d578063c49baebe14610385578063d547741f146103a5578063d7e3c5d9146103c4578063f851a440146103e3578063fa52c7d814610402575f5ffd5b80634bef5ef01461028c578063899e5d85146102e157806391d148541461032c578063a217fddf1461034b578063bbc3a7f31461035e575f5ffd5b8063248a9ca3116100ee578063248a9ca3146101f95780632f2ff15d1461022757806336568abe146102465780633a4b66f1146102655780634b7987161461026d575f5ffd5b806301ffc9a71461012a57806305dc09eb1461015e578063107046bd1461017f57806311e1cf21146101ad57806315ee4df1146101cc575b5f5ffd5b348015610135575f5ffd5b506101496101443660046113dd565b61045c565b60405190151581526020015b60405180910390f35b348015610169575f5ffd5b5061017d610178366004611404565b610492565b005b34801561018a575f5ffd5b5061019e610199366004611404565b61052d565b6040516101559392919061145d565b3480156101b8575f5ffd5b5061017d6101c73660046114a9565b6105e5565b3480156101d7575f5ffd5b506101eb6101e636600461150e565b610758565b604051908152602001610155565b348015610204575f5ffd5b506101eb610213366004611404565b5f9081526020819052604090206001015490565b348015610232575f5ffd5b5061017d610241366004611568565b610885565b348015610251575f5ffd5b5061017d610260366004611568565b6108ae565b61017d61092c565b348015610278575f5ffd5b5061017d610287366004611404565b6109ec565b348015610297575f5ffd5b506102cc6102a6366004611568565b600460209081525f92835260408084209091529082529020805460019091015460ff1682565b60408051928352901515602083015201610155565b3480156102ec575f5ffd5b506103147f000000000000000000000000000000000000000000000000000000000000000081565b6040516001600160a01b039091168152602001610155565b348015610337575f5ffd5b50610149610346366004611568565b610e52565b348015610356575f5ffd5b506101eb5f81565b348015610369575f5ffd5b5061017d610378366004611592565b610e7a565b61017d610f21565b348015610390575f5ffd5b506101eb5f5160206119455f395f51905f5281565b3480156103b0575f5ffd5b5061017d6103bf366004611568565b61105b565b3480156103cf575f5ffd5b506103146103de3660046114a9565b61107f565b3480156103ee575f5ffd5b50600154610314906001600160a01b031681565b34801561040d575f5ffd5b5061043f61041c3660046115da565b60066020525f908152604090208054600182015460029092015490919060ff1683565b604080519384526020840192909252151590820152606001610155565b5f6001600160e01b03198216637965db0b60e01b148061048c57506301ffc9a760e01b6001600160e01b03198316145b92915050565b5f81815260036020526040902080546001600160a01b031633146104ee5760405162461bcd60e51b815260206004820152600e60248201526d21a1a99d102737ba1037bbb732b960911b60448201526064015b60405180910390fd5b805460ff60a01b1916600160a01b17815560405182907f2b50235b6632e3fea51ffb5420030678abc0e4b2ecf47c35bdb82f77f1a6a733905f90a25050565b60036020525f9081526040902080546001820180546001600160a01b03831693600160a01b90930460ff16929190610564906115f3565b80601f0160208091040260200160405190810160405280929190818152602001828054610590906115f3565b80156105db5780601f106105b2576101008083540402835291602001916105db565b820191905f5260205f20905b8154815290600101906020018083116105be57829003601f168201915b5050505050905083565b5f5160206119455f395f51905f526105fc816110b3565b5f83815260036020526040902060018154600160a01b900460ff1660028111156106285761062861141b565b1461066d5760405162461bcd60e51b81526020600482015260156024820152744343533a204e6f7420756e6465722072657669657760581b60448201526064016104e5565b5f8481526004602090815260408083203384529091529020600181015460ff16156106d35760405162461bcd60e51b815260206004820152601660248201527510d0d4ce88105b1c9958591e481c995cdc1bdb99195960521b60448201526064016104e5565b8381556001808201805460ff1916821790555f868152600560209081526040808320805494850181558352912090910180546001600160a01b03191633908117909155905186907f0b6814a90a14810c09a6e289d7627bbb0efe1a790207c0a6e62d630f19fd3e2c906107499088815260200190565b60405180910390a35050505050565b5f610767600280546001019055565b5f61077160025490565b6040805160608101909152338152909150602081015f815260200185858080601f0160208091040260200160405190810160405280939291908181526020018383808284375f920182905250939094525050838152600360209081526040909120835181546001600160a01b039091166001600160a01b031982168117835592850151919350909183916001600160a81b03191617600160a01b83600281111561081d5761081d61141b565b021790555060408201516001820190610836908261168a565b50905050336001600160a01b0316817f9d9ec461f162f3f4fdb9f6d189bfe13c59e48d8acd23a4c3bfcf7cc0fe4e84ed8686604051610876929190611745565b60405180910390a39392505050565b5f8281526020819052604090206001015461089f816110b3565b6108a983836110c0565b505050565b6001600160a01b038116331461091e5760405162461bcd60e51b815260206004820152602f60248201527f416363657373436f6e74726f6c3a2063616e206f6e6c792072656e6f756e636560448201526e103937b632b9903337b91039b2b63360891b60648201526084016104e5565b6109288282611143565b5050565b5f5160206119455f395f51905f52610943816110b3565b5f34116109835760405162461bcd60e51b815260206004820152600e60248201526d04343533a205374616b65203e20360941b60448201526064016104e5565b335f90815260066020526040812080543492906109a1908490611787565b9091555050335f818152600660209081526040918290205491519182527fb4a7f5c563a0e35593d156394ed681bdc9c39467d7d722749d23862c2e4b712c910160405180910390a250565b5f81815260036020526040902060018154600160a01b900460ff166002811115610a1857610a1861141b565b14610a5d5760405162461bcd60e51b81526020600482015260156024820152744343533a204e6f7420756e6465722072657669657760581b60448201526064016104e5565b5f8281526005602052604090208054610aac5760405162461bcd60e51b81526020600482015260116024820152704343533a204e6f20726573706f6e73657360781b60448201526064016104e5565b5f5f5f5b8354811015610b3b575f848281548110610acc57610acc61179a565b5f9182526020808320909101546001600160a01b0316808352600682526040808420600101548b8552600484528185208386529093529092205491925090610b148287611787565b9550610b2082826117ae565b610b2a9086611787565b94505060019092019150610ab09050565b505f610b4783836117c5565b85546040516340c10f1960e01b81526001600160a01b039182166004820152602481018390529192507f000000000000000000000000000000000000000000000000000000000000000016906340c10f19906044015f604051808303815f87803b158015610bb3575f5ffd5b505af1158015610bc5573d5f5f3e3d5ffd5b505050505f5b8454811015610ded575f858281548110610be757610be761179a565b5f9182526020808320909101548a83526004825260408084206001600160a01b0390921680855291909252912054909150838114610db3576001600160a01b0382165f90815260066020526040812054610c43906003906117c5565b6001600160a01b0384165f90815260066020526040812080549293508392909190610c6f9084906117e4565b909155505f9050858311610c8c57610c8783876117e4565b610c96565b610c9686846117e4565b90505f86610ca6836127106117ae565b610cb091906117c5565b6001600160a01b0386165f908152600660205260409020600101549091508110610cf4576001600160a01b0385165f90815260066020526040812060010155610d24565b6001600160a01b0385165f9081526006602052604081206001018054839290610d1e9084906117e4565b90915550505b6001546040516001600160a01b039091169084156108fc029085905f818181858888f19350505050158015610d5b573d5f5f3e3d5ffd5b506001600160a01b0385165f81815260066020908152604091829020600101548251878152918201527f83b04ecf7330997e742429a641e136d9f3698c3e9ac9cb9ce0cc2d6da36a244d910160405180910390a25050505b505f8881526004602090815260408083206001600160a01b0390941683529290529081209081556001908101805460ff1916905501610bcb565b505f868152600560205260408120610e04916113af565b845460ff60a01b1916600160a11b17855560405181815286907fe69f91882e38b950670c7daa30e3c2475722198b94e641d9b33b2b71bd65053e9060200160405180910390a2505050505050565b5f918252602082815260408084206001600160a01b0393909316845291905290205460ff1690565b5f83815260036020526040902080546001600160a01b03163314610ed15760405162461bcd60e51b815260206004820152600e60248201526d21a1a99d102737ba1037bbb732b960911b60448201526064016104e5565b60018101610ee08385836117f7565b50837fd59ff490e419b5a72d916db4f77bc918cb64099584e8605b5a5aa543eacc0c078484604051610f13929190611745565b60405180910390a250505050565b335f9081526006602052604090206002015460ff1615610f7c5760405162461bcd60e51b815260206004820152601660248201527521a1a99d1020b63932b0b23c903b30b634b230ba37b960511b60448201526064016104e5565b5f3411610fbc5760405162461bcd60e51b815260206004820152600e60248201526d04343533a205374616b65203e20360941b60448201526064016104e5565b6040805160608101825234815261271060208083019182526001838501818152335f81815260069094529590922093518455915191830191909155516002909101805460ff1916911515919091179055611024905f5160206119455f395f51905f52906110c0565b60405134815233907fb4a7f5c563a0e35593d156394ed681bdc9c39467d7d722749d23862c2e4b712c9060200160405180910390a2565b5f82815260208190526040902060010154611075816110b3565b6108a98383611143565b6005602052815f5260405f208181548110611098575f80fd5b5f918252602090912001546001600160a01b03169150829050565b6110bd81336111a7565b50565b6110ca8282610e52565b610928575f828152602081815260408083206001600160a01b03851684529091529020805460ff191660011790556110ff3390565b6001600160a01b0316816001600160a01b0316837f2f8788117e7eff1d82e926ec794901d17c78024a50270940304540a733656f0d60405160405180910390a45050565b61114d8282610e52565b15610928575f828152602081815260408083206001600160a01b0385168085529252808320805460ff1916905551339285917ff6391f5c32d9c69d2a47ea670b442974b53935d1edc7fd64eb21e047a839171b9190a45050565b6111b18282610e52565b610928576111be81611200565b6111c9836020611212565b6040516020016111da9291906118c8565b60408051601f198184030181529082905262461bcd60e51b82526104e59160040161191d565b606061048c6001600160a01b03831660145b60605f6112208360026117ae565b61122b906002611787565b67ffffffffffffffff8111156112435761124361162b565b6040519080825280601f01601f19166020018201604052801561126d576020820181803683370190505b509050600360fc1b815f815181106112875761128761179a565b60200101906001600160f81b03191690815f1a905350600f60fb1b816001815181106112b5576112b561179a565b60200101906001600160f81b03191690815f1a9053505f6112d78460026117ae565b6112e2906001611787565b90505b6001811115611359576f181899199a1a9b1b9c1cb0b131b232b360811b85600f16601081106113165761131661179a565b1a60f81b82828151811061132c5761132c61179a565b60200101906001600160f81b03191690815f1a90535060049490941c936113528161192f565b90506112e5565b5083156113a85760405162461bcd60e51b815260206004820181905260248201527f537472696e67733a20686578206c656e67746820696e73756666696369656e7460448201526064016104e5565b9392505050565b5080545f8255905f5260205f20908101906110bd91905b808211156113d9575f81556001016113c6565b5090565b5f602082840312156113ed575f5ffd5b81356001600160e01b0319811681146113a8575f5ffd5b5f60208284031215611414575f5ffd5b5035919050565b634e487b7160e01b5f52602160045260245ffd5b5f81518084528060208401602086015e5f602082860101526020601f19601f83011685010191505092915050565b6001600160a01b03841681525f6003841061148657634e487b7160e01b5f52602160045260245ffd5b836020830152606060408301526114a0606083018461142f565b95945050505050565b5f5f604083850312156114ba575f5ffd5b50508035926020909101359150565b5f5f83601f8401126114d9575f5ffd5b50813567ffffffffffffffff8111156114f0575f5ffd5b602083019150836020828501011115611507575f5ffd5b9250929050565b5f5f6020838503121561151f575f5ffd5b823567ffffffffffffffff811115611535575f5ffd5b611541858286016114c9565b90969095509350505050565b80356001600160a01b0381168114611563575f5ffd5b919050565b5f5f60408385031215611579575f5ffd5b823591506115896020840161154d565b90509250929050565b5f5f5f604084860312156115a4575f5ffd5b83359250602084013567ffffffffffffffff8111156115c1575f5ffd5b6115cd868287016114c9565b9497909650939450505050565b5f602082840312156115ea575f5ffd5b6113a88261154d565b600181811c9082168061160757607f821691505b60208210810361162557634e487b7160e01b5f52602260045260245ffd5b50919050565b634e487b7160e01b5f52604160045260245ffd5b601f8211156108a957805f5260205f20601f840160051c810160208510156116645750805b601f840160051c820191505b81811015611683575f8155600101611670565b5050505050565b815167ffffffffffffffff8111156116a4576116a461162b565b6116b8816116b284546115f3565b8461163f565b6020601f8211600181146116ea575f83156116d35750848201515b5f19600385901b1c1916600184901b178455611683565b5f84815260208120601f198516915b8281101561171957878501518255602094850194600190920191016116f9565b508482101561173657868401515f19600387901b60f8161c191681555b50505050600190811b01905550565b60208152816020820152818360408301375f818301604090810191909152601f909201601f19160101919050565b634e487b7160e01b5f52601160045260245ffd5b8082018082111561048c5761048c611773565b634e487b7160e01b5f52603260045260245ffd5b808202811582820484141761048c5761048c611773565b5f826117df57634e487b7160e01b5f52601260045260245ffd5b500490565b8181038181111561048c5761048c611773565b67ffffffffffffffff83111561180f5761180f61162b565b6118238361181d83546115f3565b8361163f565b5f601f841160018114611854575f851561183d5750838201355b5f19600387901b1c1916600186901b178355611683565b5f83815260208120601f198716915b828110156118835786850135825560209485019460019092019101611863565b508682101561189f575f1960f88860031b161c19848701351681555b505060018560011b0183555050505050565b5f81518060208401855e5f93019283525090919050565b7f416363657373436f6e74726f6c3a206163636f756e742000000000000000000081525f6118f960178301856118b1565b7001034b99036b4b9b9b4b733903937b6329607d1b81526114a060118201856118b1565b602081525f6113a8602083018461142f565b5f8161193d5761193d611773565b505f19019056fe21702c8af46127c7fa207f89d0b0a8441bb32959a0ac7df790e9ab1a25c98926a2646970667358221220f46d8cdff3254ccfea91565273bd45e2b9d5002f3d589d89e617e7d77595c01964736f6c634300081e0033",
  "immutableReferences": {
    "2433": [
      {
        "length": 32,
        "start": 754
      },
      {
        "length": 32,
        "start": 2930
      }
    ]
  },
  "source": "// SPDX-License-Identifier: MIT\npragma solidity ^0.8.0;\n\nimport \"./CarbonCreditToken.sol\";\nimport \"@openzeppelin/contracts/access/AccessControl.sol\";\nimport \"@openzeppelin/contracts/utils/Counters.sol\";\n\n/// @title Carbon Credit Validation & Issuance System\n/// @notice Manages projects, validators, staking, credibility, and credit minting\ncontract CarbonCreditSystem is AccessControl {\n    using Counters for Counters.Counter;\n\n    CarbonCreditToken public immutable creditToken;\n    address payable   public admin;\n\n    bytes32 public constant VALIDATOR_ROLE = keccak256(\"VALIDATOR_ROLE\");\n\n    enum Status { Unverified, UnderReview, Verified }\n    struct Project {\n        address owner;\n        Status  status;\n        string  metadataURI;\n    }\n\n    struct Validator {\n        uint256 stake;        // in wei\n        uint256 credibility;  // basis points (10_000 = 100%)\n        bool    registered;\n    }\n\n    struct Response {\n        uint256 credits;      // estimate\n        bool    responded;\n    }\n\n    Counters.Counter private _projectIds;\n    mapping(uint256 => Project)                            public projects;\n    mapping(uint256 => mapping(address => Response))       public responses;\n    mapping(uint256 => address[])                          public responders;\n    mapping(address => Validator)                          public validators;\n\n    event ProjectCreated(uint256 indexed projectId, address indexed owner, string metadataURI);\n    event ProjectUpdated(uint256 indexed projectId, string metadataURI);\n    event ValidationRequested(uint256 indexed projectId);\n    event ValidatorResponded(uint256 indexed projectId, address indexed validator, uint256 credits);\n    event ValidationFinalized(uint256 indexed projectId, uint256 finalCredits);\n    event ValidatorRegistered(address indexed validator, uint256 initialStake);\n    event ValidatorSlashed(address indexed validator, uint256 amountSlashed, uint256 newCredibility);\n\n    constructor(CarbonCreditToken _token) {\n        creditToken = _token;\n        admin = payable(msg.sender);\n        _grantRole(DEFAULT_ADMIN_ROLE, msg.sender);\n    }\n\n    // --------------------\n    // Project Management\n    // --------------------\n\n    function createProject(string calldata metadataURI) external returns (uint256) {\n        _projectIds.increment();\n        uint256 pid = _projectIds.current();\n        projects[pid] = Project({\n            owner:       msg.sender,\n            status:      Status.Unverified,\n            metadataURI: metadataURI\n        });\n        emit ProjectCreated(pid, msg.sender, metadataURI);\n        return pid;\n    }\n\n    function updateProject(uint256 projectId, string calldata metadataURI) external {\n        Project storage p = projects[projectId];\n        require(p.owner == msg.sender, \"CCS: Not owner\");\n        p.metadataURI = metadataURI;\n        emit ProjectUpdated(projectId, metadataURI);\n    }\n\n    function requestValidation(uint256 projectId) external {\n        Project storage p = projects[projectId];\n        require(p.owner == msg.sender, \"CCS: Not owner\");\n        p.status = Status.UnderReview;\n        emit ValidationRequested(projectId);\n    }\n\n    // --------------------\n    // Validator Management\n    // --------------------\n\n    /// @notice Validators self-register by staking ETH\n    function registerValidator() external payable {\n        require(!validators[msg.sender].registered, \"CCS: Already validator\");\n        require(msg.value > 0, \"CCS: Stake > 0\");\n\n        validators[msg.sender] = Validator({\n            stake:       msg.value,\n            credibility: 10_000,\n            registered:  true\n        });\n        _grantRole(VALIDATOR_ROLE, msg.sender);\n        emit ValidatorRegistered(msg.sender, msg.value);\n    }\n\n    /// @notice Validator tops up their stake\n    function stake() external payable onlyRole(VALIDATOR_ROLE) {\n        require(msg.value > 0, \"CCS: Stake > 0\");\n        validators[msg.sender].stake += msg.value;\n        emit ValidatorRegistered(msg.sender, validators[msg.sender].stake);\n    }\n\n    // --------------------\n    // Validation Workflow\n    // --------------------\n\n    function respondValidation(uint256 projectId, uint256 credits) external onlyRole(VALIDATOR_ROLE) {\n        Project storage p = projects[projectId];\n        require(p.status == Status.UnderReview, \"CCS: Not under review\");\n        Response storage r = responses[projectId][msg.sender];\n        require(!r.responded, \"CCS: Already responded\");\n        r.credits   = credits;\n        r.responded = true;\n        responders[projectId].push(msg.sender);\n        emit ValidatorResponded(projectId, msg.sender, credits);\n    }\n\n    function finalizeValidation(uint256 projectId) external {\n        Project storage p = projects[projectId];\n        require(p.status == Status.UnderReview, \"CCS: Not under review\");\n\n        address[] storage voters = responders[projectId];\n        require(voters.length > 0, \"CCS: No responses\");\n\n        uint256 weightSum;\n        uint256 weightedTotal;\n        for (uint i; i < voters.length; i++) {\n            address v = voters[i];\n            uint256 w = validators[v].credibility;\n            uint256 c = responses[projectId][v].credits;\n            weightSum     += w;\n            weightedTotal += c * w;\n        }\n        uint256 finalCredits = weightedTotal / weightSum;\n\n        creditToken.mint(p.owner, finalCredits);\n\n        for (uint i; i < voters.length; i++) {\n            address v     = voters[i];\n            uint256 given = responses[projectId][v].credits;\n            if (given != finalCredits) {\n                uint256 slash = validators[v].stake / 3;\n                validators[v].stake -= slash;\n\n                uint256 error = (given > finalCredits)\n                    ? given - finalCredits\n                    : finalCredits - given;\n                uint256 penaltyBP = (error * 10_000) / finalCredits;\n                if (penaltyBP >= validators[v].credibility) {\n                    validators[v].credibility = 0;\n                } else {\n                    validators[v].credibility -= penaltyBP;\n                }\n\n                admin.transfer(slash);\n                emit ValidatorSlashed(v, slash, validators[v].credibility);\n            }\n            delete responses[projectId][v];\n        }\n        delete responders[projectId];\n\n        p.status = Status.Verified;\n        emit ValidationFinalized(projectId, finalCredits);\n    }\n}\n",
  "sourcePath": "/Users/sanjana/Documents/Cornell/Courses/Industrial_blockchain/FinalProject/CarbonCredit/contracts/CarbonCreditSystem.sol",
  "compiler": {
    "name": "solc",
    "version": "0.8.30+commit.73712a01.Emscripten.clang"
  },
  "schemaVersion": "3.4.16",
  "updatedAt": "2025-05-15T20:14:26.481Z",
  "networkType": "ethereum",
  "devdoc": {
    "events": {
      "RoleAdminChanged(bytes32,bytes32,bytes32)": {
        "details": "Emitted when `newAdminRole` is set as ``role``'s admin role, replacing `previousAdminRole` `DEFAULT_ADMIN_ROLE` is the starting admin for all roles, despite {RoleAdminChanged} not being emitted signaling this. _Available since v3.1._"
      },
      "RoleGranted(bytes32,address,address)": {
        "details": "Emitted when `account` is granted `role`. `sender` is the account that originated the contract call, an admin role bearer except when using {AccessControl-_setupRole}."
      },
      "RoleRevoked(bytes32,address,address)": {
        "details": "Emitted when `account` is revoked `role`. `sender` is the account that originated the contract call:   - if using `revokeRole`, it is the admin role bearer   - if using `renounceRole`, it is the role bearer (i.e. `account`)"
      }
    },
    "kind": "dev",
    "methods": {
      "getRoleAdmin(bytes32)": {
        "details": "Returns the admin role that controls `role`. See {grantRole} and {revokeRole}. To change a role's admin, use {_setRoleAdmin}."
      },
      "grantRole(bytes32,address)": {
        "details": "Grants `role` to `account`. If `account` had not been already granted `role`, emits a {RoleGranted} event. Requirements: - the caller must have ``role``'s admin role. May emit a {RoleGranted} event."
      },
      "hasRole(bytes32,address)": {
        "details": "Returns `true` if `account` has been granted `role`."
      },
      "renounceRole(bytes32,address)": {
        "details": "Revokes `role` from the calling account. Roles are often managed via {grantRole} and {revokeRole}: this function's purpose is to provide a mechanism for accounts to lose their privileges if they are compromised (such as when a trusted device is misplaced). If the calling account had been revoked `role`, emits a {RoleRevoked} event. Requirements: - the caller must be `account`. May emit a {RoleRevoked} event."
      },
      "revokeRole(bytes32,address)": {
        "details": "Revokes `role` from `account`. If `account` had been granted `role`, emits a {RoleRevoked} event. Requirements: - the caller must have ``role``'s admin role. May emit a {RoleRevoked} event."
      },
      "supportsInterface(bytes4)": {
        "details": "See {IERC165-supportsInterface}."
      }
    },
    "title": "Carbon Credit Validation & Issuance System",
    "version": 1
  },
  "userdoc": {
    "kind": "user",
    "methods": {
      "registerValidator()": {
        "notice": "Validators self-register by staking ETH"
      },
      "stake()": {
        "notice": "Validator tops up their stake"
      }
    },
    "notice": "Manages projects, validators, staking, credibility, and credit minting",
    "version": 1
  }
}